:100000000C94E8030C942F040C942F040C942F04EC
:100010000C942F040C942F040C942F040C942F0494
:100020000C942F040C942F040C942F040C94352B57
:100030000C94E62B0C94CA220C942F040C942F04DD
:100040000C942F040C942F040C942F040C94302344
:100050000C942F040C942F040C942F040C942F0454
:100060000C942F040C942F040C942F040C942F0444
:100070000C942F04296514001A00080015001700BD
:100080001C0018000C00120013002A002B4304006F
:100090001600070009000A000B000D000E000F00FB
:1000A00033000857E1001D001B0006001900050081
:1000B00011001000360037000757D95CE0002D0210
:1000C0002E64540055002C002C004C44500051006C
:1000D00052004F000100560014001A0008001500DD
:1000E00057000100010001000100010001000A00A9
:1000F00004001600070009000100095D010001006D
:1001000001000857010005001D001B000600190032
:1001100001001000010001000100010001000100C8
:1001200001000100010001000100010001000100C7
:100130000100085D35000357045705570657220094
:1001400023002400250000570157010001005D0035
:100150005E005F006000010001000100010001007D
:1001600001000100010061006200010001000100C6
:1001700001000100010001000100010001001F0257
:1001800001005600570001000100010001000100BC
:10019000E400E70035001E001F00200021002200BF
:1001A0002300240025000057015701000100010031
:1001B0000100010001000100010001000100010037
:1001C00001003100010001000100010001000100F7
:1001D00001000100010001000100010001001F02F7
:1001E0000100560057000100010001004A004E00C6
:1001F0004B004D0029003A003B003C003D003E0012
:100200003F004000410042004300460002574400C6
:100210004500010001000100010001000100C45C73
:10022000C35C0100010001000100010001000100A8
:10023000010001000100CA5CC95CC25C0100480009
:1002400001000100010001000100010001000100A6
:10025000010001000B5D010001000100010001002F
:100260000100010001000100010001000100010086
:100270000100010001000100010001000100010076
:100280000100010001000100010001000100010066
:10029000010001000100010001000A5D01000100F0
:1002A0000100010001000100010001000100010046
:1002B0000100010010003600000036003700000089
:1002C00000000000000000002A2B280000000000B1
:1002D00000000000000000000000002900000000F5
:1002E0002C1E3420212224342627252E362D373863
:1002F000271E1F202122232425263333362E37386C
:100300001F0405060708090A0B0C0D0E0F10111229
:10031000131415161718191A1B1C1D2F3130232DF5
:10032000350405060708090A0B0C0D0E0F101112F3
:10033000131415161718191A1B1C1D2F3130354CA4
:1003400000000000000000000000000000000000AD
:10035000000000000000000000000000000000009D
:10036000000000000000000000000000000000008D
:10037000000000000000000000000000000000007D
:10038000000000000000000000000000000000006D
:10039000000000000000000000000000000000005D
:1003A000000000000000000000000000000000004D
:1003B000000000000000000000000000000000003D
:1003C000000000000000000000000000000000002D
:1003D000000000000000000000000000000000001D
:1003E0000001010101010100010101010000000003
:1003F00000000000000000000000010001000101F9
:1004000001010101010101010101010101010101DC
:1004100001010101010101010101010000000101CF
:1004200000000000000000000000000000000000CC
:1004300000000000000000000000000101010100B8
:1004400000047F3F1F643214643214783C1E1E1473
:100450000A052223252628292A2C2D2F3032333530
:1004600036383A3B3D3E4042434547494A4C4E5060
:1004700051535557595A5C5E6062646668696B6D8A
:100480006F71737577797B7D7F81838587898A8C8E
:100490008E90929496989A9C9E9FA1A3A5A7A8AA95
:1004A000ACAEAFB1B3B4B6B8B9BBBCBEBFC1C2C3CA
:1004B000C5C6C7C9CACBCCCDCED0D1D2D2D3D4D564
:1004C000D6D7D7D8D9D9DADADBDBDBDCDCDCDCDC8D
:1004D000DDDDDDDDDCDCDCDCDCDBDBDBDADAD9D965
:1004E000D8D7D7D6D5D4D3D2D2D1D0CECDCCCBCAF3
:1004F000C9C7C6C5C3C2C1BFBEBCBBB9B8B6B4B319
:10050000B1AFAEACAAA8A7A5A3A19F9E9C9A9896AE
:100510009492908E8C8A89878583817F7D7B797781
:100520007573716F6D6B6968666462605E5C5A5961
:1005300057555351504E4C4A4947454342403E3D22
:100540003B3A3836353332302F2D2C2A29282625B0
:100550002322FFAA7F554000010101010101010191
:100560000102020202020202020203030303030366
:100570000303040404040404040505050505060634
:1005800006060607070707070808080809090909F2
:100590000A0A0A0B0B0B0C0C0C0D0D0D0E0E0E0F98
:1005A0000F0F101011111112121313141415151628
:1005B000161717181819191A1A1B1B1C1D1D1E1E99
:1005C0001F202021222223242425262627282929EA
:1005D0002A2B2C2D2D2E2F30313232333435363715
:1005E00038393A3B3C3D3E3F404142434445464713
:1005F00048494A4C4D4E4F50515354555658595AEC
:100600005B5D5E5F616264656668696B6C6D6F708F
:1006100072737577787A7B7D7E8082838587888AFE
:100620008C8E8F91939596989A9C9EA0A2A3A5A735
:10063000A9ABADAFB1B3B5B7BABCBEC0C2C4C6C931
:10064000CBCDCFD1D4D6D8DBDDDFE2E4E7E9EBEEEA
:10065000F0F3F5F8FAFDFF0403300000000E035537
:10066000005400340037002E003200000010034B0D
:1006700000650079006800690076006500000004EC
:1006800003090409023B00020100A0FA090400006A
:1006900001030101000921110100012240000705A9
:1006A000810308000A090401000103000000092178
:1006B0001101000122C0000705820320000A120177
:1006C000100100000008EDFE00000100010203011E
:1006D00005010902A10185020901A100050919010D
:1006E0002905150025019505750181029501750300
:1006F00081010501093009311581257F95027508B1
:10070000810609381581257F950175088106050C3C
:100710000A38021581257F950175088106C0C0053C
:10072000010980A10185031A81002A8300160100B6
:10073000260300950175108100C0050C0901A10177
:1007400085041A01002A9C02160100269C029501CC
:1007500075108100C005010906A10185050507196D
:10076000E029E715002501950875018102050719A3
:100770000029EF1500250195F07501810205081982
:10078000012905950575019102950175039101C037
:1007900005010906A101050719E029E71500250152
:1007A00095087501810295017508810105071900F9
:1007B00029FF150026FF0095067508810005081918
:1007C000012905950575019102950175039101C0F7
:1007D00011241FBECFEFD4E0DEBFCDBF04B603FEB1
:1007E00027C08091EF039091F003A091F103B091A5
:1007F000F2038730904BA740B04BD1F41092EF0337
:100800001092F0031092F1031092F20314BE84B719
:10081000877F84BF0FB6F894A895809160008861A7
:1008200080936000109260000FBEE0E0F8E309954D
:1008300012E0A0E0B1E0E6EEFCE502C005900D920A
:10084000A83BB107D9F723E0A8EBB2E001C01D92A5
:10085000AF3EB207E1F70E9482280C94352E0C942B
:1008600000000C9456040C9485088091B8028130E5
:1008700049F0882319F0823041F0089584E390E034
:100880000C94120582E00C94131F81E00C94DD1E81
:10089000FC018081813019F0823021F0089580E0E0
:1008A0000C94DD1E81E192E00C94D20584E00C945E
:1008B000600BFC018081813031F48185811108C099
:1008C000828590E00895823031F083E090E00895D1
:1008D00090E080E0089582E090E008950E9459043D
:1008E0008093B802813049F0882319F0823041F0BA
:1008F000089584E390E00C94FD0482E00C94F21ED1
:1009000081E00C94DD1EFB0189302DE5920719F181
:1009100028F488309D45A9F081E008958A302DE5BE
:10092000920741F18B309D45B9F78281882309F107
:1009300081E00E94DD1E85E00E94131F8DE192E0A0
:1009400007C082818823A9F00E94D81E84E192E02A
:100950000E94D2050DC08281882359F087E192E080
:100960000E94D20580E00E94DD1E85E00E94F21EFA
:1009700080E0089582818823E1F381E00E94DD1EFA
:1009800085E00E94131F8AE192E0E2CFCF93DF93CC
:100990009C013A9521153F4168F5EC01CC27D170B7
:1009A000DC01AA27B270AC01442754709C012227B5
:1009B000387094FF11C080E1CD2B09F480E0AB2B9F
:1009C00009F08062452B09F08064232B09F08068D0
:1009D000FB01DF91CF91099481E0CD2B09F480E0F8
:1009E000AB2B09F08260452B09F08460232B81F347
:1009F0008860EECFDF91CF910895CF93DF93EC0124
:100A0000805E9109089720F069E97AE1209711F456
:100A100065E178E1CE010E94C6048C2FDF91CF9171
:100A20000C943017CF93DF93EC010E94AC17CE01EA
:100A3000805E9109089720F060EA7AE1209711F42E
:100A40006CE178E1CE01DF91CF910C94C604CF9395
:100A5000DF93EC010E94FD04CE01DF91CF910C9455
:100A6000120581E008950C9483041F93CF93DF93C4
:100A700000D000D00F92CDB7DEB749835A836B8385
:100A80002091F50289819A8121111BC06623A9F06A
:100A90000E94F11F182F682F89819A810E948E1F52
:100AA00069817A81812F0F900F900F900F900F9096
:100AB000DF91CF911F910C946D060E94C51F182FD6
:100AC000EFCF0E94F11F69817A81EDCFFC01408157
:100AD00051816281738184810C9435051F93CF937A
:100AE000DF9390E0FC01E054FD4F1491FC01E054D1
:100AF000FC4FD491805C9C4FFC01C491DD2319F024
:100B000081EE0E943017CC2319F086EE0E94301738
:100B1000812F0E940218CC2319F086EE0E94AC1798
:100B2000DD2331F081EEDF91CF911F910C94AC1752
:100B3000DF91CF911F910895FF920F931F93CF9351
:100B4000DF93EC01F62E8881882331F18E010F5F4F
:100B50001F4F813041F4C9818C2F0E9430178C2F98
:100B60000E94AC1705C0823079F489810E94301749
:100B7000E80121968F2D815030F3EFE9FFE03197A6
:100B8000F1F700C00000F7CF833011F48981E8CF7E
:100B90000E946E058E01ECCFDF91CF911F910F91D6
:100BA000FF90089560E00C949C050E943B21811108
:100BB00002C00E94E2210E944A0B0C9431040E9460
:100BC0004A130E94E7090C943304282F2F7041F038
:100BD000822F90E02A3010F44D96089506970895DC
:100BE00087E290E0089508950C94F30581E008955C
:100BF0000C94F605CF93C82F0E94F4058C2FCF914B
:100C00000C94F80508950E94BD1A0E9402062FEF69
:100C100084E39CE0215080409040E1F700C0000058
:100C20000C9454230F931F93CF93DF93EC010E94F6
:100C300066058C01BE010E94A012BE01C8010E947F
:100C400033058823E9F1BE01C8010E94E61288231A
:100C5000B9F1BE01C8010E94C50B882389F1BE010C
:100C6000C8010E94130A882359F1BE01C8010E94DD
:100C70004314882329F1BE01C8010E9484148823EB
:100C8000F9F0BE01C8010E94A7158823C9F0BE0172
:100C9000C8010E94A611882399F08A81882339F01F
:100CA00001158CE5180751F00E3D1C4579F0CE0179
:100CB000DF91CF911F910F910C9431050E94030693
:100CC00080E0DF91CF911F910F9108950E94E22162
:100CD000F7CF90E080E008950895282FE62F872F22
:100CE00090E06CE070E00E94A12DE80FF92FF11D5B
:100CF000822F90E060E370E00E94A12DE80FF91FC1
:100D0000EE0FFF1FEC58FF4F859194910895FC0161
:100D1000EE0FFF1FE05CFB4F859194910895CF93F8
:100D2000DF930E946D060E94AB07EC01811520E560
:100D3000920708F042C0811530E4930708F0BFC065
:100D4000883E910528F5803E910508F0A0C0883ABC
:100D5000910588F4853A910508F092C0813091059B
:100D600009F495C0009709F492C0049708F08FC069
:100D7000D0E0C0E08CC08F3B910508F48CC0805C53
:100D80009109C03CD105A0F30E948706EC017FC009
:100D9000811540E2940750F4C11581E0D80708F0AE
:100DA00076C0C03FD10520F3D06571C0811520E326
:100DB000920708F07BC09F70E7CF811535E5930758
:100DC00070F5811544E5940708F0ADC0C11582E5C2
:100DD000D80750F4C11521E5D20708F473C0DC2F01
:100DE000CC27C16FD06A53C09C2F969596959E01D3
:100DF00023703327C115D34508F083C0C1E0D0E08C
:100E000002C0CC0FDD1F2A95E2F7892F90E0E5E0C4
:100E1000880F991FEA95E1F7C82BD92B70C0C1152F
:100E200089E5D807A8F4C11528E5D20708F080C0E5
:100E3000C11536E5D30708F09BCF8C2F0E944208DE
:100E4000C82FD0E0DC2FCC27CC27DF71D0621FC0A9
:100E5000C1154AE5D40708F470C0CE01905681153B
:100E6000904208F085CF8D2F8F710E94420890E04C
:100E7000982F882788279F719C012C2BE901E6CFAA
:100E8000C55AD0E0C25BDD4FC881D0E0D064CE014E
:100E9000DF91CF910895C85AD0E0CC0FDD1FC05E1E
:100EA000DD4F0990D881C02DD464F1CF9927D3FFAD
:100EB00003C0EC01D86CEBCFEC01D06CE8CFDF7055
:100EC000D06AE5CFCE01A4E096958795AA95E1F783
:100ED00083702C2F26952695237030E0B5E0220FE5
:100EE000331FBA95E1F7382B8C2F8370C1E0D0E027
:100EF00002C0CC0FDD1F8A95E2F7C22BD32BDC6832
:100F0000C6CFC1E0D0E002C0CC0FDD1F2A95E2F7CA
:100F1000892F90E075E0880F991F7A95E1F7C82B2B
:100F2000D92BDA68B4CFD82FCC27C46FD06AAFCF13
:100F3000DC2FCC27C06FD06AAACF8C2F8F700E9475
:100F4000420834E0D695C7953A95E1F7CF709C2FCB
:100F5000EC01D0699CCF82389105B1F1B0F48133B6
:100F6000910509F475C048F48932910509F469C006
:100F70008A32910509F473C008958533910509F407
:100F800059C08933910501F10895833E9105A9F176
:100F900038F4803E9105F9F0823E910549F10895BB
:100FA000863E9105A9F1873E9105C9F1843E9105E0
:100FB00019F52091E10321FF1FC08091E00384FD1A
:100FC00014C087EE90E008952091E0032370A1F013
:100FD00080EE90E008952091E00320FD47C030911D
:100FE000E10330FF09C024FF44C090E080E004C06A
:100FF0002091E00322FDF7CF08952091E00322FD28
:101000003BC03091E10330FDE3CF24FFF5CFEDCFBE
:101010002091E00323FFF0CF24FDE7CFD2CF209132
:10102000E00323FD2CC03091E10331FFEECF84EECD
:1010300090E008952091E00325FFDECF89E290E063
:1010400008952091E00325FFD7CF85E390E0089530
:101050002091E00326FFD0CF8AE290E0089520910E
:10106000E00326FFC9CF81E390E0089589E390E093
:10107000089583EE90E0089582EE90E0089586EE64
:1010800090E008959091E00392FF06C0282F287108
:101090002830F9F4877F846093FF06C0282F2871D9
:1010A0002831F1F4877E84612091E10320FF06C09E
:1010B000382F38713830D9F4877F816021FF06C01E
:1010C000282F28712831D1F4877E816194FD877E95
:1010D0000895282F24712430F9F68B7F8860DCCFA7
:1010E000282F2471243101F78B7E8861DDCF382FC2
:1010F0003171313019F78E7F8860E0CF282F217150
:10110000213121F78E7E8861E1CF0895E82FF0E04C
:10111000EE0FFF1FE055FC4F8081918108950895E7
:1011200080EA8A95F1F70895CF93DF93ADE5B2E0B9
:1011300041E652E0C1E0D0E08D91E82FE295EF70FA
:10114000F0E061A18F709E0101C0220F8A95EAF73D
:10115000922F9095962391A382A1822B82A34A1766
:101160005B0751F7A1E5B2E04DE552E0C1E0D0E008
:101170008D91E82FE295EF70F0E061A18F709E01F4
:1011800001C0220F8A95EAF7922F9095962391A39A
:1011900082A1822B82A34A175B0751F71092A90301
:1011A0001092A8031092B1031092B0031092AB03F7
:1011B0001092AA031092B3031092B2031092AD03DF
:1011C0001092AC031092B5031092B4031092AF03C7
:1011D0001092AE031092B7031092B60384E00E94FF
:1011E0008D09DF91CF910C94D5054F925F926F924C
:1011F0007F928F929F92AF92BF92CF92DF92EF92A7
:10120000FF920F931F93CF93DF9308EA13E09DE5BE
:10121000C92E92E0D92E912CAA24A394B12CD801E6
:101220006D907C90F801119211928F01D6018D91F1
:101230006D01C82FC295CF70D0E099A18F70750154
:1012400001C0EE0C8A95EAF7892F8E2989A38AA11D
:101250008E2C809488218AA30E94900881E5482ED4
:1012600082E0582E30E020E0F8013297D2016D91F3
:101270002D01862F82958F7090E0DC0190968C91E5
:101280004081518190E06F7002C0959587956A9575
:10129000E2F780FD3FC0C501022E02C0880F991FF2
:1012A0000A94E2F7842B952B918380832F5F3F4F25
:1012B0002C303105D9F689A1882289A28AA1E82A91
:1012C000EAA281E0208131812615370509F480E00A
:1012D000982AB3E0003B1B0709F0A1CF292D44E079
:1012E00060EB73E088EA93E00E948E090E94DF05BC
:1012F000892DDF91CF911F910F91FF90EF90DF909B
:10130000CF90BF90AF909F908F907F906F905F90A5
:101310004F90089590E080E0C5CF0895FF920F931D
:101320001F93CF93DF93F82E092F162FD72FC42F9B
:10133000222349F081E08093BB020E94FA2290931D
:10134000BA028093B9028091BB028823A1F08091F8
:10135000B9029091BA020E940623069760F0EF2D21
:10136000F02FA12FBD2F90E080E0D0E08C179D07DB
:1013700044F01092BB02DF91CF911F910F91FF902B
:101380000895219131912D933D930196EFCFCF9305
:101390009091CC02992321F0811116C01092CC02B9
:1013A000CF910895EC2FF0E0EE0FFF1FE454FD4FB6
:1013B000808191810E94FD040E94D820CF5F80919E
:1013C000CC02C81778F3EACFC0E0F9CF0895809136
:1013D000EC01882399F08091CD02882379F08091E7
:1013E000D0029091D102009749F00E940623C39742
:1013F00028F01092CD0281E00C94C7090895109254
:10140000CD021092EC011092D1021092D00281E034
:101410000C94C7098091EC0181110C94FF0981E0C3
:101420008093EC0108956F927F928F929F92AF927A
:10143000BF92CF92DF92EF92FF920F931F93CF93C1
:10144000DF938C017B011092CE02073F8CE51807D9
:10145000B9F4FB01C281CC2349F181E08093EC0116
:101460008C2FDF91CF911F910F91FF90EF90DF9024
:10147000CF90BF90AF909F908F907F906F90089586
:10148000083FFCE51F0739F4FB01C281CC2371F052
:101490000E94FF09E5CF093FFCE51F0739F4FB0176
:1014A000C281CC2319F00E940A0ADACFD091EC0154
:1014B000C1E0DD23A9F21092CF02C0E0882483941A
:1014C000912C772473943091CF02323088F0809140
:1014D000CE02882309F498C00E94FA229093D10288
:1014E0008093D00280E00E94C70981E0C827B8CF6E
:1014F000C32ED12CC60165E070E00E94A12D805062
:101500009F4FFC0180819181AFEF20E0E22FF0E05E
:10151000EE0FFF1FE80FF91F4591549104171507AF
:1015200009F4A22F452B11F02F5FF0CFAF3FB9F494
:10153000612CC629DD2359F0C60165E070E00E94E8
:10154000A12D80509F4FD1E0FC0184818111D0E01A
:10155000D1708091CF028F5F8093CF02B4CF609023
:10156000CD02F7014281C60165E070E00E94A12D25
:10157000FC01E050FF4F9481540101C0AA0CAA95D0
:10158000EAF74423E1F0A92AA482662089F2C40183
:1015900002C0880F991F2A95E2F70197A81619062D
:1015A00041F682819381009729F00E94FD04709298
:1015B000CE02BFCF61E0832F0E94E609F8CFA401DD
:1015C00002C0440F551F2A95E2F741505109941764
:1015D0001506C1F482819381009779F00E9412056B
:1015E000C60165E070E00E94A12DFC01E050FF4FB4
:1015F000A0949481A922A4829CCF60E0832F0E94B2
:10160000E609EECF612CECCFC1110EC081E00E9443
:10161000C709DD2309F469CF1092D1021092D002DC
:1016200081E08093CD0261CFF7018281882309F4A4
:101630005CCF8091CD02882309F457CF0E94FA2213
:101640009093D1028093D002E091CC02E83008F070
:101650004CCF81E08E0F8093CC02F0E0EE0FFF1FA5
:10166000E454FD4F1183008340CFCF93DF93EC010F
:1016700097FF0CC0FB018281882341F00E94640B1C
:10168000CE019F770E94A80B0E94900B81E0DF9112
:10169000CF9108958CE090E00E94ED2D90E0B0E0B5
:1016A000A0E08093B8039093B903A093BA03B093DA
:1016B000BB0308956091B8038CE090E00C94012E78
:1016C0008093B8030C945A0B0E9486208093BC032D
:1016D0000E9499208091B803813089F0882359F0C5
:1016E000823091F08430B9F08FE39CE90197F1F7F3
:1016F00000C00000089582EE0E943017F5CF88E107
:1017000093E00E942705F0CF82EE0E94301787E514
:101710000E940218E9CF86EE0E94021888E1F8CFF5
:101720008091B803813071F0882341F0823031F02C
:10173000843061F08091BC030C94962082EE0E946C
:10174000AC17F8CF8CE20E940218F4CF88E2FBCFEE
:101750000F931F93CF93DF938C01CCE0D0E0C801AF
:101760000C2E02C0969587950A94E2F78F700E941E
:10177000E5050E9402182497CC3F8FEFD80779F730
:10178000DF91CF911F910F9108950F931F93CF93E6
:10179000DF93EC018B01FB018281882371F0C33E52
:1017A000FCE5DF0719F188F4C13EECE5DE07C9F07E
:1017B00081E0C23EFCE5DF0789F0B801CE01DF9190
:1017C000CF911F910F910C94350BC43E8CE5D80737
:1017D00079F084E0C53EECE5DE0779F78093B80345
:1017E00002C01092B8030E945A0BE7CF82E0F6CFF6
:1017F00083E0F4CFCF92DF92EF92FF920F931F938B
:10180000CF93DF93E82FF0E0E95AFA4F71110CC043
:101810006491762F862FDF91CF911F910F91FF90CA
:10182000EF90DF90CF900895262F30E0C72FD0E0C3
:10183000E4914E2FEE2EF12CC90166E070E00E947B
:10184000A12D0FEF10E0B8010E94B22DDB01220F95
:10185000331FCB0165E570E00E94A12D281B390BD9
:10186000C22ECC0CC20EC8018C1B9D0BB7010E946E
:10187000A12D292FD12CC601BE010E94A12D692FB7
:1018800070E0C801861B970BB7010E94A12D392F6C
:10189000C8018C199D09BE010E94A12D692F70E01D
:1018A000C801861B970BB7010E94A12D892FA2307A
:1018B000B10591F038F4109759F0119789F0922FF3
:1018C000232F06C0A430B10571F088F01697B9F740
:1018D000692F7E2F822F9FCF9E2FE22F282FF8CFA8
:1018E0009E2FE32FF5CF922F2E2FE82FF1CFE22F4F
:1018F000242F932FEDCF0895CF93DF93762FE90117
:10190000682F842F0E94FA0B798368838A83DF9182
:10191000CF9108958091BD03982F9E7F29F4817007
:1019200082608093BD0308958A34E8F381708864EF
:10193000F8CF88E090E00C94F52DCF92DF92EF92F3
:10194000FF926B017C010E948A0CB701A60188E01E
:1019500090E0FF90EF90DF90CF900C94132EEDEB82
:10196000F3E083E0808311828FEF8283838314828C
:1019700060817181828193810C949D0C8091BD0363
:1019800080FF02C08695089580E008958091C1038C
:10199000833018F48F5F8093C1036091BD03709111
:1019A000BE038091BF039091C0030C949D0C809165
:1019B000C103882319F081508093C1036091BD0356
:1019C0007091BE038091BF039091C0030C949D0C55
:1019D000A091F101B0E08091BD0380FF0CC0809127
:1019E000D60290E063E070E00E94A12DBD018E530D
:1019F0009C4F0C94D3132091D5023091F001822F8B
:101A000090E063E070E00E94A12DFC01EE53FC4FDA
:101A1000231728F71182108212822F5F3396F8CF96
:101A2000A82FB62F8091BD0380FF17C02091D5024B
:101A30003091F001822F90E063E070E00E94A12DD0
:101A4000FC01EE53FC4F231710F00C94E80CA1831B
:101A5000B08342832F5F3396F6CF0895CF93DF9301
:101A600000D00F92CDB7DEB79091BD0390FF0AC0B2
:101A70009E012F5F3F4F0E947C0C4B8169818A81C0
:101A80000E94100D0F900F900F90DF91CF9108954D
:101A9000CF93DF93EC01EC81F0E0EE5AFB4F4491E1
:101AA000EDEBF3E0628181810E942E0D8C818F5FCE
:101AB0008C83DF91CF910895CF93DF93EC01EDEB11
:101AC000F3E0438162818C810E942E0D8C818F5FB7
:101AD0008C83DF91CF9108950F931F93CF93DF9362
:101AE00000D00F92CDB7DEB78C018091D202811168
:101AF0000AC09E012F5F3F4F4FEF6FEF0E947C0C9B
:101B00008A818093D202F8016481613069F080910A
:101B1000D20240E0662361F040E0623011F440916F
:101B2000D20280E060E004C06091D20240E080E038
:101B30000E94100DF801848190E0019663E070E04E
:101B40000E94C62D84830F900F900F90DF91CF914C
:101B50001F910F910895AF92BF92CF92DF92EF92B3
:101B6000FF920F931F93CF93DF9300D00F92CDB7C7
:101B7000DEB7182FF62E042FE22E9091BD0390FFB2
:101B800029C0E92FE695AE2FB0E0AF59BD4F8C913B
:101B90008093DE029E7F923059F59E012F5F3F4F6A
:101BA000812F0E947C0C4B8169818A810E94100DDB
:101BB0001093BE03F092BF030093C003EE2051F0D8
:101BC0006091BD037091BE038091BF039091C003EB
:101BD0000E949D0C0F900F900F90DF91CF911F915D
:101BE0000F91FF90EF90DF90CF90BF90AF9008954E
:101BF000823019F40091C003DBCF863019F41091C4
:101C0000BE03D6CF8930D9F3893191F6E9518E2FB1
:101C10008170D82EE695F0E0EE5AFA4FA590B49078
:101C2000C12CBB244091EF01C41618F00E94E80CAF
:101C3000BFCF2C2D30E0C501B9010E94A12D642F2A
:101C400070E00E94B22DE12FD11014C0E60F8091F8
:101C5000D502820F932F911D63E070E00E94A12DA9
:101C60009C012E533C4F402F6F2D8E2F0E947C0CD9
:101C7000C394D8CFE61BEBCFEDEBF3E09181282F97
:101C80004381628188E0890F0C94AB0D81E00C9454
:101C90003C0EEDEBF3E09181282F4381628188EFC8
:101CA000890F0C94AB0D81E00C94490EEDEBF3E041
:101CB000628128E0620F08F46FEF282F4381818151
:101CC0000C94AB0D81E00C94560EEDEBF3E06281C9
:101CD00028E0621B08F460E0282F438181810C9486
:101CE000AB0D81E00C94650EEDEBF3E0438128E051
:101CF000420F08F44FEF282F628181810C94AB0DC5
:101D000081E00C94740EEDEBF3E0438128E0421B7C
:101D100008F440E0282F628181810C94AB0D81E0B2
:101D20000C94830E20E00C94AB0DEF92FF921F9366
:101D3000CF93DF93EC0110E0EE24EA94F12C309184
:101D4000EF01131770F00E94E80C9A818C8190FFCC
:101D500027C08F5F8C83DF91CF911F91FF90EF9011
:101D600008958091D502810F9927991F63E070E053
:101D70000E94A12DFC01EE53FC4F632F70E0C701C0
:101D80000E94C62D812F0E94982D9C819F01409119
:101D9000C0036091BF03890F0E947C0C1F5FCFCFEF
:101DA0008150D8CFBF92CF92DF92EF92FF920F93E4
:101DB0001F93CF93DF93FC018281DFEF80FFD1E09F
:101DC000C0E08091EF01C817C0F00E94E80C80913C
:101DD000D402D13009F050C0811102C08091EF01CE
:101DE00081508093D402DF91CF911F910F91FF908A
:101DF000EF90DF90CF90BF9008958091D502CC2EC8
:101E0000D12C8C0D9D2D911D63E070E00E94A12DC1
:101E10008E539C4F7C01FC0111821082128204E0DF
:101E200010E0B12C8091D4028B0D8930FCF08770CA
:101E3000082E000C990BC816D90691F48091C003A6
:101E400090E0B8010E94A12D95958795959587956D
:101E50009701482F6091BF038091BE030E947C0CC4
:101E6000BD0E01501109F1F6CF5FABCF87FFE0CF78
:101E70009091EF01890FDCCF90E001966091EF0126
:101E800070E00E94C62DADCFCF932091D502309146
:101E9000F001822F90E063E070E00E94A12DFC0130
:101EA000EE53FC4F231720F1C0E06091EF01C617FD
:101EB00028F10E94E80C2091ED018091D302820F5D
:101EC0008093D3029091EE01920F9093EE01191638
:101ED00054F4082E000C990B4091EF014150550B22
:101EE000841795071CF021952093ED01CF9108955B
:101EF0001182108212822F5F3396D4CFEC2FF0E044
:101F000070E0CF010E94C62D9091D502890F90E01C
:101F10002091D302022E000C330B63E070E00E948C
:101F2000A12DE217F307ACF02091EE01022E000C78
:101F3000330B2E173F076CF09C012E533C4F409102
:101F4000C0036091BF038091BE030E947C0CCF5FF1
:101F5000ACCFFC01EE53FC4F118210821282F7CFFE
:101F60000F931F93CF938C01FC018481958101967F
:101F70008170992795838483C0E08091EF01C81711
:101F800028F0CF911F910F910C94E80C8091D5020D
:101F90008C0F9927991F63E070E00E94A12D9C018E
:101FA0002E533C4F8C2F8695F80144815581840F28
:101FB000952F911D817065E50E94982D4091C00379
:101FC0006091BF030E947C0CCF5FD7CF0F931F930C
:101FD000CF93DF938C01D0E0C0E03091EF013C174C
:101FE0001D0609F074F40E94E80CF801848190E069
:101FF0000196817099278483DF91CF911F910F9172
:1020000008958091D5028C0F9D2F911D63E070E0A3
:102010000E94A12DAC014E535C4FF8019481609158
:10202000BF038091BE0336953C171D0651F04CF05E
:10203000992349F09A014091C0030E947C0C21969B
:10204000CCCF9923B9F39A0140E0F7CFEDEBF3E061
:1020500080818E7F808360817181828193810E94E3
:102060009D0C1092DF022FEF80E792E0215080401C
:102070009040E1F700C000000C94E80C6091BD03B3
:10208000669570E04BE050E082EF91E00E94E02D19
:10209000892B19F481E08093DF020E94FA22909349
:1020A000D8028093D70208959091BD0390FF35C068
:1020B0009170811128C092609093BD03662351F006
:1020C0006091BD037091BE038091BF039091C003E6
:1020D0000E949D0C6091BD03669570E04BE050E05E
:1020E00082EF91E00E94E02D892BA1F01092DF0297
:1020F00081E08093DA024091C0036091BF03809138
:10210000BE030C94920E853210F09864D5CF880FE0
:10211000982BD2CF0E943E10EBCF0895682F90915C
:10212000BD03969581E0890F853208F081E00C941B
:10213000541081E00C948E10682F9091BD039695F9
:102140008FEF890F09F484E20C94541081E00C9411
:102150009C1061E00C945410EDEBF3E08081816001
:10216000808386950C94A9108091BD0380FD0C940A
:1021700026100C94AC1060E00C9454108091DD0299
:1021800081112EC00E943B21811104C00E94E221D6
:102190000E94AF0C0E94990C6093BD037093BE0324
:1021A0008093BF039093C0036E7F61F40E94AF0CD5
:1021B0000E94990C6093BD037093BE038093BF038C
:1021C0009093C0030E948A0C1092DF028091BD039D
:1021D00080FF03C086950E94BB1081E08093DD02E2
:1021E00008950F931F93CF93DF938091DF0288238D
:1021F00009F48DC08091DE02E091BD03E695E81BF5
:10220000E093D9028230C9F5F0E0E25BFB4FE49144
:10221000CE2FD0E008E41DE08091DA02882389F017
:102220001092DA020E94FA229E0120953095820FC8
:10223000931F9093D8028093D7021092DC021092E1
:10224000DB028091D7029091D8020E9406238C175E
:102250009D0708F45CC0E091D702F091D802CE0F40
:10226000DF1FD093D802C093D70287ED92E0F80128
:10227000DF91CF911F910F910994863049F4F0E0DE
:10228000E55BFB4FE491CE2FD0E00CE51DE0C4CF21
:10229000893051F4E695F0E0E85BFB4FE491CE2FF6
:1022A000D0E005E91EE0B8CF8F3051F4E695F0E0BC
:1022B000EB5BFB4FE491CE2FD0E002ED1EE0ACCF04
:1022C000853149F4F0E0EE5BFB4FE491CE2FD0E096
:1022D00004E41FE0A1CFC8EED3E000EB1FE088319B
:1022E00009F49ACF833239F4E0E4F4E0C591D49153
:1022F0000CE61DE091CFC4EFD1E006EE1FE0843282
:1023000009F48ACFC0EDD7E00BE71CE085CFDF9161
:10231000CF911F910F910895FA01811101C0FB0126
:102320000994CF93DF93C82FD62F0E94BE0C8C1731
:1023300040F00E94BE0C8D1720F4DF91CF910C94D9
:1023400099108C2FDF91CF910C94A9100F931F93AC
:10235000CF938C01FB01C281CC2309F465C00E949C
:1023600086208272F801E25CFC45E431F10538F424
:10237000E95CF14D0C94DA2D0E94B410C0E08C2F72
:10238000CF911F910F91089546EA50E169E970E1FC
:102390000E948C11F3CF49E950E166EA70E1F8CF71
:1023A00043E55EE066E47EE0F3CF46E45EE063E5AD
:1023B0007EE0EECF41E75EE062E67EE0E9CF42E616
:1023C0005EE061E77EE0E4CF4FE85EE060E87EE05B
:1023D000DFCF40E85EE06FE87EE0DACF47ED5CE01B
:1023E00066EC7CE0D5CF46EC5CE067ED7CE0D0CFDE
:1023F00081E00E94A910C2CF65E082E00E949111A5
:10240000BDCF68E086E0FACF6EE089E0F7CF64E107
:102410008FE0F4CF67E185E1F1CF88E1EACF62E2B6
:1024200089E1ECCF83E2E5CFC1E0A9CFCF93DF9381
:10243000EC0181E0898B8F810E94892088850E9430
:102440009F200E94D820EA81FB81309739F06C8967
:102450007D89CE010696DF91CF910994DF91CF91CE
:102460000895CF93DF93EC018881823039F4FB012A
:10247000828193810E94FD0481E08B87DF91CF915F
:102480000895FC018081813029F4FB0180819181D4
:102490000C94FD04823021F4FB0182819381F8CFFA
:1024A0000895FC018081813029F4FB0180819181B4
:1024B0000C941205823021F4FB0182819381F8CFC4
:1024C00008950F931F93CF93DF93EC018A858111B9
:1024D00032C00B811C811755C80166E170E00E9473
:1024E000A12DDC01A65FBE4F1496ED91FC911597CE
:1024F000309731F054966D917C91805F9E4F099595
:10250000C80166E170E00E94A12D8C01065F1E4F9C
:10251000F80187810E948F20F80180850E94A52004
:102520000E94D820188219861B861E821D82109256
:10253000E1021092E002DF91CF911F910F91089577
:10254000DF92EF92FF920F931F93CF93DF937C0163
:10255000FB018281882391F08091FD018F3F71F012
:10256000CAE0D1E010E000E0DD24D3948091FD01C9
:10257000082E000C990B8017910744F4DF91CF913E
:102580001F910F91FF90EF90DF9008958E81882327
:10259000C9F089859A858E159F0539F48091E002EE
:1025A0009091E1028E159F0569F0DF86FC86EB862F
:1025B0008989811103C0CE010E941612CE010696B0
:1025C0000E9461120F5F1F4F6696D0CFEF92FF926D
:1025D0000F931F93CF93DF937C01FB018C01175561
:1025E0000F3F110511F008F03EC08091FD01082E4B
:1025F000000C990B8017910714F40093FD012281C0
:10260000C80166E170E00E94A12DEC01C65FDE4FBB
:10261000288B92818E81992371F1FA86E9868F5FEA
:102620008E830E94FA229E878D870E94BF208F830F
:102630000E94862088870E949C209885892B888705
:10264000E881F981309759F02C893D89C80166E10C
:1026500070E00E94A12DB901805F9E4F0995F09214
:10266000E102E092E00281E0DF91CF911F910F91B2
:10267000FF90EF9008958823B1F38989882399F317
:10268000C80166E170E00E94A12D805F9E4F0E940C
:102690006112E9CFEF92FF921F93CF93DF93809166
:1026A000FD0110E08F3FE9F5DF91CF911F91FF9081
:1026B000EF900895CE0166E170E00E94A12D865F43
:1026C0009E4FFC01E288F388E114F10419F48AEAD0
:1026D000E82EF12CCE0166E170E00E94A12DFC01F4
:1026E000E65FFE4F86818823D9F0858596850E9416
:1026F0000623E816F906A0F4CE0166E170E00E9418
:10270000A12D7C01865F9E4FFC018189811103C050
:10271000CF010E941612C701805F9E4F0E94611276
:102720001F5FC12FD0E08091FD01082E000C990B96
:102730008C179D070CF0BECFB7CF38B1242F209552
:10274000232338B1432B3FB7F894680F791F8617BE
:10275000970711F43FBF0895FC015191CF01E8E0C4
:1027600048B9000000C057FF28B9550F000000C04D
:1027700000C000C028B900C0EA9591F7E8CF9C01DD
:1027800097B1942B97B9CB0163E070E00E94A12D23
:10279000BC01C9010E949D1387EC90E00197F1F7FD
:1027A00000C00000089540E40C94BF130F931F93E2
:1027B000CF93DF93C62FD42F022FFC018281882371
:1027C000C9F06093E4020E94FA229093E30280939E
:1027D000E20280E28C0F883008F050C0C77081E0C0
:1027E00001C0880FCA95EAF7DF91CF911F910F9131
:1027F0000C9415181091E402161335C08091E20272
:102800009091E3020E9406238A3A910560F5C0E2A6
:10281000CD0F1D17B9F080E2810F883040F417709A
:1028200081E001C0880F1A95EAF70E941C18C83091
:1028300048F481E09D2F977001C0880F9A95EAF7C0
:102840000E941518802F0E940218C830B8F4D77063
:1028500081E001C0880FDA95EAF7DF91CF911F91EF
:102860000F910C941C1880E28C0F883038F4C770DC
:1028700081E001C0880FCA95EAF7EFCFDF91CF91D1
:102880001F910F9108959C01CB01233F4CE5340724
:1028900031F190F4283DFCE53F07E9F0293D4CE596
:1028A000340769F1273D3C4579F426E241EE61EEBB
:1028B0000E94D61380E00895253FFCE53F07B9F05C
:1028C00090F0263F3C45B9F0FC0182818823D1F08D
:1028D0001092E402089527E245EE65EEE9CF26E284
:1028E00041EE60EEE5CF27E245EE64EEE1CF26E271
:1028F00041EE62EEDDCF27E245EE66EED9CF28E26B
:1029000041E0EBCF81E00895CF93DF93EC01FB0131
:102910008281882309F419C1C230FCE5DF07C0F1C8
:10292000C6319CE5D90730F09E012A5F3C4529302D
:10293000310570F50E9458219093E1038093E003E4
:10294000C031ECE5DE0709F4CFC008F05BC0C83049
:102950008CE5D80709F4B6C088F5C430ECE5DE078D
:1029600009F4A8C0C0F4C2308CE5D80709F49CC0B3
:102970008091E0038260C330DC4509F498C0809107
:10298000E0039091E1030E9466210E94BD1A80E05D
:10299000DF91CF9108958091E0038061C630ECE52E
:1029A000DE0709F484C08091E0038860C730DC450D
:1029B00008F47DC08091E003806279C0CC308CE562
:1029C000D80709F489C070F48091E0038C60CA30A4
:1029D000ECE5DE0709F46BC008F478C08091E003F1
:1029E0008E7F65C0CE308CE5D80709F479C0809120
:1029F000E0038B7FCF30DC4508F459C08091E003C1
:102A00008F7E55C0CB3FECE5DE0709F457C030F5AB
:102A1000C3318CE5D80709F46FC078F4C131ECE517
:102A2000DE0709F465C0C231DC4509F0A8CF0E9479
:102A3000BD1A8091E0038F773AC0C5318CE5D80785
:102A400009F462C008F476C08091E1038160CA3F56
:102A5000DC4509F094CF8093E10391CFCF3FFCE5B3
:102A6000DF0709F44DC088F48091E1038D7FCD3FED
:102A70009CE5D90781F38091E1038E7FCE3FDC4551
:102A800050F38091E1038360E6CFC130FDE5DF07BD
:102A900009F459C008F444C080E0C230DD4509F0B3
:102AA0006ECF0E94E4216BCF8091E0038160809320
:102AB000E00365CF8091E0038460F9CF8091E1036A
:102AC0008260C9CF8091E0038064F1CF0E94BD1A7B
:102AD0008091E0038068EBCF8091E0038D7FE7CFAA
:102AE0008091E003877FE3CF8091E0038F7DDFCF8C
:102AF0008091E0038F7BDBCF8091E003837FD7CF92
:102B00008091E1038C7FA7CF8091E00382FB99271E
:102B100090F921E0922790FB82F990FB83F9C7CFCF
:102B20008091E103982F909591708E7F892B90FB77
:102B300081F991CF0E94BD1A9091E003892F97FBF4
:102B400087F98058B4CF81E0ACCF81E021CFCF931B
:102B5000DF93EB0186319C4511F50E9486209A8116
:102B6000992399F08A7A91E009F490E09093E50234
:102B7000811109C089E20E9461200E94D82080E072
:102B8000DF91CF91089585E3F6CF8091E502811121
:102B900004C089E20E946820F0CF85E3FBCF81E08A
:102BA000EFCF9093EB028093EA020895E091EA025E
:102BB000F091EB02309721F00190F081E02D099423
:102BC00080E00895E091EA02F091EB02309799F0ED
:102BD00020911002222359F02091E00327FF07C023
:102BE000DC012C9111962C93119725E02C930280F7
:102BF000F381E02D09940895E091EA02F091EB024F
:102C0000309739F022E0DC012C930480F581E02D2F
:102C1000099408952091E8023091E90228173907B4
:102C200071F09093E9028093E802E091EA02F0915A
:102C3000EB02309721F00680F781E02D099408958A
:102C40002091E6023091E7022817390771F090933E
:102C5000E7028093E602E091EA02F091EB023097FE
:102C600021F00084F185E02D0994089508950895D8
:102C70000C94361608950C943A160E9437160C944C
:102C8000381681E008950E94F1220E9494080E9463
:102C9000C3230E94BE100C943B167F928F929F928A
:102CA000AF92BF92CF92DF92EF92FF920F931F935A
:102CB000CF93DF93CDB7DEB72A970FB6F894DEBF78
:102CC0000FBECDBF0E94F5080E944116882309F46B
:102CD00073C04DEEA42E42E0B42E10E000E0702E42
:102CE000802F0E9486086C01F501819091905F0110
:102CF0008816990609F45AC08091790381FD0E94D3
:102D00008F0880E0EE24E394F12C8C249D24940120
:102D10002E213F21232B09F443C08E837F82CE20B6
:102D2000DF2081E0CD2809F480E088870E94FA2224
:102D30008160782F9A8789874E815F8168858A852F
:102D40000E940117000F111FF801E351FD4F808110
:102D50009181E826F926F182E0820E94F1100E941A
:102D600056260E94D6159091EC028917B1F10E9467
:102D7000D6158093EC022A960FB6F894DEBF0FBEEC
:102D8000CDBFDF91CF911F910F91FF90EF90DF901A
:102D9000CF90BF90AF909F908F907F900C94FA054A
:102DA0008F5FEE0CFF1C8C3009F0B1CF0F5F1F4F0F
:102DB0000430110509F093CF8FEF89838A831B823A
:102DC0000E94FA228160782F9D838C8349815A81E9
:102DD0006B818D810E940117C0CF2A960FB6F8949F
:102DE000DEBF0FBECDBFDF91CF911F910F91FF903E
:102DF000EF90DF90CF90BF90AF909F908F907F909B
:102E00000895CF93DF93CDB7DEB72B970FB6F89425
:102E1000DEBF0FBECDBF4F83588769877A878B8708
:102E20001E821D8285E0FE013796DE01119601901B
:102E30000D928A95E1F749815A816B817C818D8160
:102E40009E812B960FB6F894DEBF0FBECDBFDF91EB
:102E5000CF910C946A1DFC01808191810C943320E8
:102E6000882309F478C08238B9F40E94D61581FD10
:102E700072C089E30E9461200E94D8202FEF81EE6A
:102E800094E0215080409040E1F700C0000089E3C9
:102E90000E9468200C94D8208338A1F40E94D61593
:102EA00080FD59C083E50E9461200E94D8202FEF49
:102EB00081EE94E0215080409040E1F700C0000096
:102EC00083E5E6CF8438A1F40E94D61582FD43C085
:102ED00087E40E9461200E94D8202FEF81EE94E0C9
:102EE000215080409040E1F700C0000087E4D0CF3F
:102EF0009CEF980F913A18F40E946120CBCF90E29A
:102F0000980F983050F4877091E001C0990F8A951E
:102F1000EAF7892F0E948920BDCFEBE5E80FE33067
:102F200038F4F0E0EC54FD4F808190E00C940A16E8
:102F3000E8E5E80FE73148F4F0E0EE0FFF1FEA574D
:102F4000FD4F808191810C942016803F20F00E94DB
:102F500064250C944B260895882309F452C08238C6
:102F600071F40E94D61581FF4CC089E30E94612054
:102F70000E94D82089E30E9468200C94D8208338CE
:102F800059F40E94D61580FF3CC083E50E94612061
:102F90000E94D82083E5EFCF843859F40E94D615DB
:102FA00082FF2FC087E40E9461200E94D82087E41E
:102FB000E2CF9CEF980F913AF0F290E2980F9830A0
:102FC00050F4877091E001C0990F8A95EAF7892F34
:102FD0000E948F20D2CF9BE5980F933020F490E091
:102FE00080E00C940A1698E5980F973120F490E051
:102FF00080E00C942016803F20F00E94CC250C9499
:103000004B260895CF93C82F0E943017C93349F437
:103010002FEF87EE93E0215080409040E1F700C011
:1030200000008C2FCF910C94AC17882321F00E94C4
:1030300089200C94D8200895882321F00E948F20A5
:103040000C94D8200895BF92CF92DF92EF92FF9216
:103050000F931F93CF93DF936C01D62FC72FFC01E3
:10306000058102950F70128111110E94AC200E94FF
:103070007F20E82E882371F01123B1F080E28D0FBC
:10308000883090F082E00E9423210E947F2091E00E
:10309000E82EE926BC2EB2949FE0B922EB2DF0E099
:1030A000E55BF14D0C94DA2DE12CF4CF0C2F0F7071
:1030B000C07F11F00295007F1123A9F0002359F081
:1030C00080E28D0F883010F0D11109C0802F0E944E
:1030D00089200E94D8208D2F0E94301714C0802F85
:1030E0000E949F20F6CF8D2F0E94AC17002359F02D
:1030F00080E28D0F883010F0D1112CC0802F0E94FB
:103100008F200E94D8202B2D2850330B24303105DE
:1031100020F40E94D6150E94FA05EE2009F4D5C1CC
:103120000E947B2080FDD1C1F60112820E94752091
:103130000E94F21EC6010E946F1A0E947520DF9144
:10314000CF911F910F91FF90EF90DF90CF90BF90A4
:103150000C94131F802F0E94A520D3CFFC2FFF704B
:10316000FF2EC07FC03219F0F29480EFF822DD23E9
:1031700069F0D13049F1112391F1002351F1F601A9
:10318000858180FFA8CF8F70858323C0112381F0B4
:10319000011106C00E94BF208F290E941518B3CFCD
:1031A0000130C1F70E94BF208F290E94C520ABCFFC
:1031B000011106C00E94CE208F2D0E941C18A3CFA3
:1031C000013009F4A0CFF6CF112329F0063008F022
:1031D0009ACF8F2DE2CF053008F095CFEDCF0023A9
:1031E00059F3D93349F4FFEF27EE33E0F150204093
:1031F0003040E1F700C000008D2F0E94AC1783CF54
:103200008C2F86958695837069F0813009F07BCF8D
:103210008D2F9C2F9370111102C090E080E00E94CE
:10322000201671CF8D2F9C2F9370111102C090E04A
:1032300080E00E940A1667CF112309F1D53F99F06B
:10324000D63FB9F0D43F49F48091DA039091DB0383
:1032500081609093DB038093DA038D2F0E946425B5
:103260000E944B2650CF8091DA039091DB0382605D
:10327000F0CF8091DA039091DB038460EACFD53FF1
:1032800089F0D63FA9F0D43F49F48091DA039091B8
:10329000DB038E7F9093DB038093DA038D2F0E94F4
:1032A000CC25DECF8091DA039091DB038D7FF2CFC6
:1032B0008091DA039091DB038B7FECCF8C2F8370AE
:1032C00009F041C011111FCF4D2F4295469547700F
:1032D000440F440F0D2F0F7010E030E020E0042E5B
:1032E00004C0000F111F221F331F0A94D2F760E0A1
:1032F00070E0CB01D4FF0FC06FE070E080E090E0A1
:1033000004C0660F771F881F991F4A95D2F76095F2
:10331000709580959095C695C695C370602B712B5E
:10332000822B932BC23049F058F4C13019F00E941F
:10333000A41EE9CE0E94921EE6CE0E94B61EE3CEE7
:103340000E94901EE0CE8695112311F08C2F817083
:10335000882309F4D8CE4D2F429546954770440FE7
:10336000440F0D2F0F7010E030E020E0042E04C059
:10337000000F111F221F331F0A94D2F760E070E084
:10338000CB01D4FF0FC06FE070E080E090E004C09C
:10339000660F771F881F991F4A95D2F76095709521
:1033A00080959095C695C695C370602B712B822B26
:1033B000932BC23049F058F4C13019F00E94691FB4
:1033C000A2CE0E94571F9FCE0E947B1F9CCE0E94C0
:1033D000CC1E99CECF70112329F08C2F0E94F21EA3
:1033E0008D2FDBCE8D2F0E941C188C2F0E94131F57
:1033F0008ACED23F89F160F4D03FC9F0D13F29F1A4
:10340000112309F442C0011166CE8C2F8F7121C0A7
:10341000D33F39F1D43FA1F7112369F1CF718C2F3C
:103420000E94F21E63E08C2F0E940E216CCE1123AD
:1034300041F0053008F067CE8C2F8F710E94361F47
:1034400062CE063008F05FCEF7CF8C2F8F7111233C
:1034500069F20E94F21E57CE8C2F8F711123C9F38F
:10346000C5CF112329F08C2F8F710E94DD1E4BCE0A
:103470000E94D81E48CE81E00E942321023008F429
:1034800042CE82E00E9423213ECE002359F0D93360
:1034900009F0B2CE8FEF97EEE3E081509040E0402C
:1034A000E1F7A8CE8C2F8F71A1CF4C2F4F706D2FCD
:1034B000C6010E9469060E94081E25CE4C2F4F703F
:1034C0006D2FC6010E946C061ECEDF91CF911F9119
:1034D0000F91FF90EF90DF90CF90BF9008950F93E2
:1034E0001F93CF93DF93EC018B819C81892B29F073
:1034F0008881998189238F3F29F4DF91CF911F9192
:103500000F910895CE010E9412068823B1F36881BD
:1035100079818A810E943D208C010E948D1F0E942A
:103520008F1EB801CE01DF91CF911F910F910C94A6
:103530002318882321F00E949F200C94D8200895FE
:10354000882321F00E94A5200C94D82008950E9481
:10355000AC200E94BC200E94D8200E94F4260E9429
:103560004B2690E080E00E940A1690E080E00C94E8
:1035700020160E946F200C94A71A0E9499200C9488
:10358000B91AE92FE295EF70E250EE3070F4F0E0F6
:10359000E55AF14D0C94DA2D803F19F020F4883E65
:1035A00020F481E00895843FE1F380E00895883EAF
:1035B000C0F3813FD1F7F5CF93FB882780F90895B9
:1035C0000E9433200C94C11ACF93DF9300D000D017
:1035D0000F92CDB7DEB70F900F900F900F900F9016
:1035E000DF91CF910895CF93DF9300D000D000D02A
:1035F000CDB7DEB726960FB6F894DEBF0FBECDBFAF
:10360000DF91CF910895CF93DF93C091F60280911F
:10361000F7028C1303C0DF91CF910895D0E0CE0163
:1036200066E070E00E94A12DFC01E850FD4F408152
:10363000518162817381848195810E94F31A219660
:10364000C770E5CF409128035091290360912A0368
:1036500070912B0380912C0390912D030C94F31AFD
:10366000FF920F931F93CF93DF9380912D03807F61
:10367000B9F480912A03882399F02091F6020091F1
:10368000F7024091280310912903E0912B03F09158
:103690002C03F42EF122EF01C095D095021306C041
:1036A000DF91CF911F910F91FF90089530E03097F7
:1036B00019F08FEFF81207C02F5F3F4F2770EECF42
:1036C0008C0F9D1F1DC0C90166E070E00E94A12DF6
:1036D000DC01A850BD4F11968C9111978113ECCF4E
:1036E0008C918413E9CF12968C9112978111E4CFBB
:1036F00013968D919C918E179F0710F38E1B9F0B35
:103700008A3A9105C8F680912D038F70806180936D
:103710002D03C90166E070E00E94A12DFC01E35079
:10372000FD4F90819F709061908388E293E00E94AA
:103730006F1ADF91CF911F910F91FF900C94031B93
:10374000BF92CF92DF92EF92FF920F931F93CF938E
:10375000DF93CDB7DEB761970FB6F894DEBF0FBE2B
:10376000CDBF8C0185E0F801DE011D9601900D9220
:103770008A95E1F7D8014C9111962C9111971296E8
:10378000EC90129780912B0390912C03009709F4F1
:1037900082C13091280350912903632F65236F3F25
:1037A00009F479C11396CD90DC90B0902A03BB2028
:1037B00009F413C1C816D906D0F1F601E81BF90BBC
:1037C000CF01FF24F3948A3A910508F0F12C8091FF
:1037D0002D03982F907FFF2009F4B9C0911180C06C
:1037E000FE2C521329C0341327C0E11025C08F705E
:1037F000806180932D030E94221B88E293E00E9447
:103800006F1A80912D03D80115968C938F2D619698
:103810000FB6F894DEBF0FBECDBFDF91CF911F91E1
:103820000F91FF90EF90DF90CF90BF90089580951B
:1038300090958C0D9D1DC5CFCD2829F0822F842316
:103840008F3F09F044C180E0B82FB170DB2EE091CA
:10385000F6023091F70280FD20C0EE20B9F280918F
:103860002D03816080932D03F12CD0CFF0E0CF01A8
:1038700066E070E00E94A12DDC01A850BD4F1196BA
:103880008C911197821307C08C91841304C01296F7
:103890008C91E812E2CF3196E770E313E7CF4D87C2
:1038A0002E878D859E850E943320292F22952F708B
:1038B000223050F0243078F49F7051F0F801958157
:1038C000907F31F4D12C0AC09F7011F08823D1F37E
:1038D000805E8830B8F3C8010E946F1AFD2C96CF25
:1038E000521306C0341304C0D801EE2009F49BC063
:1038F0004D872E878D859E850E94E01A882319F1B9
:10390000EE2009F180912D03803270F02091280380
:103910003091290338872F831986DB86CA868C87E6
:10392000CE0107960E946F1A86E0F801A8E2B3E084
:1039300001900D928A95E1F70E94301B0E94221B94
:10394000FF24F39463CFC8010E946F1AF9CF91113D
:1039500014C07C2DD98AC88A522F6E2D89890E9465
:10396000E41A88E293E00E946F1A86E0E8E2F3E04E
:10397000DF011D928A95E9F763C0521312C0341318
:1039800010C0E1100EC0F8018583C8010E946F1AB3
:10399000E8E2F3E086E0DF011D928A95E9F7FB2C6F
:1039A00035CF4D872E878D859E850E94E01A88230E
:1039B00051F2EE2041F280912D03803208F4B4CF11
:1039C00020912803309129033A8329831B82DD82C9
:1039D000CC828E83CE010196A5CFC816D90698F168
:1039E000F601E81BF90BCF01F12C8A3A910508F09A
:1039F00049C0FE2CEE2009F4A6CF521332C0341376
:103A000030C080912D0380FD23C0982F907F01F15D
:103A1000D80115968C931597903F39F0982F907F89
:103A2000905F8F70892B15968C93C8010E946F1A36
:103A300086E0F801A8E2B3E001900D928A95E1F7E3
:103A40000E94221BE3CE809590958C0D9D1DCCCFBE
:103A500086E0F801A8E2B3E001900D928A95E1F7C3
:103A6000D5CE4D872E878D859E850E94E01A8111C7
:103A70005BCF80912D03816080932D03C8010E944C
:103A80006F1AC4CE7C2DD98AC88A522F6E2D89898F
:103A90000E94E41A6ACFEE2009F455CF4D872E8795
:103AA0008D859E850E94E01AF82E882309F44BCF5D
:103AB00086E0F801A8E2B3E001900D928A95E1F763
:103AC00088E293E00E942B170E94301BB9CF81E05F
:103AD0008E25BACECF93DF93CDB7DEB72C970FB636
:103AE000F894DEBF0FBECDBF4F83588769877A87B2
:103AF0008B879C87CE0107960E94A01B8823D1F05C
:103B00008A859B85892B39F04F815885842F8523A1
:103B10008F3F09F076C08091F6029091F7028913E9
:103B200049C02C960FB6F894DEBF0FBECDBFDF9113
:103B3000CF91089586E0FE013796DE01119601903F
:103B40000D928A95E1F78A859B85892B21F38885DB
:103B50009F8189238F3FF9F28091F70290E09C01C9
:103B60002F5F3F4F277033274091F602421713060D
:103B700071F40E94BD1A1092F7021092F60286E0CC
:103B8000E8E2F3E0DF011D928A95E9F7C4CF66E031
:103B900070E00E94A12DDC01A850BD4F96E0FE010F
:103BA000319601900D929A95E1F72093F7020E94C9
:103BB000031BB1CF90E066E070E00E94A12D885019
:103BC0009D4F0E94A01B882309F4ABCF8091F60281
:103BD00090E066E070E00E94A12DFC01E850FD4FEE
:103BE0004081518162817381848195810E94F31AA1
:103BF0008091F60290E00196877099278093F602F3
:103C00008ACF69857A858B859C850E94F31A83CF3C
:103C1000EF92FF920F931F93CF93DF938C01892B29
:103C200081F0F12CEE24E394E8012196F8018491CF
:103C3000843770F4843008F05FC08130B1F0823096
:103C4000A1F1DF91CF911F910F91FF90EF90089517
:103C5000853709F44CC008F43DC09CE7980F9037B5
:103C600080F78F770E94AC1749C00E5F1F4FFE018F
:103C7000849190E2980F983060F48770FE2D01C017
:103C8000FF0F8A95EAF78F2F0E94AF200E94D8205D
:103C900002C00E9430178F2D815030F2EFE9FFE013
:103CA0003197F1F700C00000F7CF0E5F1F4FFE0104
:103CB000849190E2980F983050F48770FE2D01C0E7
:103CC000FF0F8A95EAF78F2F0E94B520DFCF0E9461
:103CD000AC17E1CF0E5F1F4FFE01C491C150D8F267
:103CE0008FE99FE00197F1F700C00000F7CF0E5F6A
:103CF0001F4FFE01F490CFCF0E9430178E01CBCF23
:103D000008950C94801E0E94811E6093500370934E
:103D1000510380935203909353030C94A71A089570
:103D20000C94831E0F931F93009150031091510325
:103D30002091520330915303602B712B822B932BD4
:103D40001F910F910C94831E0F931F9300915003AA
:103D5000109151032091520330915303602371233A
:103D6000822393231F910F910C94831E0F931F9313
:103D7000009150031091510320915203309153034D
:103D800060277127822793271F910F910C94831E20
:103D90000C94801E0C94C81E0E94CA1E60934C0393
:103DA00070934D0380934E0390934F030C94A71A86
:103DB00060E070E0CB010C94CC1E0F931F9341E0A8
:103DC00050E060E070E08A019B0104C0000F111F09
:103DD000221F331F8A95D2F7C901B8011F910F9195
:103DE0000C94CC1E0F931F9341E050E060E070E014
:103DF00004C0440F551F661F771F8A95D2F7809124
:103E00004C0390914D03A0914E03B0914F038A0152
:103E10009B01082B192B2A2B3B2BC901B8011F91A1
:103E20000F910C94CC1E0F931F9341E050E060E083
:103E300070E004C0440F551F661F771F8A95D2F7A4
:103E4000CB01BA01609570958095909500914C03D7
:103E500010914D0320914E0330914F036023712345
:103E6000822393231F910F910C94CC1E0F931F93C9
:103E700041E050E060E070E004C0440F551F661F51
:103E8000771F8A95D2F780914C0390914D03A091B2
:103E90004E03B0914F038A019B01082719272A2757
:103EA0003B27C901B8011F910F910C94CC1E0F93B1
:103EB0001F9300914C0310914D0320914E033091BC
:103EC0004F03602B712B822B932B1F910F910C941E
:103ED000CC1E0F931F9300914C0310914D03209122
:103EE0004E0330914F0360237123822393231F914C
:103EF0000F910C94CC1E0F931F9300914C031091C3
:103F00004D0320914E0330914F0360277127822784
:103F100093271F910F910C94CC1E0895CF93DF939C
:103F2000282F362F892F6CE00E94982D820F982F12
:103F30009770E1E001C0EE0F9A95EAF786958695B5
:103F4000869590E065E070E00E94A12DDC01A25D05
:103F5000BC4F50E040E0632F70E08D91ED01219760
:103F60009B01042E02C0369527950A94E2F7217032
:103F7000219528272E23282728834F5F5F4F453020
:103F8000510559F7DF91CF910895282F892F6CE0C3
:103F90000E94982D820FA82FA770869586958695EA
:103FA00090E065E070E00E94A12DFC01E25DFC4F15
:103FB00050E040E080E0219130E00A2E02C03695CA
:103FC00027950A94E2F721703327042E01C0220FAF
:103FD0000A94EAF7822B4F5F5F4F4530510559F73E
:103FE0000895BF92CF92DF92EF92FF920F931F93AB
:103FF000CF93DF938C01C0904C03D0904D03E090A1
:104000004E03F0904F038091500390915103A09183
:104010005203B0915303C82AD92AEA2AFB2ACFE1D6
:10402000D0E0BC2ED701C6010C2E04C0B695A795D2
:10403000979587950A94D2F780FD0EC0219788F74F
:10404000B12C8B2DDF91CF911F910F91FF90EF90AD
:10405000DF90CF90BF900895B8018C2F0E948F06FB
:10406000019761F3EECFCF93DF93EC010E94F11F34
:10407000BE01DF91CF910C948F061F93CF93DF93F6
:10408000EB019091F502992331F0CB01DF91CF91B3
:104090001F910C943320882379F0CB010E94F11FEB
:1040A000182F682FCE010E948E1FBE01812FDF9135
:1040B000CF911F910C948F06CB010E94C51F182F22
:1040C000F4CF682F8091FE019091FF010C944D2256
:1040D000682F8091FE019091FF010C9458228091ED
:1040E000FE019091FF010C94632280915403859509
:1040F00085958595089580915403877008959091D2
:104100005403977081E009F480E00895809178036A
:10411000089590917803892B809378030895809572
:10412000909178039823909378030895809378036F
:1041300008951092780308958091770308959091DF
:104140007703892B80937703089580959091770367
:104150009823909377030895109277030895909190
:104160007603892B8093760308958095909176034A
:104170009823909376030895109276030895809182
:104180005503089508950C94C220909155039817F3
:1041900021F0809355030C94C3200895809155031A
:1041A000882329F01092550380E00C94C3200895D1
:1041B000E091FE01F091FF01809178038083E0910E
:1041C000FE01F091FF01808190917703892B80831C
:1041D000E091FE01F091FF01808190917603892B9F
:1041E000808390915503992381F0E091FE01F09135
:1041F000FF018081892B80838091FE019091FF01D6
:104200000E94E92181110E94CE208091FE019091AF
:10421000FF010C94E21508950C940B21982F990F2F
:10422000990F990F962B909354030E94F21E809140
:1042300054038595859585950C940C211092540313
:1042400080E00C940C2190915403809589238093F5
:104250005403282F277071F4282F082E000C330BDD
:104260009217130639F08595859585950E94131F41
:104270000C941E21089590E080E00E94FB2D21E027
:104280008C3E9E4F09F020E0822F089582E090E05E
:104290000C94ED2D682F82E090E00C94012E83E0C9
:1042A00090E00C94ED2D682F83E090E00C94012EAB
:1042B000CF9384E090E00E94ED2DC82F81E290E042
:1042C0000E94ED2D982F8C2FCF910895CF93C92F59
:1042D000682F84E090E00E94012E6C2F81E290E034
:1042E000CF910C94012EAB01BC018FE090E00C94B7
:1042F000132EAB01BC0183E190E00C94132E60E01F
:1043000070E0CB010C94792160E070E0CB010E9459
:1043100073210C947F216CEE7EEF90E080E00E9490
:104320001F2E60E082E090E00E94012E60E083E0BA
:1043300090E00E94012E10925003109251031092AF
:1043400052031092530360E084E090E00E94012E3B
:1043500060E081E290E00E94012E60E085E090E064
:104360000E94012E60E086E090E00E94012E6FEF37
:1043700087E090E00E94012E40E050E0BA0188E022
:1043800090E00E94132E60E08DE090E00E94012EEC
:1043900040E050E0BA0188E190E00E94132E60E016
:1043A00087E190E00E94012E40E050E0BA018CE1EC
:1043B00090E00E94132E60E080E290E00E94012EC7
:1043C0000C9484210C948B21682F8EE090E00C9447
:1043D000012EFC01329680911002882321F08091F9
:1043E000E0039EE187FF96E080E0915008F4089595
:1043F00021912223D1F38F5FF8CF9C01FC013296EB
:104400009FEF80E04191461751F09F3F19F4411111
:1044100001C0982F8F5F8630A9F79F3F09F4089558
:10442000290F311D97FD3A95F90162830895FC012A
:10443000329608962191261303C0DF0111971C9232
:10444000E817F907B9F70895E62FE695E695E6959A
:10445000EE3168F4E80FF92FF11D677021E030E0CC
:1044600001C0220F6A95EAF78281822B8283089528
:10447000E62FE695E695E695EE3170F4E80FF92F14
:10448000F11D677021E030E001C0220F6A95EAF764
:1044900020958281282322830895209110022223CF
:1044A00029F02091E00327FD0C9424220C94FD2197
:1044B00020911002222329F02091E00327FD0C9483
:1044C00038220C941722FC01329680911002882326
:1044D00051F08091E00387FF06C08EE1DF011D925D
:1044E0008A95E9F7089586E0F9CF089508950C9428
:1044F00076220E9477228091E603843049F110925F
:104500007A0388E190E020E40FB6F894A8958093B0
:1045100060000FBE2093600080E00E94FA050E94B8
:10452000772283B7817F846083BF83B7816083BF35
:104530007894889583B78E7F83BF0FB6F894A8953B
:1045400080916000886180936000109260000FBECF
:1045500008950895CF930E9475220E94F5080E9445
:10456000A922C0E08C2F0E948608892B31F4CF5FEE
:10457000C430C1F780E0CF91089581E0FCCF089569
:104580000C94BF220E94BD1A0E94D6150E94FA0503
:104590000C94C0221F921FB61F9211248F939F93D9
:1045A000AF93BF9380917A03811113C08091DC0394
:1045B0009091DD03A091DE03B091DF034196A11D30
:1045C000B11D8093DC039093DD03A093DE03B093D1
:1045D000DF03BF91AF919F918F911F901FBE1F90DE
:1045E000189582E084BD93E095BD9AEF97BD8093C6
:1045F0006E0008952FB7F8948091DC039091DD034D
:10460000A091DE03B091DF032FBF0895CF92DF9218
:10461000EF92FF920F931F932FB7F8944091DC0312
:104620005091DD036091DE037091DF032FBF6A01BB
:104630007B01EE24FF248C0130E020E0C016D1067F
:10464000E206F30650F0481B590BCA011F910F9167
:10465000FF90EF90DF90CF90089541505109F3CF34
:1046600078941F921FB61F9211248F939F93AF933C
:10467000BF938091DC039091DD03A091DE03B091A4
:10468000DF030196A11DB11D8093DC039093DD0330
:10469000A093DE03B093DF03BF91AF919F918F9101
:1046A0001F901FBE1F90189581E08093E00080E26C
:1046B0008093D8001092C9008FE19EE40197F1F732
:1046C00000C0000087E090EBDC018093EF03909343
:1046D000F003A093F103B093F20388E19CE00FB6DE
:1046E000F894A895809360000FBE90936000FFCF70
:1046F000AF92BF92CF92DF92EF92FF920F931F93F0
:10470000CF93C0E0CC24C394D12CE82EF12C8C2F75
:104710000E9486085C0110E000E0C601002E02C085
:10472000880F991F0A94E2F78A219B21892B99F41B
:104730000F5F1F4F0C30110581F7CF5FC43039F781
:1047400080E0CF911F910F91FF90EF90DF90CF907D
:10475000BF90AF900895602F7C2F80E00E946D067F
:10476000E816F90629F781E0ECCFCF93C82F8CE249
:104770000E947823882321F08C2FCF910C947823EA
:1047800080E0CF910895CF930E943B21811102C018
:104790000E94E221C5E608C00E94F5088FE39CE96B
:1047A0000197F1F700C00000C150B1F789E20E9403
:1047B000B523811100C18AE20E94B52381110E94B4
:1047C000E22185E00E94B52381110E9454230E94BA
:1047D00046218093790387E00E94B523882371F0F6
:1047E0008BE10E94B523882309F4C2C0909179031C
:1047F000892F8D7F91FF8260809379038091790367
:104800000E944A210E9458219093E1038093E00383
:1048100080EE0E94B523882341F09091E003892F18
:104820008E7F90FF81608093E00389E30E94B5232F
:10483000882341F09091E003892F8D7F91FF826062
:104840008093E00382EE0E94B523882341F090918B
:10485000E003892F8B7F92FF84608093E00386EED4
:104860000E94B523882341F09091E003892F877F30
:1048700093FF88608093E00383EE0E94B523882332
:1048800041F09091E003892F8F7E94FF80618093A7
:10489000E00385E30E94B523882341F09091E00373
:1048A000892F8F7D95FF80628093E00381E30E94D2
:1048B000B523882341F09091E003892F8F7B96FFE9
:1048C00080648093E00381E10E94B523882341F056
:1048D0009091E003892F97FB87F980588093E0033C
:1048E0008091E0039091E1030E94662187E20E949B
:1048F000B523C82F8EE10E94B5238111C2608FE1DC
:104900000E94B5238111C46080E20E94B523811109
:10491000C86081E20E94B5238111C06182E20E94D9
:10492000B5238111C06283E20E94B5238111C06466
:1049300084E20E94B5238823C1F1C0688C2F0E94B5
:1049400053216C2F70E090E080E00E94901E8FE079
:104950000E94B523882319F081E00E94E42185E1BB
:104960000E94B523882339F180E0CF910C94E42193
:104970008EE00E94B523882339F090917903892F26
:104980008B7F92FF846038CF80E10E94B5239091A5
:104990007903882329F0892F877F93FF88602CCFA4
:1049A000892F8E7F90FF816027CFC111C7CF0E94D2
:1049B0004F21682FC7CFCF91089580917E0380FF4C
:1049C00011C08091030290E065E070E00E94A12D8B
:1049D000959587959595879580389105B0F50097C1
:1049E000B1F1089581FF0AC08091030290E065E073
:1049F00070E00E94A12D95958795EECF82FF08C0AB
:104A00008091030290E065E070E00E94A12DE4CF68
:104A100080917D038823B1F020910202609103020E
:104A200070E0821710F0CB01EECF90E00E94A12D34
:104A300065E070E00E94A12D622F70E00E94C62DFB
:104A4000CB01CACF85E090E008958FE7089581E01B
:104A5000089580917E0380FF0CC06091010270E098
:104A600075956795759567956115710559F1862F4F
:104A7000089581FF06C06091010270E07595679509
:104A8000F3CF6091010270E082FD0CC060917D0364
:104A90006623A9F0209100028091010290E0621744
:104AA00030F0BC0160387105F8F28FE7089570E0CE
:104AB0000E94A12D622F70E00E94C62DF3CF61E00D
:104AC00070E0D5CF81E00895803F31F40E94DD246D
:104AD0008195809382030895813F19F40E94DD241B
:104AE000F8CF823F31F40E94DD24819580938103C9
:104AF0000895833F19F40E94DD24F8CF893F29F4FB
:104B00000E9429258093830308958A3F21F40E94FF
:104B100029258195F7CF8B3F31F40E942925819576
:104B20008093840308958C3F19F40E942925F8CFBF
:104B3000843F31F4809180038160809380030895E5
:104B4000853F21F4809180038260F7CF863F21F476
:104B5000809180038460F1CF873F21F480918003AE
:104B60008860EBCF883F21F4809180038061E5CF9E
:104B70008D3F31F480917E03816080937E030895A0
:104B80008E3F21F480917E038260F7CF8F3FB9F78B
:104B900080917E038460F1CF90918103803F41F446
:104BA0008091820387FD10928203992371F008950A
:104BB000813F29F4809182031816ACF3F6CF823F2F
:104BC00081F497FFF2CF109281038091820390913C
:104BD0008303892B90918403892B49F710927D03DD
:104BE0000895833F19F4191674F3DFCF893F39F420
:104BF000809183031816CCF610928303D6CF8A3F98
:104C000029F48091830387FFD0CFF6CF8B3F39F40F
:104C10008091840387FFC9CF10928403C6CF8C3F55
:104C200029F4809184031816BCF3BFCF843F31F47C
:104C3000809180038E7F80938003B7CF853F21F4DE
:104C4000809180038D7FF7CF863F21F48091800390
:104C50008B7FF1CF873F21F480918003877FEBCF5B
:104C6000883F21F4809180038F7EE5CF8D3F31F422
:104C700080917E038E7F80937E0397CF8E3F21F4B9
:104C800080917E038D7FF7CF8F3F09F08ECF80918B
:104C90007E038B7FF0CF8FE793E00E94FC150E948C
:104CA000FA2290937C0380937B0308951F93CF9304
:104CB000DF9380917B0390917C030E940623FC018B
:104CC00020917D038091040290E0211107C0809122
:104CD000050290E06AE070E00E94A12DE817F90754
:104CE00078F090918103C0918203D0918303109159
:104CF0008403911109C08C2F8D2B812B09F070C07A
:104D0000DF91CF911F9108952F3F19F02F5F2093CE
:104D10007D03191624F40E94DD2480938103809181
:104D2000810387FF05C00E94DD2481958093810364
:104D30001C1624F40E94DD24809382038091820358
:104D400087FF05C00E94DD248195809382038091B6
:104D500081038823D1F0209182032223B1F0082E11
:104D6000000C990B65EB70E00E94A12D992381F155
:104D700090938103822F220F990B65EB70E00E94C4
:104D8000A12D992349F1909382031D1624F40E94CA
:104D90002925809383038091830387FF05C00E94A8
:104DA0002925819580938303111624F40E942925D7
:104DB000809384038091840387FF05C00E94292586
:104DC000819580938403DF91CF911F910C944B26A2
:104DD00081E080938103CECF81E080938203D5CFA1
:104DE0002F3F09F093CFA4CF86E0EFE7F3E0DF0198
:104DF0001D928A95E9F710927D0310927E03089523
:104E00008091A5030895CF93DF9300D00F92CDB783
:104E1000DEB79091E603943019F589837B836A832A
:104E200082E08093E9008FEF9091E800815095FD3A
:104E300006C095ED9A95F1F700008111F5CF8091AC
:104E4000E80085FF0DC050E040E063E070E0CE0177
:104E500001960E9446298091E8008E778093E800B1
:104E60000F900F900F90DF91CF910895CF93DF9324
:104E7000EC010E942929823011F0843031F4BE0106
:104E800084E0DF91CF910C940327DF91CF910895B7
:104E9000BC016058710983E00C940327CF93DF9322
:104EA000EC010E942929823011F08430F9F482E06B
:104EB0008093E9008FEF9091E800815095FD06C046
:104EC00095ED9A95F1F700008111F5CF8091E800FA
:104ED00085FF0CC050E040E066E070E0CE010E942B
:104EE00046298091E8008E778093E800DF91CF918A
:104EF0000895CF93DF93EC010E942929823011F0AD
:104F00008430B9F5809110028823B1F18091E003DB
:104F100087FF32C060E282E08093E9008FEF9091DA
:104F2000E800815095FD06C095ED9A95F1F70000D7
:104F30008111F5CF8091E80085FF1BC080911002A0
:104F400070E050E040E0811104C050E040E068E0D3
:104F500070E0CE010E9446298091E8008E77809310
:104F6000E80080E2FE01A5E8B3E001900D928A9589
:104F7000E1F7DF91CF91089568E081E0CDCF08950A
:104F800008950C94C22242E061EC81E00E944E2A16
:104F900042E261EC82E00C944E2A8091E803833077
:104FA00009F45DC030F48130B1F1823009F499C068
:104FB00008958A3009F485C08B3009F46BC08930BC
:104FC00009F04CC08091E703813209F047C080911D
:104FD000EB039091EC03029708F040C08091E80049
:104FE000877F8093E8008091E80082FF33C0809142
:104FF000F200823029F48091F1008B7F813021F41E
:105000008091F1008093A5038091E8008B778093D5
:10501000E8000C94822A8091E703813AF9F48091A8
:10502000E800877F8093E8008091EB039091EC0388
:10503000892B61F460E285E893E070E00E94952995
:105040008091E8008B778093E800089560E090E01D
:1050500080E0F3CF8091E6038111C5CF0895809160
:10506000E703813AD9F78091EB039091EC03892B08
:10507000A9F78091E800877F8093E8008091E8009D
:1050800080FFFCCF809110028093F1008091E800B6
:105090008E77BDCF8091E703813201F78091EB03DA
:1050A0009091EC03892BD1F68091E800877F809363
:1050B000E8000E94822A8091E903809310020C94F8
:1050C000BD1A8091E703813249F68091E800877F1D
:1050D0008093E8000E94822A8091EA038093A603CD
:1050E00008958091E703813A09F0B8CF8091E800F4
:1050F000877F8093E8008091E80080FFFCCF80915B
:10510000A603C2CF84B7877F84BF0FB6F894A89553
:1051100080916000886180936000109260000FBEF3
:1051200080E890E00FB6F89480936100909361005E
:105130000FBE0E943D160E94D22A0E94252B80910C
:10514000E20084608093E20078940E947D2D0E94AA
:10515000431686E092E00E94D1158091E6038530E7
:1051600019F00E944D16F9CF0E9479228091E40334
:10517000882399F30E94AA22882379F30E94302978
:10518000ECCF0C94C328292F33272330310519F194
:1051900068F42130310509F44AC02230310509F4A0
:1051A0004BC090E080E030E020E028C021323105A3
:1051B00079F122323105A9F780E490E020E937E067
:1051C00061157105D9F080EC90E020ED36E061309A
:1051D0007105A1F0E6CF99278130910599F00097EC
:1051E00041F08230910589F00397D9F6E7E5F6E0C2
:1051F00002C0EFE7F6E0849190E09F01FA0131836D
:1052000020830895EDE6F6E0F6CFEDE5F6E0F3CF86
:1052100089E090E025E936E06115710579F389E0D0
:1052200090E02EEA36E06130710541F3BACF82E1B9
:1052300090E02EEB36E0E2CF8BE390E023E836E01F
:10524000DDCF8091E603843011F482E0089581E09F
:1052500008958091A703811102C00C94212908951B
:1052600084E089BD86E089BD09B400FEFDCF809150
:10527000D8008F7D8093D8008091E0008260809379
:10528000E0008091E00081FDFCCF0895AF92BF92D5
:10529000CF92DF92FF920F931F93CF93DF936C0116
:1052A000EB018A010E94A12AF82E811123C0011569
:1052B000110539F0F80180819181C81BD90BC80E06
:1052C000D91EB12CA12C2097A9F08091E80085FD72
:1052D00022C08091E8008E778093E80001151105C7
:1052E000A1F0F80180819181A80EB91EB182A0823F
:1052F00085E0F82E8F2DDF91CF911F910F91FF90B8
:10530000DF90CF90BF90AF9008950E94A12A88238C
:10531000D1F2F82EEFCFF60181916F018093F10069
:105320002197FFEFAF1ABF0ACECFFC018091ED03AA
:105330009091EE0386179707A0F06115710529F487
:105340009091E8009E779093E80090E061157105D8
:1053500051F4911108C08091E80082FF32C080E0D2
:105360000895BC01F2CF8091E6038823B1F1853026
:10537000B1F18091E80083FD2EC08091E80082FDAC
:10538000EACF8091E80080FFE1CF2091F20030E089
:105390006115710519F02830310558F091E0283079
:1053A000310509F090E02091E8002E772093E80085
:1053B000CDCF81918093F100615071092F5F3F4FF4
:1053C000E7CF8091E603882341F0853041F080915A
:1053D000E80083FFC0CF81E0089582E0089583E074
:1053E0000895FC018091ED039091EE0386179707D5
:1053F000A0F06115710529F48091E8008E77809303
:10540000E80090E06115710551F4911108C0809198
:10541000E80082FF33C080E00895BC01F2CF8091A4
:10542000E6038823B9F18530B9F18091E80083FD66
:105430002FC08091E80082FDEACF8091E80080FFD4
:10544000E1CF2091F20030E06115710519F02830AC
:10545000310558F091E02830310509F090E0809155
:10546000E8008E778093E800CDCF84918093F1009F
:105470003196615071092F5F3F4FE6CF8091E6036F
:10548000882341F0853041F08091E80083FFBFCF51
:1054900081E0089582E0089583E00895982F953083
:1054A00028F08F708093E90081E008959093E900DF
:1054B000242F762F50E0981731F07091EC00209156
:1054C000ED005091F00021FD02C09F5FE8CF3091C8
:1054D000EB003E7F3093EB003091ED003D7F309349
:1054E000ED003091EB0031603093EB007093EC00F5
:1054F0002093ED005093F0002091EE0027FDE5CFC2
:1055000080E008958091E70387FF13C08091E80051
:1055100082FF06C08091E8008B778093E80004C08A
:105520008091E6038111F2CF08958091E6038823EC
:10553000D9F38091E80080FFF8CF8091E8008E7762
:10554000ECCF2091E4003091E50095E6A90120918F
:10555000EC00822F817020FF06C08091E80080FF60
:1055600006C080E008952091E80022FD1AC08091D5
:10557000E603882389F0853089F08091EB0085FD72
:105580000FC02091E4003091E50042175307F9F273
:105590009150E1F684E0089582E0089583E0089553
:1055A00081E008950E942F2B0E94322BE0EEF0E064
:1055B000808181608083E8EDF0E080818F77808357
:1055C00019BCE3E6F0E08081816080831092E503FE
:1055D00008950E942F2B0E94322B8091D8008F7744
:1055E0008093D8008091D80080688093D800809103
:1055F000D8008F7D8093D80084E089BD86E089BD86
:1056000009B400FEFDCF1092E6031092E20310925F
:10561000E4031092E30342E060E080E00E944E2A3F
:105620008091E1008E7F8093E1008091E2008160B3
:105630008093E2008091E20088608093E200809194
:10564000E0008E7F8093E0000895E3E6F0E0808143
:105650008E7F808381E08093E5030C94E92A109289
:10566000E20008951092E10008951F920F920FB684
:105670000F9211242F933F934F935F936F937F93D8
:105680008F939F93AF93BF93EF93FF938091E1002C
:1056900082FF0BC08091E20082FF07C08091E10091
:1056A0008B7F8093E1000E947C2D8091E10080FF40
:1056B00019C08091E20080FF15C08091E2008E7FCA
:1056C0008093E2008091E20080618093E20080910B
:1056D000D80080628093D80019BC85E08093E603EF
:1056E0000E94C0278091E10084FF2BC08091E200DE
:1056F00084FF27C084E089BD86E089BD89B5982FE5
:10570000917080FFFBCF8091D8008F7D8093D8006F
:105710008091E1008F7E8093E1008091E2008F7E96
:105720008093E2008091E20081608093E2008091AA
:10573000E203882309F443C084E08093E6030E94D7
:10574000C1278091E10083FF29C08091E20083FF9F
:1057500025C08091E100877F8093E10082E0809303
:10576000E6031092E2038091E1008E7F8093E100D6
:105770008091E2008E7F8093E2008091E200806160
:105780008093E20042E060E080E00E944E2A809137
:10579000F00088608093F0000E94BF27FF91EF9196
:1057A000BF91AF919F918F917F916F915F914F9139
:1057B0003F912F910F900FBE0F901F9018958091E1
:1057C000E30087FD93E09093E603B9CF1F920F9219
:1057D0000FB60F9211242F933F934F935F936F93C4
:1057E0007F938F939F93AF93BF93CF93DF93EF9369
:1057F000FF93D091E900DF708091EC00C82FC17059
:1058000080FDC0E81092E9008091F000877F8093CE
:10581000F00078940E942A2C1092E9008091F00008
:1058200088608093F000CD2BCF70C093E900FF918A
:10583000EF91DF91CF91BF91AF919F918F917F9128
:105840006F915F914F913F912F910F900FBE0F90ED
:105850001F9018951F93CF93DF93CDB7DEB7AA970C
:105860000FB6F894DEBF0FBECDBF87EE93E0209158
:10587000F100FC012193CF01F3E08F3E9F07B9F7C0
:105880000E94CD278091E80083FF1EC18091E7032D
:105890009091E8039A3008F017C1E92FF0E0E7593A
:1058A000F14D0C94DA2D803899F0823809F00CC152
:1058B0008091EB038F70853008F006C18093E9007A
:1058C0008091EB0085FB882780F91092E90006C0E3
:1058D0008091E3039091E403911182609091E8003C
:1058E000977F9093E8008093F1001092F1008091EF
:1058F000E8008E77E5C0882309F4D3C0823009F030
:10590000E3C08091E9038111D6C08091EB038F70D1
:105910002FEF280F243008F0D7C08093E9002091A2
:10592000EB0020FFC8C0933031F48091EB0080621F
:105930008093EB00C0C09091EB0090619093EB00DE
:1059400021E030E001C0220F8A95EAF72093EA00B7
:105950001092EA008091EB008860EACF8111B4C018
:105960001091E9031F778091E3008078812B809369
:10597000E3008091E800877F8093E8000E94822AFC
:105980008091E80080FFFCCF8091E30080688093E5
:10599000E30082E0111183E08093E60395C0805814
:1059A000823008F091C08091E9039091EA038C3D28
:1059B00023E09207A1F583E08A838AE289834FB7C7
:1059C000F894DE01139620E03EE051E2E32FF0E090
:1059D00050935700E49120FF03C0E295EF703F5FC2
:1059E000EF708E2F90E0EA30C0F0C7968D939D93B4
:1059F0002F5F243159F74FBF8091E800877F809354
:105A0000E8006AE270E0CE0101960E94952980913B
:105A1000E8008B778093E80057C0C096E7CF60918D
:105A2000EB037091EC03AE014F5F5F4F0E94C12802
:105A3000BC01892B09F448C09091E800977F9093AE
:105A4000E80089819A810E94F129E1CF8038E1F54F
:105A50008091E800877F8093E8008091E203809343
:105A6000F10045CF811130C09091E903923060F58B
:105A70008091E800877F8093E8009093E2030E9482
:105A8000822A8091E203882311F084E005C080918E
:105A9000E30087FDFACF81E08093E6030E94C327ED
:105AA00013C08091E903813079F481E0933009F0EB
:105AB00080E08093E4031092E9008091E800877F02
:105AC0008093E8000E94822A8091E80083FF0AC048
:105AD0008091E800877F8093E8008091EB008062EE
