:100000000C9419060C9460060C9460060C9444162B
:100010000C9460060C9460060C9460060C946006C8
:100020000C9460060C9460060C94F8280C94CC296F
:100030000C9454240C9460060C9460060C94600696
:100040000C9460060C9460060C9460060C94600698
:100050000C9460060C94BA240C9460060C94600610
:100060000C9460060C9460060C9460060C94600678
:100070000C9460060C9460060C9460060C94600668
:100080000C9460060C9460060C9460060C94600658
:100090000C9460060C9460060C9460060C94600648
:1000A0000C9460060C9460060C94600620202020BE
:1000B0000020572000204120002043200020532012
:1000C000004D6F64733A002020202020002043411F
:1000D00050532000204E554D20004C6F636B3A006A
:1000E0005F434841540A005F47414D455F46554EC6
:1000F0004354494F4E0A005F46554E4354494F4EB4
:100100000A005F5448554D420A005F454449540A6D
:1001100000426F726465726C616E64730A005F47BF
:10012000414D450A005F5157455254590A00296113
:1001300014001A000800150017002B4404001600D4
:10014000070009000A00E1001D001B00060019005D
:100150000500000000000000556438434C002A00F0
:10016000130012000C0018001C00045733000F008D
:100170000E000D000B00D95C03573700360010004D
:10018000110000000000000006572F432C0029003A
:10019000170014001A000800150005510A00040099
:1001A000160007000900E10005001D001B00060005
:1001B00019000000000000002F0030004C002A0051
:1001C000075312000C0018000D00045733000B5D9C
:1001D0000A5D095D0B00D95C03573700360010003B
:1001E00011000000000000000C5D48432C000100DD
:1001F0002F003000260227023800010004011601FA
:1002000001000E5D4C0001001D011B0101002A00D0
:100210002800000000000000060119012C00105009
:1002200001000100010001001C01010001004F005C
:10023000520051005000010001004D004B004E00E3
:100240004A000000000000001050010001003500CD
:100250001E001F00200021002200010000000000FD
:10026000000000000000010000000000060119016C
:10027000000000000000000057002D002C000100CD
:1002800027002600250024002300010001004F0064
:10029000520051005000010001004D004B004E0083
:1002A0004A00000000000000270226022D02290358
:1002B000005701573C003D003E00025759005A00CC
:1002C0005B005C005D000100000000000000000019
:1002D00000000000000000001F022E002D0246005A
:1002E00043004200410040003F0001006200610005
:1002F00060005F005E00E5000100000000000000FB
:100300000000000000000000010001002D024C0070
:100310003A002400250026003D0001003B0021009A
:10032000220023003E002B003C001E001F00200086
:100330003F000000000000005400270055000100AD
:1003400001000100010001000100010001000100A5
:100350000100010044000100010001000100010052
:100360004500000000000000010001002C00085DB5
:100370000100010001000100010001000100010075
:100380000100010001000100010001000100010065
:100390000100000000000000010001000100010058
:1003A0000100010001000100010001000100010045
:1003B00001000100010005570100010001000100DA
:1003C00001000000000000000D5D010001000100BF
:1003D000010001000F5D01000100010001000100AA
:1003E0000100010001000100105D01000100010099
:1003F000010000000000000001000100115D01008B
:10040000075301000100010001000100010001008B
:1004100001000100010001000100010001000100D4
:1004200001000000000000000D5D0100010010004F
:100430003600000036003700000000000000000019
:1004400000002A2B2800000000000000000000002F
:10045000000000000029000000002C1E3420212292
:1004600024342627252E362D3738271E1F202122FB
:10047000232425263333362E37381F040506070874
:10048000090A0B0C0D0E0F10111213141516171864
:10049000191A1B1C1D2F3130232D350405060708A2
:1004A000090A0B0C0D0E0F10111213141516171844
:1004B000191A1B1C1D2F3130354C000000000000A4
:1004C000000000000000000000000000000000002C
:1004D000000000000000000000000000000000001C
:1004E000000000000000000000000000000000000C
:1004F00000000000000000000000000000000000FC
:1005000000000000000000000000000000000000EB
:1005100000000000000000000000000000000000DB
:1005200000000000000000000000000000000000CB
:1005300000000000000000000000000000000000BB
:1005400000000000000000000000000000000000AB
:100550000000000000000000000000010101010196
:100560000100010101010000000000000000000086
:100570000000000001000100010101010101010171
:10058000010101010101010101010101010101015B
:100590000101010101000000010100000000000054
:1005A000000000000000000000000000000000004B
:1005B0000000000000010101010000AE00AF00DA00
:1005C00002818FD9F1DB40A4A62EAF00A0C000A10C
:1005D000C800AED580A81FD300408D1420000000B5
:1005E000000000003E5B4F5B3E003E6B4F6B3E00E9
:1005F0001C3E7C3E1C00183C7E3C18001C577D575E
:100600001C001C5E7F5E1C0000183C180000FFE709
:10061000C3E7FF00001824180000FFE7DBE7FF0036
:1006200030483A060E00262979292600407F050524
:100630000700407F05253F005A3CE73C5A007F3EBB
:100640001C1C0800081C1C3E7F0014227F22140082
:100650005F5F005F5F0006097F017F00006689958C
:100660006A0060606060600094A2FFA294000804C9
:100670007E04080010207E20100008082A1C0800B4
:10068000081C2A0808001E10101010000C1E0C1E5A
:100690000C0030383E383000060E3E0E06000000DA
:1006A0000000000000005F000000000700070000DD
:1006B000147F147F1400242A7F2A12002313086455
:1006C0006200364956205000000807030000001C55
:1006D000224100000041221C00002A1C7F1C2A002D
:1006E00008083E080800008070300000080808086C
:1006F00008000000606000002010080402003E5165
:1007000049453E0000427F40000072494949460089
:100710002141494D33001814127F100027454545EB
:1007200039003C4A49493100412111090700364945
:1007300049493600464949291E00000014000000BE
:100740000040340000000008142241001414141466
:1007500014000041221408000201590906003E411C
:100760005D594E007C1211127C007F4949493600C8
:100770003E41414122007F4141413E007F4949497C
:1007800041007F09090901003E41415173007F0882
:1007900008087F0000417F4100002040413F0100E8
:1007A0007F08142241007F40404040007F021C022D
:1007B0007F007F0408107F003E4141413E007F09D9
:1007C000090906003E4151215E007F0919294600B2
:1007D00026494949320003017F0103003F40404060
:1007E0003F001F2040201F003F4038403F0063145F
:1007F000081463000304780403006159494D430061
:10080000007F4141410002040810200000414141A5
:100810007F00040201020400404040404000000309
:10082000070800002054547840007F2844443800D2
:10083000384444442800384444287F0038545454F1
:10084000180000087E09020018A4A49C78007F0804
:100850000404780000447D4000002040403D00003A
:100860007F102844000000417F4000007C04780491
:1008700078007C0804047800384444443800FC18AC
:100880002424180018242418FC007C080404080000
:1008900048545454240004043F4424003C40402065
:1008A0007C001C2040201C003C4030403C00442880
:1008B000102844004C9090907C004464544C4400B8
:1008C00000083641000000007700000000413608B3
:1008D00000000201020402003C2623263C00000026
:1008E00000000000404040F0F8F8FF38FFF8F83F03
:1008F000F8F8FF38FFF8F8F0404040000000000032
:100900000080C0C0C0800000C0C08000000080C067
:10091000C000C0C0000080C0C00000000000C0C017
:10092000C0C0C000C0C00000000000000000000007
:1009300000000000000000000000000000000000B7
:1009400000000000000000000000000000000000A7
:1009500000000000000000000000000000C0F0F8EF
:10096000FC3E1E06010000007F4141417F007F41A7
:1009700041417F000080C0E07E5B4F5BFEC0000015
:10098000C000DCD7DEDEDED7DC00C00000000000E7
:100990000000000000000000000000000000000057
:1009A00000000000494949FFFFFFFFE0DFBFBF0033
:1009B000BFBFDFE0FFFFFFFF494949000000000023
:1009C0001F3F6060E0BF1F007F7F071E381E077F4C
:1009D0007F007F7F0E1F3B716000000000007F7F63
:1009E0000C0C0C007E7E007F7E0303007F7E0303E1
:1009F0007E7E03037F7E000F3E703C063C703E0F00
:100A000000327B49493F7E007F7E0303001E3F6921
:100A1000696F2600000000000000000000030F1FA7
:100A20003F3C7870600000007F4141417F007F4182
:100A300041417F00307B7F7830202030787F3B0041
:100A400003000F7F0F0F0F7F0F0003000000000057
:100A50000000000000000000000000000000000096
:100A600000000000010101070F0F7F0F7F0F0F7EB5
:100A70000F0F7F0F7F0F0F07010101000000000023
:100A80000000000000010100000000000000000064
:100A90000000000000000000000000000000000056
:100AA0000000000000000000000000000000000046
:100AB0000000000000000000000000000000000036
:100AC0000000000000000000000000000000000026
:100AD0000000000000000000000000000000000016
:100AE0000000000000000000000000000000000006
:100AF00000000000000000000000000000000000F6
:100B000000000000000000000000000000000000E5
:100B100000000000000000000000000000000403CE
:100B2000300000002E0343006F0072006E0065006D
:100B300020004B006500790062006F0061007200C8
:100B4000640020002800630072006B0062006400F3
:100B500029000000100366006F006F00730074002E
:100B600061006E0000000403090409023B00020159
:100B700000A0FA090400000103010100092111018C
:100B800000012240000705810308000A0904010052
:100B90000103000000092111010001223B000705AB
:100BA000820320000A1201100100000008EDFE601F
:100BB0003001000102030105010906A101850505B7
:100BC0000719E029E715002501950875018102053F
:100BD00007190029EF1500250195F075018102051F
:100BE0000819012905950575019102950175039173
:100BF00001C005010906A101050719E029E7150053
:100C00002501950875018102950175088101050787
:100C1000190029FF150026FF0095067508810005BB
:100C20000819012905950575019102950175039132
:100C300001C011241FBECFEFDAE0DEBFCDBF04B686
:100C400003FE27C08091BC059091BD05A091BE0513
:100C5000B091BF058730904BA740B04BD1F41092B4
:100C6000BC051092BD051092BE051092BF0514BEC2
:100C700084B7877F84BF0FB6F894A89580916000F1
:100C8000886180936000109260000FBEE0E0F8E39E
:100C9000099512E0A0E0B1E0E0E7F8E502C00590B8
:100CA0000D92A038B107D9F725E0A0E8B2E001C065
:100CB0001D92AC3BB207E1F70E9429260C94FC2B55
:100CC0000C940000CF93DF93A8EEB1E04CEE51E01E
:100CD000C1E0D0E08D91E82FE295EF70F0E061A1E6
:100CE0008F709E0101C0220F8A95EAF7922F90958E
:100CF000962391A382A1822B82A34A175B0751F707
:100D0000DF91CF910895089508950C948406559A23
:100D1000209A5D9A289A08955D9808955D9A08959D
:100D200028980895289A08950E9436080E9462061D
:100D3000A2EEB1E061E070E08D91E82FE295EF70F6
:100D4000F0E041A18F709B0101C0220F8A95EAF764
:100D5000922F9095942391A382A1822B82A381E06C
:100D6000A83EB80749F70E948706E8E8F2E0A0E845
:100D7000B2E011921D9282E0E039F807D1F70E94AB
:100D80001808809390020C94670B9F92AF92BF92C9
:100D9000CF92DF92EF92FF920F931F93CF93DF9347
:100DA00080910101C4E0D0E0882311F0D0E0C0E0E0
:100DB00088EEC82E81E0D82EAE0140585D4F7A01F2
:100DC0008A01AA24A394B12C25E0922EF6018191E8
:100DD0006F01E82FE295EF70F0E021A18F70A5017F
:100DE00002C0440F551F8A95E2F7CA01922F982B33
:100DF00091A392A18095892382A350EA5A95F1F795
:100E0000E2EEF1E020E050E040E03191A32FA29526
:100E1000AF70B0E090968C9190E03F7002C09595D5
:100E200087953A95E2F780FD39C0C501042E01C0CF
:100E3000880F0A94EAF7282B4F5F5F4F4630510521
:100E400021F7F8018081821719F020839092000128
:100E50000E9462060F5F1F4FFCEECF16F1E0DF0627
:100E600009F0B4CF80910001882359F0815080931C
:100E700000018823A9F08FE99FE00197F1F700C0F6
:100E8000000081E0DF91CF911F910F91FF90EF90D3
:100E9000DF90CF90BF90AF909F90089580E0CBCF30
:100EA000C857DD4FF70191917F0199938F5F84308F
:100EB000C9F7E7CF0F931F93CF93DF9320910101E1
:100EC00010E000E0222311F004E010E00E9451083D
:100ED000EC01009739F0029711F40E949006C1E0EE
:100EE000D0E011C00E949206F801E857FD4F8091B2
:100EF0009C0290919D02A0919E02B0919F028083DE
:100F00009183A283B383CE01DF91CF911F910F9183
:100F100008950E94C50680910101E4E0F0E0882375
:100F200011F0F0E0E0E0E857FD4F90E080E020E0D5
:100F3000DC01A456BD4F4C913191431321E03C9309
:100F4000019684309105A1F780919502820F8093DC
:100F500095020895CF93DF9380919002882309F43E
:100F600045C00E94C50680910101C4E0D0E08823FD
:100F700011F0D0E0C0E0C857DD4F44E050E0BE01C2
:100F800088E992E00E94AD2B488159816A817B817A
:100F9000409398025093990260939A0270939B0237
:100FA0000E945A07892BE9F00E948C0680919102D9
:100FB0008F5F80939102863070F080910101F0E0A4
:100FC000E0E0882311F0E4E0F0E0E857FD4F108204
:100FD0001182128213820E946F0B81E0DF91CF9108
:100FE00008950E948E0610929102F5CF0E94890703
:100FF00080910101811112C090E080E088579D4FDF
:10100000409198025091990260919A0270919B02CE
:10101000FC014083518362837383DDCF84E090E0E1
:10102000EDCFE82FF0E0E857FD4F80810895089557
:1010300080919202811111C08091D80080618093CB
:10104000D8008AE18A95F1F700C09091D900892FE4
:10105000817090FF82E08093920281E090919202F1
:10106000913009F080E008950C9418080E9434082B
:10107000809301010E941808882321F00E944508EE
:10108000789408950E944B08FBCF63E070E082E003
:1010900091E00C94F11563E070E082E091E00C9433
:1010A000FA150F931F93CF93DF938C0190911B013F
:1010B00080911A01D0E0C0E0981759F082E090E0EA
:1010C0000E94D316EC01892B21F480911A018093A0
:1010D0001B018091930290919402082B192B90E0B0
:1010E00080E0012B11F081E090E00E94D316892B63
:1010F00071F48091950280931A01109294021092DB
:101100009302CE01DF91CF911F910F91089581E05D
:1011100090E09093940280939302F3CF0C9445094E
:101120000C9483068091A002811102C00C9434209B
:1011300008958091A002811104C088E290E00C948F
:10114000B00A08958091A002823018F0823029F010
:10115000089580E390E00C94B00A82E00C9449205A
:101160008091A002813049F0882319F0823041F04B
:10117000089584E390E00C94B00A84E00C946A2013
:1011800083EE90E0F8CFFC018081813031F48185DD
:10119000811108C0828590E00895823031F083E0AB
:1011A00090E0089590E080E0089582E090E0089556
:1011B0000E94C3088093A002813039F0882319F07F
:1011C000823031F008950C942F2081E00C9434206B
:1011D00080E00E94342082EE90E00E949B0A80EE24
:1011E00090E00E949B0A8DE290E00E949B0A0E9480
:1011F0002F2080E00E94342082EE90E00E94B00A0E
:1012000080EE90E00E94B00A8DE290E00C94B00A6B
:101210000E94C3088093A002813049F0882319F00E
:10122000823041F0089584E390E00C949B0A84E0BE
:101230000C9449200E942F2080E00E94342083EEED
:1012400090E0F3CF0E94C3088093A002882319F096
:10125000813041F0089581E00E94342088E290E0DE
:101260000C949B0A88E290E00E949B0A88E290E03E
:101270000C94B00A0E94C3088093A002823020F42C
:1012800080E390E00C949B0A0895CF9388509D458D
:10129000C1E08A30910508F05AC0FC01E250F44DDB
:1012A000DB011296CC910C949E2BCC2309F44FC0F9
:1012B00081E00E94342080EF91E00E94640BC0E046
:1012C00046C0CC2309F443C080E00E94342086E06D
:1012D0000E94492083EF91E0F0CFCC23C1F180E060
:1012E0000E94342086E00E94492086EF91E0E5CFFD
:1012F000CC2369F180E00E94342086E00E944920DE
:10130000DECFCC2321F180E00E94342086E00E94D1
:10131000492089EF91E0D1CFCC23C9F080E00E9431
:10132000342081E0F4CFCC2391F08CEF91E00E9447
:10133000640B80E00E943420C2CF8AE1CC2329F0E4
:101340000E947B1982E092E0B8CF0E94AC198C2FEA
:10135000CF91089587E0CC2331F00E946A2085E088
:101360000E947B19ACCF0E94492085E00E94AC19F5
:1013700082E092E00E94640BEACF8CE2CC23B1F3CE
:10138000EFCF60E085E092E00E943C126091530351
:101390007091540380915503909156030E948322CB
:1013A000883000F5E82FF0E0E85FF34D60E00C9442
:1013B0009E2B85E291E00C9458128EE191E0FBCFD8
:1013C00081E191E0F8CF8AE091E0F5CF82E091E011
:1013D000F2CF87EF90E0EFCF87EE90E0ECCF80EE9A
:1013E00090E0E9CF0895CF93C82F60E08AED90E0B8
:1013F0000E9458126C2F617084ED90E00E94581288
:10140000C1FB662760F98DEC90E00E94581260E005
:1014100087EC90E0CF910C945812CF93C82F60E0E6
:1014200081EC90E00E9458128C2F827261E009F4E6
:1014300060E08DEB90E00E94581261E08C2F81718A
:1014400009F460E089EB90E00E94581261E08C2F73
:10145000847409F460E085EB90E00E945812C8782B
:1014600061E009F460E081EB90E00E94581260E0D6
:101470008CEA90E0CF910C945812CF930E94C1094E
:101480000E943F180E94F3090E94D121C82F0E9498
:1014900007228C2BCF910C940D0A60E08CE092E037
:1014A0000C943C128091A5039091A6030E94902475
:1014B00081369A4E10F00C94701380919002811135
:1014C0000C943D0A0C944D0ACF93DF939C013A95FE
:1014D00021153F4168F5EC01CC27D170DC01AA272A
:1014E000B270AC01442754709C012227387094FFDD
:1014F00011C080E1CD2B09F480E0AB2B09F08062B4
:10150000452B09F08064232B09F08068FB01DF91F3
:10151000CF91099481E0CD2B09F480E0AB2B09F049
:101520008260452B09F08460232B81F38860EECF25
:10153000DF91CF910895CF93DF93EC01805E910905
:10154000089720F06DE07CE1209711F467EE79E1D7
:10155000CE010E94640A8C2FDF91CF910C947B19ED
:10156000CF93DF93EC010E94AC19CE01805E91090C
:10157000089720F064E17CE1209711F46EEE79E1A8
:10158000CE01DF91CF910C94640A81E008951F93FE
:10159000CF93DF9300D000D00F92CDB7DEB7498351
:1015A0005A836B832091FC0289819A8121111BC08F
:1015B0006623A9F00E943C21182F682F89819A8107
:1015C0000E94E52069817A81812F0F900F900F9002
:1015D0000F900F90DF91CF911F910C94E90B0E9417
:1015E0001321182FEFCF0E943C2169817A81EDCF22
:1015F000FC01408151816281738184810C94C70A0E
:101600001F93CF93DF9390E0FC01E65CFB4F1491B6
:10161000FC01E65CFA4FD49186549B4FFC01C491C7
:10162000DD2319F081EE0E947B19CC2319F086EEA0
:101630000E947B19812F0E94D419CC2319F086EEC9
:101640000E94AC19DD2331F081EEDF91CF911F9123
:101650000C94AC19DF91CF911F910895FF920F93D5
:101660001F93CF93DF93EC01F62E8881882331F10D
:101670008E010F5F1F4F813041F4C9818C2F0E9472
:101680007B198C2F0E94AC1905C0823079F48981B6
:101690000E947B19E80121968F2D815030F3EFE9EC
:1016A000FFE03197F1F700C00000F7CF833011F46D
:1016B0008981E8CF0E94000B8E01ECCFDF91CF91A2
:1016C0001F910F91FF90089560E00C942E0B0E94E3
:1016D000D022811102C00E946D230C9490080E94B8
:1016E0008C100E940B0E0C94850608950C94750BBB
:1016F00081E008950C94780BCF93C82F0E94760B4D
:101700008C2FCF910C947A0B08950E94251C0E9477
:10171000840B2FEF84E39CE0215080409040E1F760
:1017200000C0000087E797E79093010880930008C6
:101730000C94DE240F931F93CF93DF93EC010E9450
:10174000F80A8C01BE010E94EC0FBE01C8010E9484
:101750008E08882389F1BE01C8010E9432108823B7
:1017600059F1BE01C8010E94370E882329F1BE013C
:10177000C8010E9400148823F9F0BE01C8010E942C
:1017800041148823C9F0BE01C8010E946415882352
:1017900099F08A81882339F001158CE5180751F0FA
:1017A0000E3D1C4579F0CE01DF91CF911F910F9135
:1017B0000C94C50A0E94850B80E0DF91CF911F91A8
:1017C0000F9108950E946D23F7CF90E080E0089577
:1017D0000895972F70E026E0929F600D711D1124EF
:1017E000FB0190E3899FE00DF11D1124EE0FFF1F17
:1017F000E25DFE4F859194910895FC01EE0FFF1F6D
:10180000E654FA4F859194910895CF93DF930E9407
:10181000E90B0E94110DEC01811520E5920708F0FB
:1018200041C0811530E4930708F0B4C0803E9105B3
:1018300018F5803C910508F09DC0883A910570F438
:10184000853A910508F08EC081309105F9F0009736
:10185000E9F00497D8F4D0E0C0E018C08F3B9105C0
:10186000D0F7C85AD0E0CC0FDD1FCB5EDD4F09901A
:10187000D881C02DD4640AC08115904258F4C11596
:1018800081E0D80718F4C83ED10528F7CE01DF91D2
:10189000CF910895C11590E3D90708F071C0CE012A
:1018A0009F706AC0811525E5920758F5811534E5CA
:1018B000930708F09EC0811542E5940750F4C115C6
:1018C00081E5D80708F469C0DC2FCC27C16FD06A46
:1018D000DDCF982F969596959E0123703327C115DD
:1018E000D34508F077C0C1E0D0E002C0CC0FDD1FC7
:1018F0002A95E2F720E2929FC0011124C82BD92B30
:1019000067C0C11589E5D807A8F4C11598E5D907BE
:1019100008F074C0C11526E5D20708F09CCF8C2FC3
:101920000E94A80DC82FD0E0DC2FCC27CC27DF7178
:10193000D062ACCFC1153AE5D30708F464C0CE013C
:1019400090568115904208F086CF8D2F8F710E949E
:10195000A80D90E0982F882788279F719C012C2B39
:10196000E901E6CFC55AD0E0CD5BDD4FC881D0E0BC
:10197000D0648CCF805C91090E94FD0BEC0186CF76
:10198000CE019927D3FF03C0EC01D86C7FCFEC01C7
:10199000D06C7CCFDF70D06A79CFCE01E4E0969531
:1019A0008795EA95E1F783702C2F2695269523706D
:1019B00090E2299F90011124382B8C2F8370C1E075
:1019C000D0E002C0CC0FDD1F8A95E2F7C22BD32BEB
:1019D000DC685CCFC1E0D0E002C0CC0FDD1F2A95EF
:1019E000E2F730E2939FC0011124C82BD92BDA68AB
:1019F0004DCFD82FCC27C46FD06A48CFDC2FCC274F
:101A0000C06FD06A43CF8C2F8F700E94A80D34E036
:101A1000D695C7953A95E1F7CF709C2FEC01D06928
:101A200035CF82389105B1F1B0F48133910509F4D5
:101A300075C048F48932910509F469C08A3291056C
:101A400009F473C008958533910509F459C08933A9
:101A5000910501F10895833E9105A9F138F4803E86
:101A60009105F9F0823E910549F10895863E910570
:101A7000A9F1873E9105C9F1843E910519F52091A0
:101A8000AE0521FF1FC08091AD0584FD14C087EE17
:101A900090E008952091AD052370A1F080EE90E0D4
:101AA00008952091AD0520FD47C03091AE0530FF6F
:101AB00009C024FF44C090E080E004C02091AD053F
:101AC00022FDF7CF08952091AD0522FD3BC0309156
:101AD000AE0530FDE3CF24FFF5CFEDCF2091AD056E
:101AE00023FFF0CF24FDE7CFD2CF2091AD0523FD1A
:101AF0002CC03091AE0531FFEECF84EE90E008951A
:101B00002091AD0525FFDECF89E290E00895209178
:101B1000AD0525FFD7CF85E390E008952091AD0571
:101B200026FFD0CF8AE290E008952091AD0526FFF0
:101B3000C9CF81E390E0089589E390E0089583EEB2
:101B400090E0089582EE90E0089586EE90E008958A
:101B50009091AD0592FF06C0282F28712830F9F426
:101B6000877F846093FF06C0282F28712831F1F405
:101B7000877E84612091AE0520FF06C0382F387122
:101B80003830D9F4877F816021FF06C0282F287163
:101B90002831D1F4877E816194FD877E0895282FB6
:101BA00024712430F9F68B7F8860DCCF282F2471D4
:101BB000243101F78B7E8861DDCF382F31713130D0
:101BC00019F78E7F8860E0CF282F2171213121F70E
:101BD0008E7E8861E1CFCF939091B102992321F05D
:101BE000811116C01092B102CF910895EC2FF0E050
:101BF000EE0FFF1FEF55FD4F808191810E949B0AE0
:101C00000E942022CF5F8091B102C81778F3EACFFB
:101C1000C0E0F9CF08958091CC01882399F080919C
:101C2000B202882379F08091B5029091B6020097B4
:101C300049F00E949024C39728F01092B20281E0EC
:101C40000C94EB0D08951092B2021092CC011092F8
:101C5000B6021092B50281E00C94EB0D8091CC019C
:101C600081110C94230E81E08093CC0108955F9242
:101C70006F927F928F929F92AF92BF92CF92DF929C
:101C8000EF92FF920F931F93CF93DF938C017B0111
:101C90001092B302073F8CE51807C1F4FB01C28123
:101CA000CC2351F181E08093CC018C2FDF91CF9137
:101CB0001F910F91FF90EF90DF90CF90BF90AF906A
:101CC0009F908F907F906F905F900895083FFCE504
:101CD0001F0739F4FB01C281CC2371F00E94230E4F
:101CE000E4CF093FFCE51F0739F4FB01C281CC2397
:101CF00019F00E942E0ED9CFD091CC01C1E0DD2386
:101D0000A1F21092B402C0E055E0752E88248394AD
:101D1000912C662463948091B402823088F0809183
:101D2000B302882309F497C00E9484249093B602DA
:101D30008093B50280E00E94EB0D81E0C827B5CF0B
:101D4000C82ED12C7C9CF0017D9CF00D1124E45E0A
:101D5000FE4F208131816FEF90E0E92FF0E0EE0F30
:101D6000FF1FE20FF31F459154910417150709F463
:101D7000692F452B11F09F5FF0CF6F3FB1F4512CCD
:101D8000C529DD2351F07C9CF0017D9CF00D1124D0
:101D9000E45EFE4FD1E084818111D0E0D17080916A
:101DA000B4028F5F8093B402B6CF5090B202F701B5
:101DB00032817C9CF0017D9CF00D1124E45EFE4F8D
:101DC0002481540101C0AA0C6A95EAF73323F1F08B
:101DD000A22AA482552099F2940102C0220F331F37
:101DE0009A95E2F721503109A216130649F622818D
:101DF00033812115310531F0C9010E949B0A60929F
:101E0000B302BECF61E00E940A0EF9CFA40102C066
:101E1000440F551F9A95E2F74150510924171506B2
:101E2000C1F4228133812115310579F0C9010E9465
:101E3000B00A7C9CF0017D9CF00D1124E45EFE4F05
:101E4000A0948481A822A4829BCF60E00E940A0E05
:101E5000F0CF512CEECFC1110EC081E00E94EB0DEE
:101E6000DD2309F46ACF1092B6021092B50281E028
:101E70008093B20262CFF7018281882309F45DCF9B
:101E80008091B202882309F458CF0E948424909351
:101E9000B6028093B502E091B102E83008F04DCF70
:101EA00081E08E0F8093B102F0E0EE0FFF1FEF553F
:101EB000FD4F1183008341CFCF93DF93EC0181E08D
:101EC000898B8F810E94D42188850E94E7210E94FE
:101ED0002022EA81FB81309739F06C897D89CE011F
:101EE0000696DF91CF910994DF91CF910895CF931A
:101EF000DF93EC018881823039F4FB018281938188
:101F00000E949B0A81E08B87DF91CF910895FC01AD
:101F10008081813029F4FB01808191810C949B0A9E
:101F2000823021F4FB0182819381F8CF0895FC0176
:101F30008081813029F4FB01808191810C94B00A69
:101F4000823021F4FB0182819381F8CF0895EF92D2
:101F5000FF920F931F93CF93DF93EC018A8581113A
:101F600034C0EB80FC8087E5F81A26E12E9DC00185
:101F70002F9D900D1124DC01AA5DBE4F1496ED91AA
:101F8000FC911597309731F054966D917C91845D5A
:101F90009E4F099586E18E9D80018F9D100D112425
:101FA0000A5D1E4FF80187810E94DA21F8018085C1
:101FB0000E94ED210E942022188219861B861E8213
:101FC0001D821092B8021092B702DF91CF911F913B
:101FD0000F91FF90EF900895DF92EF92FF920F9391
:101FE0001F93CF93DF937C01FB018281882391F0C3
:101FF0008091CD018F3F71F0C6E2D1E010E000E0AA
:10200000DD24D3948091CD01082E000C990B80170C
:10201000910744F4DF91CF911F910F91FF90EF90C2
:10202000DF9008958E818823C9F089859A858E1561
:102030009F0539F48091B7029091B8028E159F05E3
:1020400069F0DF86FC86EB868989811103C0CE01A9
:102050000E945C0FCE0106960E94A70F0F5F1F4FD4
:102060006696D0CFEF92FF920F931F93CF93DF939B
:102070007C0197558F3F910509F0D8F52091CD014E
:10208000022E000C330B2817390714F48093CD016E
:10209000FB01228136E1389F8001399F100D112408
:1020A000E801CA5DDE4F288B92818E81992349F128
:1020B000FA86E9868F5F8E830E9484249E878D87AF
:1020C0000E9407228F830E94D12188870E94E421E9
:1020D0009885892B8887E881F981309731F06C8960
:1020E0007D89C801845D9E4F0995F092B802E09207
:1020F000B70281E0DF91CF911F910F91FF90EF9098
:1021000008958823B1F38989882399F3C801845DF0
:102110009E4F0E94A70FEDCFEF92FF920F931F9358
:10212000CF93DF938091CD0110E006E18F3FC1F5A1
:10213000DF91CF911F910F91FF90EF900895029F33
:10214000F001039FF00D1124EA5DFE4FE288F38851
:10215000E114F10419F488ECE82EF12C029FE0015F
:10216000039FD00D1124CA5DDE4F8E818823B9F004
:102170008D859E850E949024E816F90680F4109FB4
:10218000700111248989811105C0C7018A5D9E4FA4
:102190000E945C0FC701845D9E4F0E94A70F1F5FC6
:1021A000212F30E08091CD01082E000C990B821771
:1021B00093072CF6BDCFCF92DF92EF92FF920F9351
:1021C0001F93CF93DF936C017B0164E670E088E797
:1021D0000E945717EC0197FD12C010E000E0F601D5
:1021E000E00FF11F849164E670E00E94B317EC01E8
:1021F000892B29F40F5F1F4F0E151F0581F70E94D1
:102200003618CE01DF91CF911F910F91FF90EF9083
:10221000DF90CF9008950895E7EAF3E080E092E040
:10222000DF019C011D9221503040E1F7F093A80599
:10223000E093A7058FEF9FEF9093E5028093E40270
:1022400008950E940B118093E00280FD0FC080E88A
:102250008093DF020E9451176DE070E081ED95E000
:102260000E94DB10892B21F080E0089580E2F0CFFE
:102270008091E00263E070E081FD18C08EEC95E093
:102280000E94DB10892B81F76DE070E08EEB95E00A
:102290000E94DB10892B41F70E940C1181E0809392
:1022A000E3028093E2021092E10208958BEC95E044
:1022B000E7CF2091DF0236E0839FC0011124629FA7
:1022C000800D911D1124811522E0920714F090E0F9
:1022D00080E089559C4F9093A8058093A7050895A9
:1022E0002091A7053091A805215A33404091DF0283
:1022F000642F70E0C9010E948A2B481B463010F4FD
:10230000240F311D211582E0380710F030E020E065
:1023100029553C4F3093A8052093A70508951F9396
:10232000CF93DF93162F8A3031F481E0DF91CF9184
:102330001F910C9409128D3011F480E0F7CFC091F9
:10234000A705D091A80596E0FE01A9EBB2E00190A7
:102350000D929A95E1F7803EC8F086E0FE01119259
:102360008A95E9F711111EC0C091A705D091A80563
:1023700046E050E0BE0189EB92E00E94AD2B892B34
:10238000F9F4DF91CF911F910C947011F6E08F9FBB
:10239000B001112462527A4F46E050E0CE010E9413
:1023A000A42BE0CFE091A705F091A8059F012A5F3B
:1023B0003F4F2E173F07C1F2808180958193F9CF5F
:1023C000C75AD340CE0125E0969587952A95E1F727
:1023D00021E030E0A90102C0440F551F8A95E2F7C1
:1023E000CA014091E4025091E502842B952B269678
:1023F00045E0D695C7954A95E1F702C0220F331FF5
:10240000CA95E2F7822B932B9093E5028093E40226
:10241000B8CFCF93382FE091A705F091A805E75AE0
:10242000F3402091DF02622F70E0CF010E948A2BDF
:10243000281B822F332369F066E00E947E2BC82F71
:10244000C15010F4CF91089560E080E20E948F1196
:10245000F7CF9F01280F311D2115324018F080E081
:10246000F0E0E0E08E0F9F2F911D89559C4F9093D7
:10247000A8058093A705E6CFFF920F931F93CF93F4
:10248000DF93EC01F62EFC0101900020E9F78F01AB
:1024900001501109C017D10730F0DF91CF911F9182
:1024A0000F91FF9008956F2D89910E948F11F2CFA7
:1024B0001F93CF93DF93EC01162FFE0184918111BE
:1024C00004C0DF91CF911F910895612F0E948F1159
:1024D0002196F3CF8091E202811108C062E070E0A2
:1024E0008CEB95E00E94DB10892B19F08091E202C1
:1024F000089581E08093E202F9CF2F923F925F929C
:102500006F927F928F929F92AF92BF92CF92DF9203
:10251000EF92FF920F931F93CF93DF932091E402EA
:102520003091E5022115310531F08091E10261E041
:1025300070E0882399F0DF91CF911F910F91FF9068
:10254000EF90DF90CF90BF90AF909F908F907F9053
:102550006F905F903F902F9008958F5F082F10E04D
:102560001B01082E02C0220C331C0A94E2F7A101C1
:1025700042235323452B89F39091E00290FD44C000
:102580008295880F80768093D001980136952795A3
:10259000369527952093D301815E8093D1011092C7
:1025A000D40124E630E047E050E06EEC71E088E7CB
:1025B0000E94E217892B09F0BECFA80125E0440F45
:1025C000551F2A95E1F78091E00280FD2BC0495507
:1025D0005C4F04E610E020E230E060E488E70E940F
:1025E0000918892B09F0A7CF0E946A12E101C09552
:1025F000D0958091E4029091E502C823D923D0932D
:10260000E502C093E40297CF880F880F880F80936C
:10261000D0011092D301895F8093D10183E0809330
:10262000D401BFCFEFEBF2E080E2DF011D928A958B
:10263000E9F7AAE4B2E006E412E08EE4C82E82E0F4
:10264000D82E97E0592E772473948D91E801299123
:102650008E01240F352F311D29553C4FE82FF0E016
:10266000E154FD4F90E080E0652C681A872C082E1D
:1026700001C0880C0A94EAF77901A12CE701B9900E
:102680007E01B820662D6A196770962E062E000C02
:10269000770BDB2D01C0DD0F9A94EAF771956195F8
:1026A00071096770772701C0B6946A95EAF7BD2A69
:1026B0006081962E9B289082A39468E0A612DECFBC
:1026C000019631968830910579F6CA16DB0609F035
:1026D000BCCF04E610E020E230E04FEB52E07DCFCB
:1026E0008091E202882369F062E070E08AEB95E075
:1026F0000E94DB10892B19F08091E202089510925C
:10270000E2028091E20291E0892708958091E3023C
:10271000882341F060E080E00E9459110E94520A33
:102720000C947D1208950F931F93CF93DF93C62FC0
:10273000D42F022FFC0182818823C9F06093E80224
:102740000E9484249093E7028093E60280E28C0F3B
:10275000883008F050C0C77081E001C0880FCA956A
:10276000EAF7DF91CF911F910F910C94E719109127
:10277000E802161335C08091E6029091E7020E94AC
:102780009024883C910560F5C0E2CD0F1D17B9F08B
:1027900080E2810F883040F4177081E001C0880F1B
:1027A0001A95EAF70E94EE19C83048F481E09D2F8F
:1027B000977001C0880F9A95EAF70E94E719802F59
:1027C0000E94D419C830B8F4D77081E001C0880FD6
:1027D000DA95EAF7DF91CF911F910F910C94EE19E2
:1027E00080E28C0F883038F4C77081E001C0880F18
:1027F000CA95EAF7EFCFDF91CF911F910F9108951E
:102800009C01CB01233F4CE5340731F190F4283D86
:10281000FCE53F07E9F0293D4CE5340769F1273D28
:102820003C4579F426E241EE61EE0E94931380E08C
:102830000895253FFCE53F07B9F090F0263F3C4561
:10284000B9F0FC0182818823D1F01092E80208954A
:1028500027E245EE65EEE9CF26E241EE60EEE5CFF8
:1028600027E245EE64EEE1CF26E241EE62EEDDCFF7
:1028700027E245EE66EED9CF28E241E0EBCF81E0DA
:102880000895CF93DF93EC01FB018281882309F443
:1028900019C1C230FCE5DF07C0F1C6319CE5D9079C
:1028A00030F09E012A5F3C452930310570F50E94C9
:1028B000E3229093AE058093AD05C031ECE5DE07D1
:1028C00009F4CFC008F05BC0C8308CE5D80709F424
:1028D000B6C088F5C430ECE5DE0709F4A8C0C0F442
:1028E000C2308CE5D80709F49CC08091AD058260A8
:1028F000C330DC4509F498C08091AD059091AE05D8
:102900000E94F1220E94251C80E0DF91CF91089562
:102910008091AD058061C630ECE5DE0709F484C026
:102920008091AD058860C730DC4508F47DC080919A
:10293000AD05806279C0CC308CE5D80709F489C038
:1029400070F48091AD058C60CA30ECE5DE0709F4C7
:102950006BC008F478C08091AD058E7F65C0CE3025
:102960008CE5D80709F479C08091AD058B7FCF3015
:10297000DC4508F459C08091AD058F7E55C0CB3F32
:10298000ECE5DE0709F457C030F5C3318CE5D80714
:1029900009F46FC078F4C131ECE5DE0709F465C0D5
:1029A000C231DC4509F0A8CF0E94251C8091AD05FD
:1029B0008F773AC0C5318CE5D80709F462C008F4B6
:1029C00076C08091AE058160CA3FDC4509F094CFA6
:1029D0008093AE0591CFCF3FFCE5DF0709F44DC0F2
:1029E00088F48091AE058D7FCD3F9CE5D90781F3BA
:1029F0008091AE058E7FCE3FDC4550F38091AE05D1
:102A00008360E6CFC130FDE5DF0709F459C008F463
:102A100044C080E0C230DD4509F06ECF0E946F23D4
:102A20006BCF8091AD0581608093AD0565CF8091BE
:102A3000AD058460F9CF8091AE058260C9CF8091E9
:102A4000AD058064F1CF0E94251C8091AD058068A2
:102A5000EBCF8091AD058D7FE7CF8091AD05877F6E
:102A6000E3CF8091AD058F7DDFCF8091AD058F7B6A
:102A7000DBCF8091AD05837FD7CF8091AE058C7F72
:102A8000A7CF8091AD0582FB992790F921E092278D
:102A900090FB82F990FB83F9C7CF8091AE05982F08
:102AA000909591708E7F892B90FB81F991CF0E9438
:102AB000251C9091AD05892F97FB87F98058B4CFDD
:102AC00081E0ACCF81E021CFCF93DF93EB01863162
:102AD0009C4511F50E94D1219A81992399F08A7A17
:102AE00091E009F490E09093E902811109C089E234
:102AF0000E94AC210E94202280E0DF91CF910895B6
:102B000085E3F6CF8091E902811104C089E20E9439
:102B1000B321F0CF85E3FBCF81E0EFCF8EE14A9B7D
:102B200002C08150E1F74A9BFECF08955A9880E297
:102B30008A95F1F75A9A0895FC013BE03A95F1F72E
:102B400020E090E080E031E040E14A95F1F7880F25
:102B50004A9B02C08160232742E04A95F1F70000BA
:102B600040E14A95F1F79F5F6913EECF90E19A95A6
:102B7000F1F799B132E03A95F1F7000040E14A955A
:102B8000F1F792FB992790F992272081920F908379
:102B90000895EF92FF920F931F93CF93DF930F92BD
:102BA000CDB7DEB719828C017C01E60EF11C0E1543
:102BB0001F0561F481E09981911180E00F90DF9110
:102BC000CF911F910F91FF90EF9008950E948E1565
:102BD00068E0CE0101960E949C15F80181938F0157
:102BE000E6CF9093EC028093EB026093EA02529A54
:102BF0005A9A08959093EC028093EB026093EA0254
:102C000052985A9AEA9AE9E6F0E080818F7C8083B4
:102C100008956150770B91E001C0990F6A95EAF72A
:102C200020E031E0911108C0222391F05A9A80E20D
:102C30008A95F1F75A980895492F482339F05A9AFE
:102C4000232740E24A95F1F79695ECCF5A98F9CFB1
:102C50005A98EDCFFF920F931F93CF93DF93EC0120
:102C60008C01060F111DC017D10731F4DF91CF91F0
:102C70001F910F91FF900895F9900E94961568E0BA
:102C80008F2D0E940916EFCF1F920F920FB60F9251
:102C900011240F931F932F933F934F935F936F9341
:102CA0007F938F939F93AF93BF93EF93FF93CF93B4
:102CB000DF930F92CDB7DEB719820E948E1567E0C1
:102CC000CE0101960E949C15082F06950695069543
:102CD000982F92959570202F2570920F292F237091
:102CE000969596958770920F891344C089818111BA
:102CF00041C08091EA028017E8F120E12A95F1F7BE
:102D00005A9A529A82E08A95F1F700C0A8E00A9F89
:102D1000C00111240091EB021091EC02080F191F61
:102D20005A98F8016581662321F0868197810E9477
:102D30002A160E949615F0E1FA95F1F75A985298E2
:102D40005A9A20E12A95F1F7D80112966C911297C0
:102D5000662331F113968D919C910E94C915D8017B
:102D6000ED91FC91882311F088E001C082E080831E
:102D70000E948E150F90DF91CF91FF91EF91BF913F
:102D8000AF919F918F917F916F915F914F913F9103
:102D90002F911F910F910F900FBE0F901F901895BC
:102DA000ED91FC91E1CF0F931F93CF93DF9320918F
:102DB000EA02281719060CF471C08C0193E0000F89
:102DC000111F9A95E1F7C091EB02D091EC02C00F70
:102DD000D11FF894529A5A9825E02A95F1F70000ED
:102DE000982F969595708570980F892F837096957A
:102DF0009695980F092B0E94961500C067E0802FCA
:102E00000E94091680E18A95F1F752985A9A4A9BD6
:102E100017C087E090E04A9915C06D81662321F1C3
:102E20008E819F810E94C91581111EC0529A5A9AA3
:102E3000E881F98182E08083789482E090E00DC09F
:102E400000C0E5CF019771F4529A5A9AE881F9814E
:102E500081E08083789481E090E0DF91CF911F91B1
:102E60000F91089500C0D7CF0E948E1520E22A95B9
:102E7000F1F75A98529A80E18A95F1F76A816623B0
:102E800021F08B819C810E942A160E949615E88170
:102E9000F9811082789490E080E0DFCF84E090E0C8
:102EA000DCCF1092B9008CE08093B8000895EF92C7
:102EB000FF920F931F93CF93DF93182FEB01109284
:102EC000BC0084EA8093BC000E9484247C01809131
:102ED000BC0087FF27C08091B900887F883029F027
:102EE0008091B900887F8031D9F51093BB0084E8C8
:102EF0008093BC000E9484248C018091BC0087FFD9
:102F000024C02091B900287F90E080E02831B1F002
:102F100081E090E0203411F490E080E0919581957B
:102F200091090CC0CF3FDC0791F20E9484248E19D6
:102F30009F098C179D0758F28EEF9FEFDF91CF917D
:102F40001F910F91FF90EF900895CF3FDC07A9F2FA
:102F50000E948424801B910B8C179D0770F2ECCF8C
:102F60008FEF9FEFEBCF0F931F93CF93DF93EB0187
:102F70008093BB0084E88093BC000E9484248C0171
:102F80008091BC0087FF11C02091B900287F81E0AB
:102F900090E0283211F490E080E0919581959109BC
:102FA000DF91CF911F910F910895CF3FDC0741F33F
:102FB0000E948424801B910B8C179D0708F38EEFD1
:102FC0009FEFEECFCF92DF92EF92FF920F931F937E
:102FD000CF93DF936B018A017901B9010E945717E2
:102FE000E6010C0D1D1DC017D10761F424E92093E3
:102FF000BC00DF91CF911F910F91FF90EF90DF9078
:10300000CF90089597FDF2CFB70189910E94B31731
:10301000EACFCF92DF92EF92FF920F931F93CF935D
:10302000DF93C62F6A017901B8010E94571797FDF7
:103030000CC0B8018C2F0E94B317E601EC0CFD1CEC
:10304000CE15DF0511F097FF0CC024E92093BC00DA
:10305000DF91CF911F910F91FF90EF90DF90CF9074
:103060000895B80189910E94B317EACF84E980934B
:10307000BC0008959093F2028093F1020895E091CC
:10308000F102F091F202309721F00190F081E02DF1
:10309000099480E00895E091F102F091F2023097F6
:1030A00099F02091E101222359F02091AD0527FFED
:1030B00007C0DC012C9111962C93119725E02C93DD
:1030C0000280F381E02D099408952091EF02309160
:1030D000F0022817390771F09093F0028093EF0205
:1030E000E091F102F091F202309721F00680F78131
:1030F000E02D099408952091ED023091EE022817F9
:10310000390771F09093EE028093ED02E091F102A5
:10311000F091F202309721F00084F185E02D0994BE
:10312000089585B7806885BF85B7806885BF089595
:10313000089508950C94981808950C949C180E9472
:1031400091180E9499180C949A1881E008950E9491
:103150007B240E94940680E00E9421110E94EF24AB
:103160000C949D18AF92BF92CF92DF92EF92FF9294
:103170000F931F93CF93DF93CDB7DEB72A970FB688
:10318000F894DEBF0FBECDBF0E94AA070E94A5180B
:10319000882309F45FC084EFA82E82E0B82E10E0E7
:1031A00000E0C02E802F0E941108E82EF501D1907A
:1031B0005F01D81609F448C08091800381FD0E9408
:1031C000170880E0FF24F394DE249D2D9F21B9F1A0
:1031D0008E83CF82EF2081E009F480E088870E940F
:1031E00084248160782F9A8789874E815F816885E2
:1031F0008A850E944C19F801EC50FD4F8081F82619
:10320000F0820E9486130E943F189091F302891762
:1032100091F10E943F188093F3022A960FB6F8941A
:10322000DEBF0FBECDBFDF91CF911F910F91FF90F9
:10323000EF90DF90CF90BF90AF900C947C0B8F5F9E
:10324000FF0C863009F0C1CF0F5F1F4F083011050A
:1032500009F0A7CF8FEF89838A831B820E94842481
:103260008160782F9D838C8349815A816B818D8108
:103270000E944C19C6CF2A960FB6F894DEBF0FBE37
:10328000CDBFDF91CF911F910F91FF90EF90DF9015
:10329000CF90BF90AF900895CF93DF93CDB7DEB7B7
:1032A0002B970FB6F894DEBF0FBECDBF4F83588764
:1032B00069877A878B871E821D8285E0FE0137969B
:1032C000DE01119601900D928A95E1F749815A81AC
:1032D0006B817C818D819E812B960FB6F894DEBF29
:1032E0000FBECDBFDF91CF910C94C51EFC01808134
:1032F00091810C947E21882371F19CEF980F913A73
:1033000020F40E94AC210C94202290E2980F983077
:1033100050F4E82FE77081E001C0880FEA95EAF7E2
:103320000E94D421F0CFEBE5E80FE33038F4F0E071
:10333000E458FD4F808190E00C946518885A8731DD
:1033400050F4E82FF0E0EE0FFF1FE25BFD4F8081AD
:1033500091810C947B180895882329F19CEF980F94
:10336000913A20F40E94B3210C94202290E2980F0D
:10337000983050F4877091E001C0990F8A95EAF770
:10338000892F0E94DA21F0CF9BE5980F933020F42B
:1033900090E080E00C946518885A873120F490E022
:1033A00080E00C947B180895CF93C82F0E947B195E
:1033B000C93349F42FEF87EE93E0215080409040CD
:1033C000E1F700C000008C2FCF910C94AC1988233A
:1033D00021F00E94D4210C9420220895882321F00A
:1033E0000E94DA210C9420220895BF92CF92DF929E
:1033F000EF92FF920F931F93CF93DF936C01D62F21
:10340000C72FFC01158112951F70028101110E94C6
:10341000F4210E94CA21E82E882371F00023B1F024
:1034200080E28D0F883090F082E00E946B220E9433
:10343000CA2191E0E82EE926BC2EB2949FE0B92281
:10344000EB2DF0E0E05FF34D0C949E2BE12CF4CFDC
:103450001C2F1F70C07F11F01295107F0023A9F060
:10346000112359F080E28D0F883010F0D11109C07E
:10347000812F0E94D4210E9420228D2F0E947B192F
:1034800014C0812F0E94E721F6CF8D2F0E94AC1926
:10349000112359F080E28D0F883010F0D1112CC02B
:1034A000812F0E94DA210E9420222B2D2850330BDD
:1034B0002430310520F40E943F180E947C0BEE203E
:1034C00009F477C10E94C62180FD73C1F601128202
:1034D0000E94C0210E944920C6010E94E31B0E9455
:1034E000C021DF91CF911F910F91FF90EF90DF905E
:1034F000CF90BF900C946A20812F0E94ED21D3CFF2
:10350000FC2FFF70FF2EC07FC03219F0F29480EFC5
:10351000F822DD2369F0D13049F1002391F1112324
:1035200051F1F601858180FFA8CF8F70858323C07C
:10353000002381F0111106C00E9407228F290E94EA
:10354000E719B3CF1130C1F70E9407228F290E94DB
:103550000D22ABCF111106C00E9416228F2D0E94A2
:10356000EE19A3CF113009F4A0CFF6CF002329F034
:10357000163008F09ACF8F2DE2CF153008F095CF96
:10358000EDCF112359F3D93349F4FFEF27EE33E0A0
:10359000F15020403040E1F700C000008D2F0E9424
:1035A000AC1983CF8C2F837009F041C001117DCFFE
:1035B0004D2F429546954770440F440F0D2F0F70C5
:1035C00010E030E020E0042E04C0000F111F221F85
:1035D000331F0A94D2F760E070E0CB01D4FF0FC034
:1035E0006FE070E080E090E004C0660F771F881FF6
:1035F000991F4A95D2F76095709580959095C695DC
:10360000C695C370602B712B822B932BC23049F06F
:1036100058F4C13019F00E94FB1F47CF0E94E91FE8
:1036200044CF0E940D2041CF0E94E71F3ECF8695D8
:10363000002311F08C2F8170882309F436CF4D2F91
:10364000429546954770440F440F0D2F0F7010E0C0
:1036500030E020E0042E04C0000F111F221F331F92
:103660000A94D2F760E070E0CB01D4FF0FC06FE0A6
:1036700070E080E090E004C0660F771F881F991FFC
:103680004A95D2F76095709580959095C695C695A8
:10369000C370602B712B822B932BC23049F058F4EE
:1036A000C13019F00E94C02000CF0E94AE20FDCE94
:1036B0000E94D220FACE0E942320F7CECF700023A2
:1036C00029F08C2F0E9449208D2F39CF8D2F0E94F9
:1036D000EE198C2F0E946A20E8CED23F89F160F467
:1036E000D03FC9F0D13F29F1002309F442C01111A4
:1036F000C4CE8C2F8F7121C0D33F39F1D43FA1F7B5
:10370000002369F1CF718C2F0E94492063E08C2F38
:103710000E945622CACE002341F0153008F0C5CED3
:103720008C2F8F710E948D20C0CE163008F0BDCE38
:10373000F7CF8C2F8F71002369F20E944920B5CEFC
:103740008C2F8F710023C9F3C5CF002329F08C2F54
:103750008F710E943420A9CE0E942F20A6CE81E036
:103760000E946B22123008F4A0CE82E00E946B22ED
:103770009CCE112359F0D93309F010CF8FEF97EE7B
:10378000E3E081509040E040E1F706CF8C2F8F714D
:10379000A1CF4C2F4F706D2FC6010E94E50B0E94E8
:1037A0005F1F83CE4C2F4F706D2FC6010E94E80B18
:1037B0007CCEDF91CF911F910F91FF90EF90DF9022
:1037C000CF90BF9008950F931F93CF93DF93EC0199
:1037D0008B819C81892B29F08881998189238F3F56
:1037E00029F4DF91CF911F910F910895CE010E948E
:1037F0009A0B8823B1F3688179818A810E9488219C
:103800008C010E94E4200E94E61FB801CE01DF91E6
:10381000CF911F910F910C94F519882321F00E94EC
:10382000E7210C9420220895882321F00E94ED21A5
:103830000C94202208950E94F4210E9404220C94EA
:1038400020220E94BA210C941B1C0E94E1210C949E
:10385000211CE92FE295EF70E250EE3070F4F0E0B9
:10386000E05EF34D0C949E2B803F19F020F4883ECF
:1038700020F481E00895843FE1F380E00895883EDC
:10388000C0F3813FD1F7F5CF93FB882780F90895E6
:103890000E947E210C94291CCF93DF9300D000D08E
:1038A0000F92CDB7DEB70F900F900F900F900F9043
:1038B000DF91CF910895CF93DF9300D000D000D057
:1038C000CDB7DEB726960FB6F894DEBF0FBECDBFDC
:1038D000DF91CF9108951F93CF93DF93C091FD02A5
:1038E00016E08091FE028C1304C0DF91CF911F91EE
:1038F0000895D0E01C9FF0011D9FF00D1124E150B0
:10390000FD4F4081518162817381848195810E9444
:103910005B1C2196C770E5CF40912F035091300377
:10392000609131037091320380913303909134039D
:103930000C945B1C1F93CF93DF9380913403807FA3
:10394000C1F4809131038823A1F08091FD02C091E0
:10395000FE0260912F037091300340913203509129
:103960003303D62FD723DA01A095B09516E0C813FC
:1039700004C0DF91CF911F91089590E0411551054A
:1039800011F0DF3F31F401968770F1CF2A0F3B1F12
:1039900017C0189FF001199FF00D1124E150FD4F41
:1039A00021812713F0CF20812613EDCF2281211111
:1039B000EACF238134812417350740F3241B350BCC
:1039C000283C310500F7209134032F7020612093AB
:1039D000340326E0289FF001299FF00D1124EC5FAD
:1039E000FC4F80818F70806180838FE293E00E9422
:1039F000E31BDF91CF911F910C946B1CBF92CF9270
:103A0000DF92EF92FF920F931F93CF93DF93CDB787
:103A1000DEB761970FB6F894DEBF0FBECDBF8C0145
:103A200085E0F801DE011D9601900D928A95E1F77F
:103A3000D8014C9111965C9111971296EC901297C7
:103A40008091320390913303009709F47FC1209154
:103A50002F0330913003622F63236F3F09F476C147
:103A60001396CD90DC90B0903103BB2009F411C1C6
:103A7000C816D906D0F1F601E81BF90BCF01FF24D7
:103A8000F394883C910508F0F12C80913403982F31
:103A9000907FFF2009F4B8C091117FC0FE2C351330
:103AA00029C0241327C0E11025C08F708061809346
:103AB00034030E948C1C8FE293E00E94E31B8091F0
:103AC0003403D80115968C938F2D61960FB6F89418
:103AD000DEBF0FBECDBFDF91CF911F910F91FF9041
:103AE000EF90DF90CF90BF900895809590958C0DCA
:103AF0009D1DC5CFCD2829F0852F84238F3F09F048
:103B000041C180E0B82FB170DB2E80FF3CC08091B6
:103B1000FD022091FE0236E0821315C04D875E87BC
:103B20008D859E850E947E21292F22952F7022301F
:103B3000F0F0243018F59F70F1F0F8019581907F36
:103B4000D1F4D12C1EC090E0389FF001399FF00DC8
:103B50001124E150FD4F6181651306C0608164133B
:103B600003C06281E6120FC001968770D5CF9F70A7
:103B700011F0882331F3805E883018F3C8010E9469
:103B8000E31BFD2CA1CFEE2009F49ECF80913403DE
:103B9000816080933403F12C97CF351306C0241332
:103BA00004C0D801EE2009F49AC04D875E878D8548
:103BB0009E850E94481C882319F1EE2009F180910E
:103BC0003403803270F020912F0330913003388716
:103BD0002F831986DB86CA868C87CE0107960E94C2
:103BE000E31B86E0F801AFE2B3E001900D928A9505
:103BF000E1F70E949A1C0E948C1CFF24F39464CF6E
:103C0000C8010E94E31BF9CF911113C07C2DD98A02
:103C1000C88A6E2D89890E944C1C8FE293E00E9415
:103C2000E31B86E0EFE2F3E0DF011D928A95E9F7FE
:103C300063C0351312C0241310C0E1100EC0F80188
:103C40008583C8010E94E31BEFE2F3E086E0DF0119
:103C50001D928A95E9F7FB2C37CF4D875E878D85BE
:103C60009E850E94481C882359F2EE2049F28091DB
:103C70003403803208F4B5CF20912F033091300304
:103C80003A8329831B82DD82CC828E83CE0101960A
:103C9000A6CFC816D90698F1F601E81BF90BCF019B
:103CA000F12C883C910508F049C0FE2CEE2009F467
:103CB000A7CF351332C0241330C08091340380FD68
:103CC00023C0982F907F01F1D80115968C931597FA
:103CD000903F39F0982F907F905F8F70892B1596C9
:103CE0008C93C8010E94E31B86E0F801AFE2B3E0C9
:103CF00001900D928A95E1F70E948C1CE5CE80958B
:103D000090958C0D9D1DCCCF86E0F801AFE2B3E01D
:103D100001900D928A95E1F7D7CE4D875E878D850C
:103D20009E850E94481C81115CCF80913403816084
:103D300080933403C8010E94E31BC6CE7C2DD98A30
:103D4000C88A6E2D89890E944C1C6BCFEE2009F425
:103D500057CF4D875E878D859E850E94481CF82E23
:103D6000882309F44DCF86E0F801AFE2B3E001907B
:103D70000D928A95E1F78FE293E00E9476190E94F6
:103D80009A1CBACF81E08E25BDCE1F93CF93DF93CF
:103D9000CDB7DEB72C970FB6F894DEBF0FBECDBF00
:103DA0004F83588769877A878B879C87CE010796D0
:103DB0000E94FE1C882369F08A859B85892B39F037
:103DC0004F815885842F85238F3F09F071C016E0FD
:103DD0005FC086E0FE013796DE01119601900D92DC
:103DE0008A95E1F78A859B85892B89F388859F8150
:103DF00089238F3F61F32091FE0230E0C9010196D3
:103E0000877099274091FD024817190671F40E94A6
:103E1000251C1092FE021092FD0286E0EFE2F3E014
:103E2000DF011D928A95E9F7D2CF96E0929FD001EB
:103E3000939FB00D1124A150BD4FFE01319601900A
:103E40000D929A95E1F78093FE020E946B1CBFCF02
:103E5000819FC001112481509D4F0E94FE1C882328
:103E6000E9F0E091FD021E9FF0011124E150FD4FA9
:103E70004081518162817381848195810E945B1CA4
:103E80008091FD0290E00196877099278093FD0252
:103E90008091FD029091FE028913DACF2C960FB625
:103EA000F894DEBF0FBECDBFDF91CF911F91089573
:103EB00069857A858B859C850E945B1C88CFEF92F3
:103EC000FF920F931F93CF93DF938C01892B81F087
:103ED000F12CEE24E394E8012196F80184918437D3
:103EE00070F4843008F05FC08130B1F08230A1F10D
:103EF000DF91CF911F910F91FF90EF90089585373B
:103F000009F44CC008F43DC09CE7980F903780F747
:103F10008F770E94AC1949C00E5F1F4FFE0184913C
:103F200090E2980F983060F48770FE2D01C0FF0F6B
:103F30008A95EAF78F2F0E94F7210E94202202C063
:103F40000E947B198F2D815030F2EFE9FFE031970D
:103F5000F1F700C00000F7CF0E5F1F4FFE01849104
:103F600090E2980F983050F48770FE2D01C0FF0F3B
:103F70008A95EAF78F2F0E94FD21DFCF0E94AC19AE
:103F8000E1CF0E5F1F4FFE01C491C150D8F28FE9FF
:103F90009FE00197F1F700C00000F7CF0E5F1F4FC1
:103FA000FE01F490CFCF0E947B198E01CBCF0895F4
:103FB0000C94D71F0E94D81F609357037093580327
:103FC0008093590390935A030C941B1C08950C94EE
:103FD000DA1F0F931F9300915703109158032091FC
:103FE000590330915A03602B712B822B932B1F9115
:103FF0000F910C94DA1F0F931F93009157031091A8
:1040000058032091590330915A036023712382236E
:1040100093231F910F910C94DA1F0F931F9300911C
:104020005703109158032091590330915A03602788
:104030007127822793271F910F910C94DA1F0C94FC
:10404000D71F0C941F200E9421206093530370936C
:10405000540380935503909356030C941B1C60E00B
:1040600070E0CB010C9423200F931F9341E050E0AC
:1040700060E070E08A019B0104C0000F111F221F45
:10408000331F8A95D2F7C901B8011F910F910C9483
:1040900023200F931F9341E050E060E070E004C0E4
:1040A000440F551F661F771F8A95D2F780915303DF
:1040B00090915403A0915503B09156038A019B013E
:1040C000082B192B2A2B3B2BC901B8011F910F91EB
:1040D0000C9423200F931F9341E050E060E070E0C8
:1040E00004C0440F551F661F771F8A95D2F7CB0176
:1040F000BA01609570958095909500915303109149
:104100005403209155033091560360237123822379
:1041100093231F910F910C9423200F931F9341E041
:1041200050E060E070E004C0440F551F661F771F29
:104130008A95D2F78091530390915403A09155032F
:10414000B09156038A019B01082719272A273B278C
:10415000C901B8011F910F910C9423200F931F9355
:10416000009153031091540320915503309156034D
:10417000602B712B822B932B1F910F910C9423207A
:104180000F931F93009153031091540320915503F3
:104190003091560360237123822393231F910F9143
:1041A0000C9423200F931F930091530310915403F9
:1041B000209155033091560360277127822793275A
:1041C0001F910F910C9423200895E92FEE0FE90F12
:1041D000EE0F8E0F982F977041E001C0440F9A9513
:1041E000EAF786958695869595E0899FF0011124DA
:1041F000EB5CFC4F30E020E070E05191DF01119763
:10420000CB01022E02C0969587950A94E2F7817041
:1042100081958527842385278C932F5F3F4F2530F9
:10422000310559F70895E92FEE0FE90FEE0F8E0FC4
:10423000982F977086958695869525E0829FF00148
:104240001124EB5CFC4F50E040E080E0219130E035
:10425000092E02C0369527950A94E2F7217033277C
:10426000042E01C0220F0A94EAF7822B4F5F5F4FA2
:104270004530510559F70895BF92CF92DF92EF92E2
:10428000FF920F931F93CF93DF938C01C090530342
:10429000D0905403E0905503F0905603809157035B
:1042A00090915803A0915903B0915A03C82AD92A72
:1042B000EA2AFB2ACFE1D0E0BC2ED701C6010C2EA2
:1042C00004C0B695A795979587950A94D2F780FD77
:1042D0000EC0219788F7B12C8B2DDF91CF911F91C4
:1042E0000F91FF90EF90DF90CF90BF900895B801AD
:1042F0008C2F0E94050C019761F3EECFCF93DF93D3
:10430000EC010E943C21BE01DF91CF910C94050C81
:104310001F93CF93DF93EB019091FC02992331F02F
:10432000CB01DF91CF911F910C947E21882379F0EE
:10433000CB010E943C21182F682FCE010E94E5205E
:10434000BE01812FDF91CF911F910C94050CCB0101
:104350000E941321182FF4CF682F8091D5019091DE
:10436000D6010C94D823682F8091D5019091D60165
:104370000C94E3238091D5019091D6010C94EE2307
:1043800080915B03859585958595089580915B0364
:104390008770089590915B03977081E009F480E045
:1043A000089580917F03089590917F03892B8093D6
:1043B0007F030895809590917F03982390937F03C6
:1043C000089510927F03089580917E03089590913F
:1043D0007E03892B80937E030895809590917E03C0
:1043E000982390937E03089510927E0308959091F0
:1043F0007D03892B80937D030895809590917D03A3
:10440000982390937D03089510927D0308958091E1
:104410005C03089508950C940A2290915C03981708
:1044200021F080935C030C940B22089580915C032F
:10443000882329F010925C0380E00C940B220895ED
:10444000E091D501F091D60180917F038083E091C6
:10445000D501F091D601808190917E03892B8083D4
:10446000E091D501F091D601808190917D03892B57
:10447000808390915C03992381F0E091D501F091C4
:10448000D6018081892B80838091D5019091D601BE
:104490000E94742381110E9416228091D50190916F
:1044A000D6010C944B1808950C94532298E0899FE0
:1044B00090011124622B60935B030E94492080913C
:1044C0005B038595859585950C94542210925B032A
:1044D00080E00C94542290915B0380958923809313
:1044E0005B03282F277071F4282F082E000C330B44
:1044F0009217130639F08595859585950E946A2057
:104500000C9466220895CF92DF92EF92FF926C0195
:10451000EE24FF2420E0C114D104E104F10419F0D9
:10452000C701B60120E1C72ED82EE92EFF24C11401
:10453000D104E104F10419F0285FC701B6016B0151
:104540007C0154E0F694E794D794C7945A95D1F738
:10455000C114D104E104F10419F02C5FC701B601C4
:104560006B017C0142E0F694E794D794C7944A9596
:10457000D1F7C114D104E104F10419F02E5FC70191
:10458000B6019695879577956795672B682B692B6C
:1045900009F02F5F822FFF90EF90DF90CF9008956A
:1045A00090E080E00E94C22B21E08C3E9E4F09F0FB
:1045B00020E0822F089582E090E00C94BA2B83E0F3
:1045C00090E00C94BA2BCF9384E090E00E94BA2B39
:1045D000C82F81E290E00E94BA2B982F8C2FCF91A8
:1045E0000895CF93C92F682F84E090E00E94C82BD4
:1045F0006C2F81E290E0CF910C94C82BAB01BC01F1
:104600008FE090E00C94DA2BAB01BC0183E190E0E9
:104610000C94DA2B60E070E0CB010C94042360E092
:1046200070E0CB010E94FE220C940A236CEE7EEF18
:1046300090E080E00E94E62B60E082E090E00E9443
:10464000C82B60E083E090E00E94C82B10925703D3
:10465000109258031092590310925A0360E084E0BC
:1046600090E00E94C82B60E081E290E00E94C82B9D
:1046700060E085E090E00E94C82B60E086E090E07A
:104680000E94C82B6FEF87E090E00E94C82B40E0AB
:1046900050E0BA0188E090E00E94DA2B60E08DE003
:1046A00090E00E94C82B40E050E0BA0188E190E021
:1046B0000E94DA2B60E087E190E00E94C82B40E086
:1046C00050E0BA018CE190E00E94DA2B60E080E2D9
:1046D00090E00E94C82B0C940F230C941623682F93
:1046E0008EE090E00C94C82BFC0132968091E101A1
:1046F000882321F08091AD059EE187FF96E080E060
:10470000915008F4089521912223D1F38F5FF8CFBF
:104710009C01FC0132969FEF80E04191461751F0D9
:104720009F3F19F4411101C0982F8F5F8630A9F780
:104730009F3F09F40895290F311D97FD3A95F9011E
:1047400062830895FC01329608962191261303C0D6
:10475000DF0111971C92E817F907B9F70895E62FC2
:10476000E695E695E695EE3168F4E80FF92FF11D30
:10477000677021E030E001C0220F6A95EAF782817C
:10478000822B82830895E62FE695E695E695EE3135
:1047900070F4E80FF92FF11D677021E030E001C0DF
:1047A000220F6A95EAF720958281282322830895B3
:1047B0002091E101222329F02091AD0527FD0C94E1
:1047C000AF230C9488232091E101222329F020912A
:1047D000AD0527FD0C94C3230C94A223FC01329653
:1047E0008091E101882351F08091AD0587FF06C0DB
:1047F0008EE1DF011D928A95E9F7089586E0F9CFF1
:10480000089508950C9401240E9402248091B30518
:10481000843049F11092810388E190E020E40FB6E2
:10482000F894A895809360000FBE2093600080E00C
:104830000E947C0B0E94022483B7817F846083BF27
:1048400083B7816083BF7894889583B78E7F83BF59
:104850000FB6F894A89580916000886180936000FD
:10486000109260000FBE08950895CF930E94002417
:104870000E94AA070E943424C0E08C2F0E941108D5
:10488000811105C0CF5FC830C1F7CF91089581E095
:10489000FCCF08950C9449240E94251C0E943F18C7
:1048A0000E947C0B0C944A241F921FB61F92112465
:1048B0008F939F93AF93BF9380918103811113C016
:1048C0008091A9059091AA05A091AB05B091AC0586
:1048D0004196A11DB11D8093A9059093AA05A093AF
:1048E000AB05B093AC05BF91AF919F918F911F9095
:1048F0001FBE1F90189582E084BD93E095BD9AEF8E
:1049000097BD80936E0008952FB7F8948091A90504
:104910009091AA05A091AB05B091AC052FBF089569
:10492000CF92DF92EF92FF920F931F932FB7F894DD
:104930004091A9055091AA056091AB057091AC0515
:104940002FBF6A017B01EE24FF248C0130E020E0C0
:10495000C016D106E206F30650F0481B590BCA01F7
:104960001F910F91FF90EF90DF90CF9008954150ED
:104970005109F3CF78941F921FB61F9211248F9381
:104980009F93AF93BF938091A9059091AA05A091A1
:10499000AB05B091AC050196A11DB11D8093A90591
:1049A0009093AA05A093AB05B093AC05BF91AF91CE
:1049B0009F918F911F901FBE1F90189587E797E7D3
:1049C000909301088093000888E19AE00FB6F8946C
:1049D000A895809360000FBE90936000FFCF0E9467
:1049E000D022811102C00E946D230E94DB2280939D
:1049F00080030E94E3229093AE058093AD050E9450
:104A0000DF22682F70E090E080E00C94E71F809137
:104A1000A203089508950895CF93DF93EC010E94B7
:104A2000D026823011F08430B9F58091E1018823DD
:104A3000B1F18091AD0587FF32C060E282E08093E2
:104A4000E9008FEF9091E800815095FD06C095ED4B
:104A50009A95F1F700008111F5CF8091E80085FF6C
:104A60001BC08091E10170E050E040E0811104C082
:104A700050E040E068E070E0CE010E94ED268091B9
:104A8000E8008E778093E80080E2FE01A2E8B3E0C0
:104A900001900D928A95E1F7DF91CF91089568E03A
:104AA00081E0CDCF08958091B205811109C00E94A7
:104AB0007D280E94DA288091E20084608093E200E1
:104AC00008951092B2050895089508950C944C2409
:104AD00042E061EC81E00E94F92742E261EC82E071
:104AE0000C94F9278091B505833009F45FC030F448
:104AF0008130C1F1823009F49BC008958A3009F4F5
:104B000087C08B3009F46DC0893009F04EC08091A8
:104B1000B405813209F049C08091B8059091B9057A
:104B2000029708F042C08091E800877F8093E800F8
:104B30008091E80082FF35C09091F3008091F200EF
:104B4000029729F48091F1008B7F813021F48091CC
:104B5000F1008093A2038091E8008B778093E800B6
:104B60000C942D288091B405813AF9F48091E800E5
:104B7000877F8093E8008091B8059091B905892BD3
:104B800061F460E282E893E070E00E943C2780914B
:104B9000E8008B778093E800089560E090E080E083
:104BA000F3CF8091B3058111C3CF08958091B405EF
:104BB000813AD9F78091B8059091B905892BA9F769
:104BC0008091E800877F8093E8008091E80080FF73
:104BD000FCCF8091E1018093F1008091E8008E7715
:104BE000BDCF8091B405813201F78091B8059091D5
:104BF000B905892BD1F68091E800877F8093E80082
:104C00000E942D288091B6058093E1010C94251C0B
:104C10008091B405813249F68091E800877F8093C6
:104C2000E8000E942D288091B7058093A303089582
:104C30008091B405813A09F0B8CF8091E800877F70
:104C40008093E8008091E80080FFFCCF8091A3036F
:104C5000C2CF84B7877F84BF0FB6F894A8958091A0
:104C60006000886180936000109260000FBE80E851
:104C700090E00FB6F89480936100909361000FBEAE
:104C80000E949F180E947D280E94DA288091E200ED
:104C900084608093E20078940E94632B0E94A7189E
:104CA00087ED91E00E943A188091B305853019F0A4
:104CB0000E94B218F9CF0E9404248091B105882384
:104CC00099F30E943524882379F30E94D726ECCFEC
:104CD0000C946A26292F33272330310519F168F403
:104CE0002130310509F44AC02230310509F44BC0A6
:104CF00090E080E030E020E028C02132310579F1F9
:104D000022323105A9F780E490E022EF3BE0611503
:104D10007105D9F08BE390E027EB3BE06130710542
:104D2000A1F0E6CF99278130910599F0009741F0E5
:104D30008230910589F00397D9F6EEE1FBE002C0DD
:104D4000E6E6FBE0849190E09F01FA013183208345
:104D50000895E4E5FBE0F6CFE4E2FBE0F3CF89E081
:104D600090E02CE73BE06115710579F389E090E074
:104D700025E93BE06130710541F3BACF82E190E073
:104D800025EA3BE0E2CF8BE390E02AE63BE0DDCF93
:104D90008091B305843011F482E0089581E0089594
:104DA0008091A403811102C00C94C826089580E16B
:104DB00089BD82E189BD09B400FEFDCF8091D80094
:104DC0008F7D8093D8008091E00082608093E00026
:104DD0008091E00081FDFCCF0895AF92BF92CF9209
:104DE000DF92FF920F931F93CF93DF936C01EB0140
:104DF0008A010E944C28F82E811123C0011511054B
:104E000039F0F80180819181C81BD90BC80ED91ED9
:104E1000B12CA12C2097A9F08091E80085FD22C03B
:104E20008091E8008E778093E80001151105A1F0CC
:104E3000F80180819181A80EB91EB182A08285E01F
:104E4000F82E8F2DDF91CF911F910F91FF90DF9062
:104E5000CF90BF90AF9008950E944C288823D1F244
:104E6000F82EEFCFF60181916F018093F100219729
:104E7000FFEFAF1ABF0ACECFFC018091BA05909127
:104E8000BB0586179707A0F06115710529F490916D
:104E9000E8009E779093E80090E06115710551F469
:104EA000911108C08091E80082FF34C080E008952D
:104EB000BC01F2CF8091B3058823C1F18530C1F1E7
:104EC0008091E80083FD30C08091E80082FDEACF48
:104ED0008091E80080FFE1CF8091F3002091F20003
:104EE000382F6115710519F02830310558F091E01F
:104EF0002830310509F090E02091E8002E772093CA
:104F0000E800CBCF81918093F100615071092F5F50
:104F10003F4FE7CF8091B305882341F0853041F0C2
:104F20008091E80083FFBECF81E0089582E008957C
:104F300083E00895FC018091BA059091BB05861726
:104F40009707A0F06115710529F48091E8008E772C
:104F50008093E80090E06115710551F4911108C04B
:104F60008091E80082FF35C080E00895BC01F2CF57
:104F70008091B3058823C9F18530C9F18091E8009B
:104F800083FD31C08091E80082FDEACF8091E80086
:104F900080FFE1CF8091F3002091F200382F61155E
:104FA000710519F02830310558F091E028303105AD
:104FB00009F090E08091E8008E778093E800CBCFF5
:104FC00084918093F1003196615071092F5F3F4FBA
:104FD000E6CF8091B305882341F0853041F0809180
:104FE000E80083FFBDCF81E0089582E0089583E06B
:104FF0000895982F973028F08F708093E90081E012
:1050000008959093E900242F762F50E0981731F0FF
:105010007091EC002091ED005091F00021FD02C054
:105020009F5FE8CF3091EB003E7F3093EB003091F3
:10503000ED003D7F3093ED003091EB003160309317
:10504000EB007093EC002093ED005093F000209162
:10505000EE0027FDE5CF80E008958091B40587FF3D
:1050600013C08091E80082FF06C08091E8008B7732
:105070008093E80004C08091B3058111F2CF0895B8
:105080008091B3058823D9F38091E80080FFF8CFA1
:105090008091E8008E77ECCF2091E4003091E5001C
:1050A00095E6A9012091EC00822F817020FF06C0B7
:1050B0008091E80080FF06C080E008952091E8001C
:1050C00022FD1AC08091B305882389F0853089F0CC
:1050D0008091EB0085FD0FC02091E4003091E50048
:1050E00042175307F9F29150E1F684E0089582E007
:1050F000089583E0089581E008950E94EB280E94BE
:10510000F328E0EEF0E0808181608083E8EDF0E05C
:1051100080818F77808319BCA7EDB0E08C918E7F62
:105120008C9380818F7E80831092B20508950F93B7
:105130001F93CF93DF930E94EB280E94F328C8EDC2
:10514000D0E088818F778883888180688883888190
:105150008F7D888319BC1092B3051092AF05109211
:10516000B1051092B00500EE10E0F80180818B7F50
:10517000808388818160888342E060E080E00E94D3
:10518000F927E1EEF0E080818E7F8083E2EEF0E0AF
:10519000808181608083808188608083F801808144
:1051A0008E7F8083888180618883DF91CF911F917A
:1051B0000F910895E8EDF0E080818F7E8083E7ED28
:1051C000F0E080818160808384E082BF81E0809311
:1051D000B2050C949728E8EDF0E080818E7F808303
:1051E0001092E20008951092DA001092E100089502
:1051F0001F920F920FB60F9211242F933F934F934C
:105200005F936F937F938F939F93AF93BF93EF932E
:10521000FF938091E10082FF0BC08091E20082FF4A
:1052200007C08091E1008B7F8093E1000E94622B98
:105230008091DA0080FF19C08091D80080FF15C0EE
:105240008091DA008E7F8093DA008091D90080FF10
:1052500096C080E189BD82E189BD09B400FEFDCF21
:1052600081E08093B3050E9453258091E10080FF87
:1052700019C08091E20080FF15C08091E2008E7F0E
:105280008093E2008091E20080618093E20080914F
:10529000D80080628093D80019BC85E08093B30564
:1052A0000E9465258091E10084FF2BC08091E2007F
:1052B00084FF27C080E189BD82E189BD89B5982F2F
:1052C000917080FFFBCF8091D8008F7D8093D800B4
:1052D0008091E1008F7E8093E1008091E2008F7EDB
:1052E0008093E2008091E20081608093E2008091EF
:1052F000AF05882309F449C084E08093B3050E9478
:1053000066258091E10083FF29C08091E20083FF40
:1053100025C08091E100877F8093E10082E0809347
:10532000B3051092AF058091E1008E7F8093E1007C
:105330008091E2008E7F8093E2008091E2008061A4
:105340008093E20042E060E080E00E94F9278091D3
:10535000F00088608093F0000E946425FF91EF9137
:10536000BF91AF919F918F917F916F915F914F917D
:105370003F912F910F900FBE0F901F90189519BC61
:105380001092B3050E94612570CF8091E30087FDE4
:1053900093E09093B305B3CF1F920F920FB60F9285
:1053A00011242F933F934F935F936F937F938F932A
:1053B0009F93AF93BF93CF93DF93EF93FF93D091DE
:1053C000E900DF708091EC00C82FC17080FDC0E85B
:1053D0001092E9008091F000877F8093F00078942C
:1053E0000E94102A1092E9008091F000886080935A
:1053F000F000CD2BCF70C093E900FF91EF91DF91CA
:10540000CF91BF91AF919F918F917F916F915F915C
:105410004F913F912F910F900FBE0F901F901895B5
:105420001F93CF93DF93CDB7DEB7AA970FB6F8944B
:10543000DEBF0FBECDBF84EB95E02091F100FC01F3
:105440002193CF01F5E08C3B9F07B9F70E947225AD
:105450008091E80083FF1EC18091B4059091B5054D
:105460009A3008F017C1E92FF0E0E25DF34D0C949B
:105470009E2B803899F0823809F00CC18091B805D4
:105480008F70873008F006C18093E9008091EB00AF
:1054900085FB882780F91092E90006C08091B0054D
:1054A0009091B105911182609091E800977F90935F
:1054B000E8008093F1001092F1008091E8008E776F
:1054C000E5C0882309F4D3C0823009F0E3C080919D
:1054D000B6058111D6C08091B8058F702FEF280FC7
:1054E000263008F0D7C08093E9002091EB0020FF20
:1054F000C8C0933031F48091EB0080628093EB0060
:10550000C0C09091EB0090619093EB0021E030E0FF
:1055100001C0220F8A95EAF72093EA001092EA0070
:105520008091EB008860EACF8111B4C01091B6057C
:105530001F778091E3008078812B8093E300809136
:10554000E800877F8093E8000E942D288091E80082
:1055500080FFFCCF8091E30080688093E30082E0CD
:10556000111183E08093B30595C08058823008F014
:1055700091C08091B6059091B7058C3D23E09207CC
:10558000A1F583E08A838AE289834FB7F894DE012C
:10559000139620E03EE051E2E32FF0E050935700F5
:1055A000E49120FF03C0E295EF703F5FEF708E2F14
:1055B00090E0EA30C0F0C7968D939D932F5F243121
:1055C00059F74FBF8091E800877F8093E8006AE237
:1055D00070E0CE0101960E943C278091E8008B7715
:1055E0008093E80057C0C096E7CF6091B8057091EE
:1055F000B905AE014F5F5F4F0E946826BC01892B41
:1056000009F448C09091E800977F9093E800898161
:105610009A810E949A27E1CF8038E1F58091E800D5
:10562000877F8093E8008091AF058093F10045CF9C
:10563000811130C09091B605923060F58091E800FC
:10564000877F8093E8009093AF050E942D2880917A
:10565000AF05882311F084E005C08091E30087FD49
:10566000FACF81E08093B3050E94682513C0809132
:10567000B605813079F481E0933009F080E08093C1
:10568000B1051092E9008091E800877F8093E800DF
:105690000E942D288091E80083FF0AC08091E800D5
:1056A000877F8093E8008091EB0080628093EB001D
:1056B000AA960FB6F894DEBF0FBECDBFDF91CF9193
:1056C0001F9108950895CF938091B3058823A1F089
:1056D000C091E900CF709091EC00892F817090FD0E
:1056E00080E8C82B1092E9008091E80083FD0E94B9
:1056F000102ACF70C093E900CF910895991B79E0EB
:1057000004C0991F961708F0961B881F7A95C9F751
:1057100080950895AA1BBB1B51E107C0AA1FBB1FA0
:10572000A617B70710F0A61BB70B881F991F5A952D
:10573000A9F780959095BC01CD010895EE0FFF1F4C
:105740000590F491E02D0994FB01DC0102C0059065
:105750000D9241505040D8F70895FB01DC0104C080
:105760008D910190801921F441505040C8F7881B59
:10577000990B0895F999FECF92BD81BDF89A9927AA
:1057800080B50895A8E1B0E042E050E00C94EE2B23
:10579000262FF999FECF92BD81BDF89A019700B4EA
:1057A000021639F01FBA20BD0FB6F894FA9AF99A8A
:1057B0000FBE08950396272F0E94C92B0E94C82B65
:1057C000252F0E94C92B242F0C94C92B0196272F1B
:1057D0000E94C92B0C94C82BDC01CB01FC01F99968
:1057E000FECF06C0F2BDE1BDF89A319600B40D922D
:1057F00041505040B8F70895F894FFCF550961091A
:105800006D09780981098C0993099D09AA09BD09C7
:10581000D909DD09E309E609E909EC09EF09E0091D
:10582000281A281A801A801A551A551A551A551A04
:10583000D21A5E1B6D1B6D1BC91B551A551AD21B44
:10584000341C341C3D1C3D1C3F1C3D1C3D1C3D1CA0
:10585000341C341C441C3D1C3D1C441C392A612A48
:105860004A2B612A4A2B942AB52A4A2B0C2B182B37
:1058700005019702000000019502970204980201B9
:1058800095029602000000049C02FFFF34043802D7
:10589000002E041E0200770F870F970F00000000F4
:1058A00000000000000000000000C801770F870F13
:1058B000970F000000000000000000000000000042
:1058C000C401770F870F970F000000000000000051
:1058D000000000000000C0010000D808920800008D
:1058E00000000000000000000000000000000000B8
:1058F0000809B008000000000000000000000000DF
:10590000A00000000000220999080000000000002B
:10591000000000000000AA00000000003A09A208F0
:1059200000000000000000000000000096000000E1
:10593000010039003B0045003A00440001FF00210E
:10594000007F2200035D0307250C250A250B255245
:105950002501F4F5F6F73133946697C60000000090
:10596000012900011C00010E00016C0002E0660329
:10597000E000015D004C617965723A00426974652E
:10598000206D652E00E200E900EA00B500B600B720
:1059900000CD008301CC008A0192019401210223F1
:1059A0000224022502260227022A02B300B4006F55
:1059B0000070008182830008101818100800E200AF
:1059C000E900EA00B500B600B700CD008301CC00C5
:1059D0008A01920194012102230224022502260257
:1059E00027022A02B300B4006F0070008182830096
:00000001FF
