:100000000C9485080C94CC080C94CC080C943B2FD1
:100010000C94CC080C94CC080C94CC080C94CC0810
:100020000C94CC080C94CC080C94411B0C94FD1A35
:100030000C945E2E0C94CC080C94CC080C94CC0838
:100040000C94CC080C94CC080C94CC080C94CC08E0
:100050000C94CC080C94CD160C94CC080C94CC08C1
:100060000C94CC080C94CC080C94CC080C94CC08C0
:100070000C94CC080C94CC080C94CC080C94CC08B0
:100080000C94CC080C94CC080C94CC080C94CC08A0
:100090000C94CC080C94CC080C94CC080C94CC0890
:1000A0000C94CC080C94CC080C94CC0820435250EF
:1000B00058002045434C4E00204D4C544E00204EDD
:1000C0004F524D0020574B4D4E00204456524B008E
:1000D00020434F4C45002051525459004C796F75C4
:1000E0007400290014001A000800150017002B6482
:1000F00004001600070009000A0002551D611B00DC
:1001000006001900050000000000000035002C006A
:100110002A4D2D00130012000C0018001C0034742E
:1001200033000F000E000D000B0012553871370020
:1001300036001000110000000000000018552800D3
:100140004C4E290014001A00090013000A002B6409
:100150000400150016001700070002551D611B0062
:1001600006001900050000000000000035002C000A
:100170002A4D2D0033001C0018000F000D003474B0
:1001800012000C00080011000B00125538713700E6
:10019000360010000E000000000000001855280076
:1001A0004C4E290034003600370013001C002B642D
:1001B00004001200080018000C00025533611400FE
:1001C0000D000E001B0000000000000035002C0098
:1001D0002A4D2D000F00150006000A000900347496
:1001E0001600110017000B00070012551D711900B1
:1001F0001A0010000500000000000000185528003B
:100200004C4E29001400070015001A0005002B644D
:10021000040016000B0017000A0002551D611B00A8
:1002200010000600190000000000000035002C003E
:100230002A4D2D0033001300180009000D003474FE
:100240000C001200080011001C0012553871370014
:1002500036000F000E0000000000000018552800B6
:100260004C4E290014001A00070009000E002B64F0
:1002700004001600080017000A0002551D611B004B
:1002800006001900050000000000000035002C00E9
:100290002A4D2D000E00090007001A0014003474C6
:1002A000180012000C0011001C00125538713700A4
:1002B0003600100013000000000000001855280050
:1002C0004C4E2900140013001C00060005002B648E
:1002D000040011000C0016000900025533613800BB
:1002E0000D000A00360000000000000035002C0060
:1002F0002A4D2D000F001D00180010001900347445
:100300001500120007001700070012551B712D0081
:100310000E001A00370000000000000018552800E9
:100320004C4E2900380036003700090014002B64B9
:100330000400120008000C00180002551D611B008B
:10034000060019001A0000000000000035002C0013
:100350002A4D2D0013001C000700150010003474F6
:10036000110016000E0017000A00125533710F001D
:100370000D000B00050000000000000018552800CB
:100380004C4E29001400090010000F001A002B64C5
:100390000700160017001100150002551D61190015
:1003A0000A0006001B0000000000000035002C00C1
:1003B0002A4D2D000D000500120018001C00347499
:1003C00033000B00080004000C0012553871370090
:1003D00036000E0013000000000000001855280031
:1003E0004C4E01000100010001000100010001006C
:1003F00001000100010001000100E1000100010015
:1004000001000100010000000000000001000100E7
:1004100001000100010001000100010001000100D4
:1004200001000100010001000100E50001000100E0
:1004300001000100010000000000000001000100B7
:1004400001000000000000000000000000000000AB
:10045000000000000000000000000000000000009C
:10046000000000000000000000000000000000008C
:10047000000000000000000000000000000000007C
:10048000000000000000000000000000000000006C
:10049000000000000000000000000000000000005C
:1004A000000000000000000000000000000000004C
:1004B000000000000000000000000000000000003C
:1004C000000000000000000000000000000000002C
:1004D000000000000000000000000000000000001C
:1004E000000000000000000000000000000000000C
:1004F00000000000000000000000000000000000FC
:1005000000000000000000000000000000000000EB
:1005100000000000000000000000000000000000DB
:1005200000000000000000000000000000000000CB
:1005300000000000000000000000000000000000BB
:1005400000000000000000000000000000000000AB
:10055000000000000000000000000000000000009B
:10056000000000000000000000000000000000008B
:10057000000000000000000000000000000000007B
:10058000000000000000000000000000000000006B
:10059000000000000000000000000000000000005B
:1005A000000000000000000000000000000000004B
:1005B000000000000000000000000000000000003B
:1005C000000044001E021F022002210222024500F8
:1005D0003A003B003C003D003E0001003F0040006F
:1005E0004100420043000000000000000100010043
:1005F00001004400270226022502240223023102C0
:1006000030022F022E022D02010001004F00520085
:100610005100500001000000000000000100010036
:10062000010001001E001F00200021002200010027
:1006300001000100010001000100010001000100B2
:1006400001000100010000000000000001000100A5
:1006500001000100270026002500240023003100AE
:1006600030002F002E002D00010001004D004B0036
:100670004E004A00010000000000000001000100DF
:1006800001000E5DC35CC55CC75CC95CC25C085DF3
:10069000285C205C1D5C1E5CFF5C145CC45CC65C5A
:1006A000C85CCA5C0F5D000000000000E85C175DDC
:1006B0000100005C155D145D135D125D115DDE5C73
:1006C0000C5D0B5D0A5D095DFE5C105DAB00A90071
:1006D000AA00A800145C000000000000EA5C0853B7
:1006E00001000001010101010101010102020202F8
:1006F00002020202020303030303030303040404CC
:100700000404040405050505050606060606070794
:1007100007070708080808090909090A0A0A0B0B4C
:100720000B0C0C0C0D0D0D0E0E0E0F0F0F101011EB
:100730001111121213131414151516161717181871
:1007400019191A1A1B1B1C1D1D1E1E1F20202122D9
:1007500022232424252626272829292A2B2C2D2D1F
:100760002E2F30313232333435363738393A3B3C3C
:100770003D3E3F404142434445464748494A4C4D2F
:100780004E4F50515354555658595A5B5D5E5F61F8
:100790006264656668696B6C6D6F7072737577788B
:1007A0007A7B7D7E8082838587888A8C8E8F9193E9
:1007B0009596989A9C9EA0A2A3A5A7A9ABADAFB110
:1007C000B3B5B7BABCBEC0C2C4C6C9CBCDCFD1D4F5
:1007D000D6D8DBDDDFE2E4E7E9EBEEF0F3F5F8FA9B
:1007E000FDFF0000000000003E5B4F5B3E003E6BE3
:1007F0004F6B3E001C3E7C3E1C00183C7E3C1800AB
:100800001C577D571C001C5E7F5E1C0000183C18A6
:100810000000FFE7C3E7FF00001824180000FFE70F
:10082000DBE7FF0030483A060E002629792926002A
:10083000407F05050700407F05253F005A3CE73C07
:100840005A007F3E1C1C0800081C1C3E7F0014221E
:100850007F2214005F5F005F5F0006097F017F0059
:10086000006689956A0060606060600094A2FFA2E3
:10087000940008047E04080010207E201000080860
:100880002A1C0800081C2A0808001E10101010005E
:100890000C1E0C1E0C0030383E383000060E3E0E8A
:1008A000060000000000000000005F0000000007DC
:1008B00000070000147F147F1400242A7F2A1200EE
:1008C00023130864620036495620500000080703CD
:1008D0000000001C224100000041221C00002A1CD4
:1008E0007F1C2A0008083E080800008070300000C5
:1008F00008080808080000006060000020100804D4
:1009000002003E5149453E0000427F4000007249CE
:10091000494946002141494D33001814127F100007
:100920002745454539003C4A4949310041211109D3
:100930000700364949493600464949291E0000004A
:1009400014000000004034000000000814224100A0
:10095000141414141400004122140800020159094F
:1009600006003E415D594E007C1211127C007F4909
:10097000494936003E41414122007F4141413E000C
:100980007F49494941007F09090901003E41415120
:1009900073007F0808087F0000417F41000020406D
:1009A000413F01007F08142241007F404040400049
:1009B0007F021C027F007F0408107F003E414141FE
:1009C0003E007F09090906003E4151215E007F0972
:1009D0001929460026494949320003017F010300D5
:1009E0003F4040403F001F2040201F003F40384014
:1009F0003F00631408146300030478040300615982
:100A0000494D4300007F414141000204081020008D
:100A1000004141417F000402010204004040404087
:100A200040000003070800002054547840007F284D
:100A300044443800384444442800384444287F0063
:100A400038545454180000087E0902001824241C4D
:100A500078007F080404780000447D4000002040B6
:100A6000403D00007F102844000000417F4000000E
:100A70007C04780478007C080404780038444444FA
:100A800038007C1824241800182424187C007C08C2
:100A90000404080048545454240004043F4424002F
:100AA0003C4040207C001C2040201C003C4030404A
:100AB0003C004428102844004C9090907C004464F2
:100AC000544C44000008364100000000770000004C
:100AD0000041360800000201020402003C262326E1
:100AE0003C000000000000000000000000000000CA
:100AF0000000C0E0F0F8F81800C0F0FCFEFFFFFFB7
:100B0000FFFFFFFF7E00000000000000000080C02B
:100B1000E0E0E0E0E0E0E0E0C0800000000080C055
:100B2000E0E0E0E0E0E0E0E0C080000000E0E0C005
:100B3000C0E0E0E0E00000E0E0C0C0E0E0E0E0E0D5
:100B4000C0800000000080C0E0E0E0E0E0E0E0E025
:100B5000C080000000000000000000000000000055
:100B6000E0F0F0F0E0ECEEF7F37020007C7C7C7EAF
:100B7000007E7E7E7F7F7F000080C0E07E5B4F5BDB
:100B8000FEC00000C000DCD7DEDEDED7DC00C00027
:100B90000000000000000000000000000000000055
:100BA0000000000000000000000000F8FCFEFFE074
:100BB00000FFFFFFFFFFFF80FFFFFFFFFFFFFFFFC3
:100BC000FF1F0701000000000000000000FFFFFF02
:100BD0008100000000000081C3C3C30000FFFFFFCD
:100BE0008100000000000081FFFFFF0000FFFFFF09
:100BF00001000000000000FFFFFF010000000001F5
:100C0000FFFFFF0000FFFFFF9D1C1C1C1C1C1C9D08
:100C1000DFDFDF0000000000000000000000000037
:100C20000F1F3F7F7F7F7F7F3F1E0C001F1F1F3FD7
:100C3000003F3F3F7F7F7F00307B7F783020203038
:100C4000787F3B0003000F7F0F0F0F7F0F00030023
:100C50000000000000000000000000000000000094
:100C60000000000000000000000000030F1F3F3FD5
:100C70003F3F1F1F3F3F7F7F7F3F3F1F3F7F7F7F64
:100C80007F7C7878381C0F00000000000000010312
:100C90000707070707070707030100000000010314
:100CA00007070707070707070301000000070707F3
:100CB000000000000000000707070000000000001F
:100CC00007070700000001030707070707070707D3
:100CD0000301000000000000000000000000000010
:100CE0000000000000000000000000000000000004
:100CF00000000000000000000000000000000000F4
:100D000000000000000000000000000000000000E3
:100D100000000000000000000000000000000000D3
:100D2000000000AF00DA02818FD9F1DB40A4A62ECB
:100D3000AF00A0C000A1C800AED580A81FD300405E
:100D40008D14200063726B62642F726576312F649C
:100D5000726173686E61204020302E372E31363834
:100D60002D33312D676661363639342D64697274DE
:100D7000792C204275696C74206F6E3A20323032C3
:100D8000302D30342D30372D30363A30333A34353B
:100D900000012800202D6A38202D2D6F7574707584
:100DA000742D73796E63003A666C617368006D61CF
:100DB0006B652063726B62642F726576313A647280
:100DC0006173686E610000AE530043004E00200066
:100DD0004C6F636B3A00204E4B524F0020009798A7
:100DE00000B7B800959600B5B600200042544D47B4
:100DF0004B00204E756B6500204C617972002041DC
:100E00006E696D00555345523A00204D6F64730072
:100E10005261697365004C6F776572004C415945AA
:100E20005200470041004300530020004D6F64739F
:100E30003A0005010980A10185031A81002A830077
:100E4000160100260300950175108100C0050C09EC
:100E500001A10185041A01002A9C02160100269CAA
:100E600002950175108100C005010906A1018505E3
:100E7000050719E029E7150025019508750181028C
:100E80000507190029EF1500250195F0750181026C
:100E9000050819012905950575019102950175034C
:100EA0009101C005010906A101050719E029E7150F
:100EB00000250195087501810295017508810105DC
:100EC00007190029FF150026FF0095067508810007
:100ED000050819012905950575019102950175030C
:100EE0009101C009023B00020100A0FA09040000C0
:100EF0000103010100092111010001224000070541
:100F00008103080001090401000103000000092118
:100F10001101000122710007058203200001120166
:100F2000100100000008EDFE603001000102030125
:100F30000403300000003C034400720061007300B1
:100F400068006E00610020004800610063006B00D3
:100F500065006400200043006F0072006E006500B1
:100F600020004B006500790062006F006100720094
:100F700064000000100366006F006F0073007400CF
:100F800061006E000000040309040000000000007E
:100F90000000000000000000000000000000000051
:100FA0000000000000000000000000000000000041
:100FB0000000000000000000000000000000000031
:100FC0000000000000000000000000000000000021
:100FD0000000000000000000000000000000000011
:100FE0000000000000000000000000000000000001
:100FF00000000000000000000000000000000000F1
:1010000000000000000000000000000000000000E0
:1010100000000000000000000000000000000000D0
:1010200000000000000000000000000101010101BB
:1010300001000101010100000000000000000000AB
:101040000000000001000100010101010101010196
:101050000101010101010101010101010101010180
:101060000101010101000000010100000000000079
:101070000000000000000000000000000000000070
:10108000000000000001010101000000000000005C
:1010900000002A2B280000000000000000000000D3
:1010A000000000000029000000002C1E3420212236
:1010B00024342627252E362D3738271E1F2021229F
:1010C000232425263333362E37381F040506070818
:1010D000090A0B0C0D0E0F10111213141516171808
:1010E000191A1B1C1D2F3130232D35040506070846
:1010F000090A0B0C0D0E0F101112131415161718E8
:10110000191A1B1C1D2F3130354C11241FBECFEF77
:10111000DAE0DEBFCDBF04B603FE27C080916507CD
:1011200090916607A0916707B09168078730904B50
:10113000A740B04BD1F41092650710926607109249
:1011400067071092680714BE84B7877F84BF0FB605
:10115000F894A89580916000886180936000109257
:1011600060000FBEE0E0F8E3099527E0A4E2B3E0F9
:1011700001C01D92A536B207E1F713E0A0E0B1E08F
:10118000E0E2F4E602C005900D92A432B107D9F76F
:101190000E948D2B0C94CE310C940000E8EDF0E011
:1011A00080818E7F80831092E2001092DA0010928C
:1011B000E100A0EEB0E08C9181608C9380818F770C
:1011C000808319BCA7EDB0E08C918E7F8C938081D9
:1011D0008F7E80831092330708952091E400309130
:1011E000E50095E6A9012091EC00822F817020FF97
:1011F00006C08091E80080FF06C080E0089520913D
:10120000E80022FD1AC080915807882389F08530B4
:1012100089F08091EB0085FD0FC02091E4003091B2
:10122000E50042175307F9F29150E1F684E0089582
:1012300082E0089583E0089581E00895EF92FF929F
:101240000F931F93CF937C018B010E94ED08C82F51
:10125000811117C08091E80085FD0BC08091E800E6
:101260008E778093E8000E94ED08882399F3C82FB9
:1012700008C0F70181917F018093F10001501109AD
:1012800049F78C2FCF911F910F91FF90EF90089508
:1012900080915A0787FF13C08091E80082FF06C043
:1012A0008091E8008B778093E80004C08091580714
:1012B0008111F2CF0895809158078823D9F3809146
:1012C000E80080FFF8CF8091E8008E77ECCF982F70
:1012D0009093E900242F762F50E0891731F0709118
:1012E000EC002091ED005091F00021FD07C09F5FC0
:1012F000973071F78093E90081E008953091EB0019
:101300003E7F3093EB003091ED003D7F3093ED0058
:101310003091EB0031603093EB007093EC00209340
:10132000ED005093F0002091EE0027FDE0CF80E02B
:101330000895CF92DF92EF92FF920F931F93CF9376
:10134000DF93C8EDD0E088818F7E8883E7EDF0E001
:1013500080818160808384E082BF81E08093330755
:1013600088818E7F888302EE10E0F801108210924F
:10137000DA0081EEC82ED12CF601108288818F7799
:10138000888388818068888388818F7D888319BC61
:10139000109258071092590710925707109256074B
:1013A00090EEE92EF12CF70180818B7F808388817C
:1013B0008160888342E060E080E00E946709F60176
:1013C00080818E7F8083F80180818160808380812D
:1013D00088608083F70180818E7F8083888180612F
:1013E0008883DF91CF911F910F91FF90EF90DF9055
:1013F000CF900895FC018091600790916107861756
:101400009707A0F06115710529F49091E8009E7787
:101410009093E80090E06115710551F4911108C0B6
:101420008091E80082FF34C080E00895BC01F2CFD3
:10143000809158078823C1F18530C1F18091E8007F
:1014400083FD30C08091E80082FDEACF8091E80002
:1014500080FFE1CF8091F3002091F200382F6115D9
:10146000710519F02830310558F091E02830310528
:1014700009F090E02091E8002E772093E800CBCF90
:1014800081918093F100615071092F5F3F4FE7CF49
:1014900080915807882341F0853041F08091E80021
:1014A00083FFBECF81E0089582E0089583E0089530
:1014B0000895809135070895AB01BC012FB7F894CA
:1014C0008091E8049091E904A091EA04B091EB04C2
:1014D0002FBF84179507A607B70738F0841B950B15
:1014E000A60BB70BBC01CD0108950197A109B10965
:1014F000F5CFCF92DF92EF92FF920F931F932FB70A
:10150000F8944091E8045091E9046091EA047091E4
:10151000EB042FBF6A017B01EE24FF248C0130E035
:1015200020E0C016D106E206F30650F0481B590B26
:10153000CA011F910F91FF90EF90DF90CF90089517
:1015400041505109F3CF209106022223C9F0209186
:10155000FB0427FF15C0E62FE695E695E695EE31EC
:10156000D8F4E80FF92FF11D677021E030E001C0D9
:10157000220F6A95EAF72095828128232283089515
:10158000FC01329608962191621303C0DF01119786
:101590001C92E817F907B9F7089520910602222353
:1015A000C1F02091FB0427FF14C0E62FE695E695D5
:1015B000E695EE31F8F4E80FF92FF11D677021E0A0
:1015C00030E001C0220F6A95EAF78281822B828384
:1015D0000895FC0132962FEF30E04191641751F0ED
:1015E0002F3F19F4411101C0232F3F5F3630A9F777
:1015F0002F3F09F40895820F911D27FD9A95FC0154
:101600006283089580910205882331F010920205CB
:101610001092E3041092E2040895809590910105E0
:1016200098239093010508951092DF041092DE0430
:101630001092DD0408958091DC0481111092DC0485
:101640000895E92FEE0FE90FEE0F8E0F982F977088
:1016500086958695869525E0829FF0011124E654B3
:10166000FB4F50E040E080E0219130E0092E02C0C5
:10167000369527950A94E2F721703327042E01C08E
:10168000220F0A94EAF7822B4F5F5F4F45305105D6
:1016900059F70895E92FEE0FE90FEE0F8E0F982FEF
:1016A000977041E001C0440F9A95EAF786958695B8
:1016B000869595E0899FF0011124E654FB4F30E0B8
:1016C00020E070E05191DF011197CB01022E02C0A2
:1016D000969587950A94E2F78170819585278423F2
:1016E00085278C932F5F3F4F2530310559F708959B
:1016F000282F8091D8049091D904A091DA04B09158
:10170000DB040097A105B10549F004C0B695A79583
:10171000979587952A95D2F78170089580E008956E
:101720002091B9049091880456E0291302C080E00A
:10173000089530E0529FF001539FF00D1124E757B8
:10174000FB4F7181761306C07081781303C07281DC
:10175000741304C02F5F3F4F2770E7CF81E00895D7
:10176000452B39F0682381E06F3F09F080E08170FC
:10177000089581E0FCCF8091B9049091880498137A
:1017800001C008958F5F8770FACF209106043091D1
:1017900007042817390771F0909307048093060413
:1017A000E091EC04F091ED04309721F00084F18594
:1017B000E02D099408952091040430910504281720
:1017C000390771F09093050480930404E091EC04D0
:1017D000F091ED04309721F00680F781E02D099417
:1017E0000895E091EC04F091ED04309721F0019020
:1017F000F081E02D099480E00895FA01811101C083
:10180000FB010994E8E5F3E081836083428333962A
:1018100093E0EA3FF907C1F70895FC01EE0FFF1FBF
:10182000E80FF91FE85AFC4F618340832283089533
:101830000C94020C0C940D0C0F9347FD4195E8E3BA
:10184000F0E0E41BF10947FDF395EE9FA001EF9F47
:10185000500D500D1124229FF001239FF00DF00D2B
:1018600011249A012E0F3F1FE22F2230310520F163
:10187000213E9EE1390730F5A901E5E056954795EF
:10188000EA95E1F798E0940FF1E0AF2FA90FBB279D
:10189000BB1FAD0155954795E42F449FD001459F4F
:1018A000B00DB00D11242A173B0770F49FEF940F71
:1018B0009F1758F7EFEFEF0F6E2F660F6E0F600F49
:1018C0000F9108959FEFE0CF4F3FB1F3F1E0F40F98
:1018D000EFCFAF92BF92CF92DF92FF920F931F9301
:1018E000CF93DF93362F472FE82FF0E0EE51F94FDB
:1018F00071110DC06491762F862FDF91CF911F91CA
:101900000F91FF90DF90CF90BF90AF900895C72FB9
:10191000D0E02491F22E022F10E056E0659FC00126
:101920001124EFEFF0E0BF010E943D31832F90E0E2
:10193000880F991F35E5369FD001379FB00D1124D0
:101940008A1B9B0B982F990F980F6F01CC1ADD0AF9
:10195000C09ED001C19EB00DD09EB00D11248B2F22
:10196000949FA0011124452F55276F01C41AD50A51
:10197000C09EA001C19E500DD09E500D11245F014C
:10198000A91AB108AC9E6001AD9ED00CBC9ED00CD3
:101990001124CD2CDD24EC19FD09E09FE001E19F2D
:1019A000D00DF09FD00D1124ED2F62307105A1F004
:1019B00048F46115710569F06130710589F0EB2F0C
:1019C000852F07C06430710571F088F066307105AD
:1019D000B1F76E2F722F91CFE22F2B2F8D2FF9CFD2
:1019E000E22F252FF6CFEB2F822F2D2FF2CF2B2F8B
:1019F0008F2DE52FEECF9091FB0492FF06C0282F8C
:101A000028712830F9F4877F846093FF06C0282F5F
:101A100028712831F1F4877E84612091FC0420FF35
:101A200006C0382F38713830D9F4877F816021FFA4
:101A300006C0282F28712831D1F4877E816194FD5A
:101A4000877E0895282F24712430F9F68B7F8860D3
:101A5000DCCF282F2471243101F78B7E8861DDCF04
:101A6000382F3171313019F78E7F8860E0CF282F01
:101A70002171213121F78E7E8861E1CFCF93DF93F1
:101A8000972F70E026E0929F600D711D1124FB01DD
:101A900030E3839FE00DF11D1124EE0FFF1FEE5187
:101AA000FF4FC591D491CE01C238D105B9F1E8F507
:101AB000C133D10509F499C050F5C932D10509F4F3
:101AC0008DC0CA32D10509F497C0C11542E5D407CB
:101AD00008F0B6C0C11521E5D20708F024C1C83E00
:101AE000D10508F09DC0C13ED10568F5C83AD105C1
:101AF00008F089C0C53AD10508F0EDC0C130D10564
:101B000011F1209709F443C02497E8F440C0C5338D
:101B1000D10509F45CC0C933D105B9F62091FB04A5
:101B2000237089F080EE90E00EC0C33ED10591F1A4
:101B300068F4C03ED105F9F0C23ED10531F62091DE
:101B4000FB0422FD20C0DF91CF910895C63ED10550
:101B500061F1C73ED10581F1C43ED10509F0B5CF91
:101B60002091FC0421FFEFCF8091FB0484FD0FC086
:101B700087EE90E0E8CF2091FB0420FD01C1309179
:101B8000FC0430FFE0CF83EE90E024FFDCCF90E058
:101B900080E0D9CF2091FB0422FDF5C03091FC04F8
:101BA00030FDC0CF24FFCFCFF2CF2091FB0423FF25
:101BB000CACF24FDECCFDCCF2091FB0423FDE6C08F
:101BC0003091FC0431FFEECF84EE90E0BCCF209149
:101BD000FB0425FFB8CF89E290E0B5CF2091FB044C
:101BE00025FFB1CF85E390E0AECF2091FB0426FF27
:101BF000AACF8AE290E0A7CF2091FB0426FFA3CFD3
:101C000081E390E0A0CFCF3BD10508F6C85AD0E0E1
:101C1000CC0FDD1FC351DD4F88819981946493CF30
:101C2000C11530E5D30708F062C0C11540E4D40700
:101C300008F059C0DA95C115DF4108F484CFA7CF69
:101C4000C11536E5D30718F5C11545E5D40708F0E9
:101C500080C0C11584E5D80708F076C09C2F969502
:101C60009695AE0143705527C115D34508F460C061
:101C700021E030E002C0220F331F4A95E2F740E234
:101C8000949FC0011124822B932B9A685CCFC115BD
:101C90003AE5D30778F4C11549E5D40708F063C0E5
:101CA000C11588E5D80708F472CF9C2F8827806F6C
:101CB000906A49CFCE0190568115904208F067CFC7
:101CC0008D2F8F710E94FB0C90E0982F882788271A
:101CD0009F718C2B46C0C55AD0E0C651DD4F88811C
:101CE00090E0906430CFCE019F70906A2CCF9E011F
:101CF000E4E036952795EA95E1F723708C2F8695D9
:101D00008695837030E2839FC0011124922BC370AB
:101D100021E030E002C0220F331FCA95E2F7822B88
:101D2000932B9C6810CF9C2F8827816F906A0BCFD4
:101D300021E030E002C0220F331F4A95E2F740E273
:101D4000949FC0011124EBCF9C2F8827846F906A49
:101D5000FACE8C2F0E94FB0C90E0982F88278827C2
:101D60009F719062F0CE8C2F8F700E94FB0C34E03C
:101D7000D695C7953A95E1F7CF709C2F9069E3CE41
:101D800089E390E0E0CE82EE90E0DDCE86EE90E05A
:101D9000DACEBF92CF92DF92EF92FF920F931F9312
:101DA000CF93DF938C01C090D804D090D904E090F9
:101DB000DA04F090DB048091E4049091E504A091B2
:101DC000E604B091E704C82AD92AEA2AFB2ACFE11F
:101DD000D0E0BC2ED701C6010C2E04C0B695A79545
:101DE000979587950A94D2F780FD0EC0219788F7C2
:101DF000B12C8B2DDF91CF911F910F91FF90EF9020
:101E0000DF90CF90BF900895B8018C2F0E943E0DB7
:101E1000019761F3EECFCF93DF93EC010E94C90EDF
:101E2000BE01DF91CF910C943E0D0E940B0F292F24
:101E30002F7092959F7092509E3078F4E92FF0E0C9
:101E4000E053FE4C0C945131803F19F020F4883E51
:101E500020F481E00895843FE1F380E00895883E16
:101E6000C0F3813FD1F7F5CF822F86958695869571
:101E700008951F93CF93DF9300D000D00F92CDB77A
:101E8000DEB749835A8389819A81662321F10E94B2
:101E9000C90E182F682F89819A810E944A0B8A8166
:101EA000E981F0E096E0899FE00DF11D112480E3C7
:101EB000189FE00DF11D1124EE0FFF1FEE51FF4F93
:101EC000859194910F900F900F900F900F90DF914C
:101ED000CF911F9108950E94210B182FE0CFCF932F
:101EE000DF93ACEDB2E040EE52E0C1E0D0E08D9186
:101EF000E82FE295EF70F0E061A18F709E0101C0C4
:101F0000220F8A95EAF7922F9095962391A382A1AA
:101F1000822B82A34A175B0751F7DF91CF91089577
:101F2000CF92DF92EF92FF920F931F93CF93DF93A5
:101F30006C017B0164E670E088E70E944E30EC01A2
:101F400097FD12C010E000E0F601E00FF11F849150
:101F500064E670E00E94AA30EC01892B29F40F5F3F
:101F60001F4F0E151F0581F70E942D31CE01DF9105
:101F7000CF911F910F91FF90EF90DF90CF90089538
:101F80008091FA04811108C062E070E082E29DE075
:101F90000E94900F892B19F08091FA04089581E036
:101FA0008093FA04F9CFCF93DF9300D00F92CDB78F
:101FB000DEB790915807943019F589837B836A8343
:101FC00082E08093E9008FEF9091E800815095FDC9
:101FD00006C095ED9A95F1F700008111F5CF80913B
:101FE000E80085FF0DC050E040E063E070E0CE0106
:101FF00001960E941E098091E8008E778093E80088
:102000000F900F900F90DF91CF9108952091580776
:10201000243021F4BC0184E00C94D30F0895BC015A
:102020006058710983E00C94D30FCF93DF93EC01D8
:10203000809158078430B9F5809106028823B1F168
:102040008091FB0487FF32C060E282E08093E90068
:102050008FEF9091E800815095FD06C095ED9A951F
:10206000F1F700008111F5CF8091E80085FF1BC0DA
:102070008091060270E050E040E0811104C050E021
:1020800040E068E070E0CE010E941E098091E80007
:102090008E778093E80080E2FE01A6E3B7E001902E
:1020A0000D928A95E1F7DF91CF91089568E081E084
:1020B000CDCF539A3BB1377F2BB128604FB7F894FF
:1020C00088E593E0FC015191CF0168E02BB9000055
:1020D00000C057FF3BB9550F000000C000C000C052
:1020E0003BB900C06A9591F7F3E08A3F9F0751F72B
:1020F0004FBF87EC90E00197F1F700C00000089512
:1021000080915203811111C08091D8008061809329
:10211000D8008AE18A95F1F700C09091D900892F03
:10212000817090FF82E08093520381E0909152038E
:10213000913009F080E008959F92AF92BF92CF92C4
:10214000DF92EF92FF920F931F93CF93DF938091D3
:102150002001C4E0D0E0882311F0D0E0C0E08CED95
:10216000C82E82E0D82EAE01485F5B4F7A018A010B
:10217000AA24A394B12C25E0922EF60181916F013F
:10218000E82FE295EF70F0E021A18F70A50102C069
:10219000440F551F8A95E2F7CA01922F982B91A3FD
:1021A00092A18095892382A350EA5A95F1F7E4EE33
:1021B000F2E020E050E040E03191A32FA295AF7013
:1021C000B0E090968C9190E03F7002C09595879515
:1021D0003A95E2F780FD39C0C501042E01C0880F91
:1021E0000A94EAF7282B4F5F5F4F4630510521F7DD
:1021F000F8018081821719F02083909200010E94DB
:102200006F0F0F5F1F4FF0EECF16F2E0DF0609F001
:10221000B4CF80910001882359F081508093000150
:102220008823A9F08FE99FE00197F1F700C0000033
:1022300081E0DF91CF911F910F91FF90EF90DF90A0
:10224000CF90BF90AF909F90089580E0CBCFC151C9
:10225000DB4FF70191917F0199938F5F8430C9F72C
:10226000E7CF5F926F927F928F929F92AF92BF92D1
:10227000CF92DF92EF92FF920F931F93CF93DF9352
:1022800060915303709154038091550390915603CC
:102290000E945C0AAB01BC019A018FB7F894C09010
:1022A000E804D090E904E090EA04F090EB048FBFDA
:1022B000C0925303D0925403E0925503F092560318
:1022C0008091720490917304A0917404B09175048C
:1022D0008F3FEFEF9E07AE07BE07C9F0662777274F
:1022E0004A015B0180949094A094B094881699065A
:1022F000AA06BB0608F079C08FEF9FEFDC01809340
:10230000720490937304A0937404B0937504609165
:102310004504E5E4F4E0462F50E0D901A095B095DE
:10232000651368C04093450480917D04182F137095
:1023300019F0182F169516959091F401913009F423
:1023400075C0992309F464C0923009F400C2933037
:1023500009F405C28091FD03882389F08091FA0376
:102360009091FB030E94790A2091210128171906F8
:1023700008F008C22F981092FD031092FC03809180
:102380005703811103C081E0809357038091FE04BD
:1023900080FF1BC080917D04869586958430A9F4CA
:1023A000609176047091770480917804909179041B
:1023B0000E945C0A69397A438105910530F0809169
:1023C0007D0483708C6080937D04DF91CF911F9199
:1023D0000F91FF90EF90DF90CF90BF90AF909F90C4
:1023E0008F907F906F905F900895840F951FA61F28
:1023F000B71F85CF818D928DA817B90720F4415062
:102400005F5F32968DCF820F931F928F818FF8CFAF
:1024100010920301C0926E04D0926F04E092700497
:10242000F092710481E08093F40194CF90910701C0
:1024300019131AC0982F93702091060130E081E0A3
:102440009217130609F480E0817080930501C09112
:102450000301123009F490C048F41123B1F1113096
:1024600009F461C080E045C081E0EECF133009F48B
:10247000C4C01430B9F79BE0C99FC02D11243BE0C4
:10248000732E7C0E072D90E3971508F400E3882344
:1024900061F040E060E080E00E94180CE5E1F4E0CB
:1024A00080E3DF011D928A95E9F7D0E0C02ED12CA0
:1024B00096E0692E2AEA522ECC15DD050CF4EFC009
:1024C00081E0BFE2B715A8F4CDCF882391F08BE06F
:1024D000C89FC02D11240BE00C0FF02E073310F015
:1024E000D6E3FD2ED0E0CF15B0F081E0063308F042
:1024F000B9CF909103019F5F9093030181112ACF7F
:1025000082E08093F40180910501811123CF1111A4
:1025100021CF83E088CF20E040E060E0CE010E9440
:102520001A0C2196E0CF8BE0C89FC02D11240BE040
:102530000C0FF02E073310F0B6E3FB2E60917E04F3
:1025400070917F04809180040E94690CE62ED72E42
:10255000C82ED0E0CF1548F6FE01E254FE4F808130
:1025600090910401892331F02C2D4E2D6D2DCE013B
:102570000E941A0C2196EECF8BE0C89FC02D11242B
:102580000BE00C0FE02E073310F0A6E3EA2ED090FC
:102590007F04C090800420918104F0E4FF2E3F2D41
:1025A000329F312D1124F32ED0E0CE1508F09DCFAF
:1025B000FE01E254FE4F8081909104018923D9F0FD
:1025C000FE01EE0FFF1FEE5DFE4F60A9F69EB0010B
:1025D0001124E5E075956795EA95E1F780917E0411
:1025E000680F7D2D8C2D0E94690C462F282F672F98
:1025F000CE010E941A0C2196D8CF8BE0C89FC02D27
:1026000011246BE0D62EDC0ECD2C96E39D1510F434
:1026100056E3C52E40916E0450916F0420918104C1
:10262000269590E080E0429F812D529F800D911D64
:102630001124B82ED0E0CE01880F991FDC01AE5DC9
:10264000BE4F7D01CC1530F081E035E33D1508F03B
:1026500050CF08CFFE01E254FE4F808190910401DB
:102660008923C1F0F70121A92052330B40A940571B
:10267000550B60917E0470917F04809180040B2D36
:102680000E941C0C0E94690C462F282F672FCE0138
:102690000E941A0CF2E0EF0EF11C2196D3CF4E01EE
:1026A000B7E08B2299245E0183E0B594A7948A95C4
:1026B000E1F7689CC001699C900D1124FC01EB5E60
:1026C000FB4FEA0DFB1D00818E5D9E4FFC01EA0D64
:1026D000FB1D80818F3F51F1E82EF12CF701E25470
:1026E000FE4F808190910401892301F1202F35E56F
:1026F000231B08F420E0652D621B70917F04252DBB
:10270000200F08F42FEF30918004822F880F820F62
:102710008E5F282F239F212D1124822F0E94690C68
:10272000462F282F672FC7010E941A0C31E0031B88
:1027300008F400E0689CC001699C900D11248B5E38
:102740009B4FA80EB91ED5010C932196B5CE1093C0
:1027500007018370809306010E945910DACE6091C0
:102760006E0470916F0480917004909171040E94C6
:102770005C0A603171058105910508F4EBCD10927A
:10278000F401E8CD2091110422FFF9CD9091FC03D2
:1027900082FD07C09111F3CD81E08093FC032F9A55
:1027A000EECD992309F4EBCD1092FC032F98E7CDE1
:1027B000AB01BC0188E190E00C94BC31E0E1F4E0B5
:1027C0008081887F81608083A1E1B4E08C918770F3
:1027D00080668C93A2E1B4E08C918C7F8C936081B5
:1027E0007181828193810C94D813E0E1F4E08081BF
:1027F0008E7F808360817181828193810C94D81354
:10280000E0E1F4E080818160808360817181828178
:1028100093810C94D813CF9384E090E00E9486318A
:10282000C82F81E290E00E948631982F8C2FCF91A3
:10283000089590E080E00E94943121E08733934135
:1028400009F020E0822F08951F93CF93DF93162F76
:102850008A3031F481E0DF91CF911F910C943715CC
:102860008D3011F480E0F7CFC091F704D091F804D7
:1028700096E0FE01AEEFB3E001900D929A95E1F77C
:10288000803EA8F186E0FE0111928A95E9F7C09199
:10289000F704D091F804111136C046E050E0BE01B3
:1028A0008EEF93E00E946031C452D5409E012A5FB2
:1028B0003F4F892B99F54091F904642F70E0C901CD
:1028C0000E943D31481B463010F4240F311D211564
:1028D00082E0380710F030E020E02C5D3A4F309372
:1028E000F8042093F704DF91CF911F910895F6E04B
:1028F0008F9FB00111246E51784F46E050E0CE0119
:102900000E945731C4CF9E012A5F3F4FFE012E1710
:102910003F0719F2808180958193F9CF85E0D695A4
:10292000C7958A95E1F741E050E0CA0102C0880FDF
:10293000991FCA95E2F76091260770912707862BA9
:10294000972BB901E5E076956795EA95E1F702C026
:10295000440F551F6A95E2F7842B952B9093270718
:1029600080932607A8CF1F93CF93DF93EC01162FF8
:10297000FE018491811104C0DF91CF911F910895D0
:10298000612F0E9424142196F3CF60E08CED90E03B
:102990000E94B3148091E4049091E504A091E604B0
:1029A000B091E704AD0166277727E0E041155105B6
:1029B0006105710519F0DB01CA01E0E1492F5A2FC9
:1029C0006B2F7727411551056105710519F0E85FF7
:1029D000DB01CA01AC01BD01F4E07695679557951E
:1029E0004795FA95D1F7411551056105710519F023
:1029F000EC5FDB01CA01AC01BD0132E07695679561
:102A0000579547953A95D1F74115510561057105DF
:102A100019F0EE5FDB01CA01B695A79597958795EA
:102A2000892B8A2B8B2B09F0EF5FE830F8F4F0E06C
:102A3000E252FE4C60E00C94513186ED90E00C9433
:102A4000B31480ED90E0FBCF8AEC90E0F8CF84ECFB
:102A500090E0F5CF8EEB90E0F2CF88EB90E0EFCFF7
:102A600082EB90E0ECCF8CEA90E0E9CF0895CF9331
:102A7000382FE091F704F091F804E452F5402091EA
:102A8000F904622F70E0CF010E943D31281B822F94
:102A9000332369F066E00E943131C82FC15010F431
:102AA000CF91089560E080E20E942414F7CF9F0147
:102AB000280F311D2115324018F080E0F0E0E0E0F1
:102AC0008E0F9F2F911D8C5D9A4F9093F8048093E9
:102AD000F704E6CF45E050E06CE170E08DE794E06C
:102AE0000C949A3180917D04982F969596959F5FCE
:102AF0009F738370953048F4990F990F892B8093B9
:102B00007D041092F4010C946A158460F8CF8091D2
:102B10007D04845080937D04982F9C7F21F48370E2
:102B2000806180937D041092F4010C946A15EDE7A6
:102B3000F4E08181885F81830C946A15EDE7F4E00D
:102B40008181885081830C946A15EDE7F4E022813D
:102B500038E0230F08F42FEF22830C946A15EDE779
:102B6000F4E0228138E0231B08F420E022830C9457
:102B70006A152091800435E0230F08F42FEF2937E0
:102B800020F4209380040C946A1588E780938004D5
:102B9000FACFEDE7F4E0238135E0231B08F420E0D1
:102BA00023830C946A15EDE7F4E024813AE0230FC7
:102BB00008F42FEF24830C946A15EDE7F4E02481E8
:102BC0003AE0231B08F420E024830C946A15EDE717
:102BD000F4E085E080838091070290910802A09143
:102BE000090281839283A3838FE784830C946A15FF
:102BF000EF92FF920F931F93CF93DF938091030582
:102C0000882309F494C00E949C1080912001C4E0A4
:102C1000D0E0882311F0D0E0C0E0C151DB4F44E0A8
:102C200050E0BE018EE493E00E9460317C01888117
:102C30009981AA81BB8180934E0390934F03A09307
:102C40005003B093510380912001D0E0C0E088236D
:102C500011F0C4E0D0E0909102018091010110E0F8
:102C600000E0981759F082E090E00E94CA2F8C0192
:102C7000892B21F480910101809302018091460308
:102C800090914703E82AF92A90E080E0EF2811F0BC
:102C900081E090E00E94CA2F892B31F58091490391
:102CA000809301011092470310924603011511050C
:102CB00011F10230110509F428985D9880914803BC
:102CC0008F5F80934803863040F180912001F0E0CF
:102CD000E0E0882311F0E4E0F0E0E151FB4F1082E6
:102CE00011821282138219C081E090E09093470311
:102CF00080934603DBCF289AC151DB4F80914A0372
:102D000090914B03A0914C03B0914D03888399831C
:102D1000AA83BB835D9A109248030E94311181E01F
:102D2000DF91CF911F910F91FF90EF9008950E9436
:102D30009C1080912001E4E0F0E0882311F0F0E0A5
:102D4000E0E0E151FB4F30E090E080E0DC01A65B89
:102D5000BC4F4C912191421331E02C930196843069
:102D60009105A1F720914903230F20934903209156
:102D70002001211102C090E080E081519B4F4091E1
:102D80004E0350914F036091500370915103FC0129
:102D90004083518362837383C0CF78941F921FB6A0
:102DA0001F9211248F939F93AF93BF938091E80458
:102DB0009091E904A091EA04B091EB040196A11D61
:102DC000B11D8093E8049093E904A093EA04B093C2
:102DD000EB04BF91AF919F918F911F901FBE1F90E9
:102DE00018952FB7F8948091E8049091E904A09188
:102DF000EA04B091EB042FBF0895CF93DF930E94B4
:102E0000F116C091E204D091E3048C179D0758F0AD
:102E10000E94F1169C012C1B3D0B81E0283B3B409E
:102E200060F480E00AC00E94F116C095D095C80FEA
:102E3000D91F81E0C83BDB40A0F3DF91CF9108951B
:102E4000809101059091E104892B9091E004892BF8
:102E500080932603809102058823E9F00E94FD16E5
:102E600081110E94020B8091260390910205892B0B
:102E70008093260380910602882341F18091FB0410
:102E800087FF24C08EE1E8E2F3E090E0815000F596
:102E900091110E94020BE091EC04F091ED04309747
:102EA000E1F080910602882359F08091FB0487FFAE
:102EB00007C0809126038093270385E08093260333
:102EC0000280F381E02D86E293E0099486E0DBCF77
:102ED00021912223D9F29F5FD9CF08951092E10466
:102EE0001092E0040E94201790E080E00E94DB0B2B
:102EF00090E080E00C94C50B0F931F938B019C0115
:102F000000271076222733270115104621053105A9
:102F100069F470686093D8047093D9048093DA04DC
:102F20009093DB041F910F910C946E177F77F2CF73
:102F30000F931F9341E050E060E070E004C0440F45
:102F4000551F661F771F8A95D2F7CB01BA0160958E
:102F50007095809590950091D8041091D904209196
:102F6000DA043091DB0460237123822393231F91C1
:102F70000F910C947C179091DF04809589238093A6
:102F8000DF04282F277071F4282F082E000C330B34
:102F90009217130639F08595859585950E949817A7
:102FA0000C94140B08950F931F9341E050E060E0E0
:102FB00070E004C0440F551F661F771F8A95D2F733
:102FC0008091D8049091D904A091DA04B091DB04E7
:102FD0008A019B01082B192B2A2B3B2BC901B80115
:102FE0001F910F910C947C1798E0899F90011124F8
:102FF000622B6093DF040E94D3170E94F116909316
:10300000DE048093DD0408956093E4047093E50486
:103010008093E6049093E7040C946E17CF93DF93AC
:10302000C1E0D0E002C0CC0FDD1F8A95E2F76C2F23
:1030300083E090E00E94AA31BE0190E080E0DF9141
:10304000CF910C9404181092010580910602E8E2D9
:10305000F3E0882359F08091FB0487FF07C08EE1DD
:10306000DF011D928A95E9F70C946E1786E0F8CF80
:103070001F93CF93DF93CDB7DEB7AA970FB6F8941F
:10308000DEBF0FBECDBF8AE597E02091F100FC01C5
:103090002193CF01F7E082369F07B9F780915B0754
:1030A000833009F46FC0B8F4813009F446C082302F
:1030B00009F4B0C08091E80083FF87C280915A076D
:1030C00090915B079A3008F080C2E92FF0E0EA5156
:1030D000FE4C0C9451318A3009F48BC08B3009F4CA
:1030E0006EC0893039F780915A07813219F7809183
:1030F0005E0790915F070297E8F68091E800877F6E
:103100008093E8008091E80082FF37C09091F3003F
:103110008091F200029729F48091F1008B7F813039
:1031200021F48091F100809335078091E8008B773E
:103130008093E8000E944809BDCF80915A07813AE8
:1031400009F0B8CF8091E800877F8093E8008091F4
:103150005E0790915F07892B61F460E286E397E058
:1031600070E00E94FA098091E8008B778093E80074
:10317000A1CF60E090E080E0F3CF8091580781110B
:10318000C1CF98CF80915A07813A09F093CF8091AF
:103190005E0790915F07892B09F08CCF8091E80042
:1031A000877F8093E8008091E80080FFFCCF8091CA
:1031B00006028093F1008091E8008E77B9CF80916C
:1031C0005A07813209F076CF80915E0790915F07B0
:1031D000892B09F06FCF8091E800877F8093E8000A
:1031E0000E94480980915C07809306020E94231880
:1031F00061CF80915A07813209F05CCF8091E8005D
:10320000877F8093E8000E94480980915D07809342
:10321000340750CF80915A07813A09F04BCF809103
:10322000E800877F8093E8008091E80080FFFCCF72
:1032300080913407BECF803899F0823809F0C5C13B
:1032400080915E078F70873008F0BFC18093E900DE
:103250008091EB0085FB882780F91092E90006C079
:103260008091560790915707911182609091E800E4
:10327000977F9093E8008093F1001092F100809185
:10328000E8008E779EC1882309F48CC1823009F052
:103290009CC180915C0781118FC180915E078F7006
:1032A0002FEF280F263008F090C18093E90020917D
:1032B000EB0020FF81C1933031F48091EB008062FC
:1032C0008093EB0079C19091EB0090619093EB00BB
:1032D00021E030E001C0220F8A95EAF72093EA004E
:1032E0001092EA008091EB008860EACF81116DC1F5
:1032F00010915C071F778091E3008078812B809389
:10330000E3008091E800877F8093E8000E944809ED
:103310008091E80080FFFCCF8091E300806880937B
:10332000E30082E0111183E0809358074EC180587A
:10333000823008F04AC180915C0790915D078C3D16
:1033400023E09207A1F583E08A838AE289834FB75D
:10335000F894DE01139620E03EE051E2E32FF0E026
:1033600050935700E49120FF03C0E295EF703F5F58
:10337000EF708E2F90E0EA30C0F0C7968D939D934A
:103380002F5F243159F74FBF8091E800877F8093EA
:10339000E8006AE270E0CE0101960E94FA0980918D
:1033A000E8008B778093E80010C1C096E7CF40918A
:1033B0005E0750915F07292F33272330310509F429
:1033C00045C078F52130310509F47BC08BE390E0EE
:1033D000E3EEFEE02230310509F0F7C02091E8006D
:1033E000277F2093E80020916007309161078217C2
:1033F000930708F49C0140E02115310509F070C0E5
:1034000041116EC08091E80082FDC9CF80915807BC
:10341000882329F2853019F28091E80083FFF2CFEA
:10342000BECF2132310509F440C02232310509F006
:10343000CCC04115510509F44EC04130510509F089
:10344000C4C081E790E0E2E3FEE0C8CF9927813075
:103450009105D9F0009771F082309105F1F0039752
:1034600009F0B3C0E0E3FFE0E4918E2F90E0E0E3E9
:10347000FFE007C0E6E8FFE0E4918E2F90E0E6E889
:10348000FFE0009709F4A1C0A9CFE4E7FFE0E491D1
:103490008E2F90E0E4E7FFE0F4CFE6E3FFE0E49175
:1034A0008E2F90E0E6E3FFE0ECCF4115510571F07F
:1034B0004130510509F089C089E090E0EEE0FFE07D
:1034C0008DCF82E190E0EEE1FFE088CF89E090E0EF
:1034D000E5EFFEE083CF80E490E0E3EAFEE07ECF1C
:1034E00080915807882309F45ACF853009F457CFC3
:1034F0008091E80083FD53CF8091E80082FD82CF68
:103500008091E80080FF78CF9091F3008091F200E5
:103510002115310519F08830910550F041E00897E8
:1035200009F040E08091E8008E778093E80064CF56
:1035300044914093F1003196215031090196E8CF32
:10354000803809F042C08091E800877F8093E800CE
:10355000809159078093F10092CE811136C010916D
:103560005C07123090F58091E800877F8093E80037
:10357000109359070E944809112311F084E005C0F7
:103580008091E30087FDFACF81E08093580742E005
:1035900061EC81E00E94670942E261EC82E00E94F6
:1035A000670913C080915C07813079F481E0933022
:1035B00009F080E0809357071092E9008091E800BD
:1035C000877F8093E8000E9448098091E80083FF8C
:1035D0000AC08091E800877F8093E8008091EB002B
:1035E00080628093EB00AA960FB6F894DEBF0FBE00
:1035F000CDBFDF91CF911F9108951F920F920FB60B
:103600000F9211242F933F934F935F936F937F9368
:103610008F939F93AF93BF93CF93DF93EF93FF93DA
:10362000D091E900DF708091EC00C82FC17080FD5F
:10363000C0E81092E9008091F000877F8093F0004D
:1036400078940E9438181092E9008091F000886008
:103650008093F000CD2BCF70C093E900FF91EF91E4
:10366000DF91CF91BF91AF919F918F917F916F919A
:103670005F914F913F912F910F900FBE0F901F9030
:1036800018951F920F920FB60F9211242F933F930C
:103690004F935F936F937F938F939F93AF93BF935A
:1036A000EF93FF938091E10082FF09C08091E200D7
:1036B00082FF05C08091E1008B7F8093E1008091C3
:1036C000DA0080FF24C08091D80080FF20C0809164
:1036D000DA008E7F8093DA008091D90080FF9FC04E
:1036E00080E189BD82E189BD09B400FEFDCF81E0A2
:1036F0008093580780913307811109C00E94CE083A
:103700000E9499098091E20084608093E200809198
:10371000E10080FF17C08091E20080FF13C080911C
:10372000E2008E7F8093E2008091E20080618093CE
:10373000E2008091D80080628093D80019BC85E0B7
:10374000809358078091E10084FF2DC08091E200B2
:1037500084FF29C080E189BD82E189BD89B5982FA8
:10376000917080FFFBCF8091D8008F7D8093D8002F
:103770008091E1008F7E8093E1008091E2008F7E56
:103780008093E2008091E20081608093E20080916A
:103790005907882309F449C084E0809358070E94A0
:1037A00023180E94F10B8091E10083FF27C08091D4
:1037B000E20083FF23C08091E100877F8093E100D6
:1037C00082E080935807109259078091E1008E7F24
:1037D0008093E1008091E2008E7F8093E2008091EF
:1037E000E20080618093E20042E060E080E00E94BD
:1037F00067098091F00088608093F000FF91EF915D
:10380000BF91AF919F918F917F916F915F914F91F8
:103810003F912F910F900FBE0F901F90189519BCDC
:10382000109258071092330772CF8091E30087FD02
:1038300093E090935807B3CF882341F080959091FF
:10384000E10489238093E1040C94201708958823D0
:1038500039F09091E104982B9093E1040C94201797
:103860000895882321F00E940D0B0C9420170895D1
:10387000882339F090910105982B909301050C94C1
:1038800020170895882341F19CEF980F913A38F45E
:10389000682F86E293E00E94A30A0C94201790E21E
:1038A000980F983050F4877091E001C0990F8A9575
:1038B000EAF7892F0E940D0BF0CF9BE5980F93300C
:1038C00020F490E080E00C94DB0B885A873120F4E0
:1038D00090E080E00C94C50B08958823A1F19CEF43
:1038E000980F913A38F4682F86E293E00E94CD0A4F
:1038F0000C94201790E2980F983068F4877021E0BC
:1039000030E001C0220F8A95EAF780910105822BF1
:1039100080930105EDCFEBE5E80FE33038F4F0E0FC
:10392000E651FD4F808190E00C94DB0B885A873183
:1039300050F4E82FF0E0EE0FFF1FE351FD4F8081C0
:1039400091810C94C50B0895FF920F931F93CF9311
:10395000DF938C01F8012491222309F473C0E8015C
:103960002196213049F4FE011491812F0E946D1C93
:10397000812F0E94421C06C0223031F5FE01849145
:103980000E946D1C8E010F5F1F4F8FE99FE0019712
:10399000F1F700C00000EFE9FFE03197F1F700C058
:1039A00000008FE99FE00197F1F700C00000EFE908
:1039B000FFE03197F1F700C000008FE99FE0019729
:1039C000F1F700C00000C6CF233019F4FE01849146
:1039D000D0CF30E0F901E657FF4ED491F901E65F10
:1039E000FF4EF490F901E657F04FC491FF2019F013
:1039F00081EE0E946D1CCC2319F086EE0E946D1C96
:103A00008D2F0E946D1CD933C1F4FFEF27EE83E0A8
:103A1000F15020408040E1F700C000008D2F0E944F
:103A2000421CCC2319F086EE0E94421CFF2019F0A4
:103A300081EE0E94421CE801A5CFEFE1FEE4319740
:103A4000F1F7EACFDF91CF911F910F91FF90089589
:103A50008091110482FD04C09091FD03911112C068
:103A600082FF04C08091FC0381110CC081E080932F
:103A7000FD038093FC030E94F1169093FB03809357
:103A8000FA032F9A0895CF93DF9382E084BD93E0E9
:103A900095BD9AEF97BD80936E008EE090E00E94F6
:103AA000863191E0811101C090E0909320010E9445
:103AB000801063E070E0882309F427C188E091E07A
:103AC0000E94E82E78940E946F0FA4EEB2E04AEEB6
:103AD00052E0C1E0D0E08D91E82FE295EF70F0E088
:103AE00061A18F709E0101C0220F8A95EAF7922F83
:103AF0009095962391A382A1822B82A34A175B07FC
:103B000051F7559A209A5D9A289AEFEEF4E0A8E0D2
:103B1000B4E011921D9224E0E73FF207D1F70E9432
:103B20008010809303050E941914811102C00E9425
:103B30008D1E109245048FEF9FEF90935F0480934A
:103B40005E04909361048093600490936304809377
:103B50006204909365048093640490936704809357
:103B60006604909369048093680490936B04809337
:103B70006A0490936D0480936C040E94191481115F
:103B800004C00E948D1E0E94E71545E050E06CE1E4
:103B900070E08DE794E00E94763180917D048C7F07
:103BA00011F40E94E71580912A07816080932A070B
:103BB0000E941914811102C00E948D1E88E190E0BC
:103BC0000E948E316093100470931104809312044C
:103BD00090931304262F269526952695972F872FA9
:103BE00083708295880F807E822B39F467706860BD
:103BF000609310049C7F90931104279A0E94281DC3
:103C000080912001811109C082EDEAE0F2E0A2E298
:103C1000B1E001900D928A95E1F783E0809324074B
:103C200080E28093F9040E9448306DE070E087E301
:103C30009DE00E94900F892B79F58091240763E025
:103C400070E081FD67C084E39DE00E94900F892BA6
:103C500019F56DE070E084E29DE00E94900F892BE1
:103C6000D9F4E4E2F5E080E092E0DF019C011D92EE
:103C700021503040E1F7F093F804E093F7048FEF20
:103C80009FEF909327078093260781E08093280772
:103C90008093FA04109225070E941914811102C022
:103CA0000E948D1E82E090E00E94863180932A0758
:103CB0000E940B149093FC048093FB0483E090E03B
:103CC0000E948631682F70E090E080E00E94041826
:103CD0006091FB0460686093FB04C091FC0484E085
:103CE00090E00E94AA316C2F81E290E00E94AA31FC
:103CF0008091FE0480FF06C080917D0483708C60FB
:103D000080937D04DF91CF91089588E091E00E9437
:103D1000F12ED8CE81E39DE098CF67E373E190E088
:103D200080E00E94C83160E082E090E00E94AA3109
:103D300060E083E090E00E94AA311092E4041092C7
:103D4000E5041092E6041092E70460E084E090E05D
:103D50000E94AA3160E081E290E00E94AA3160E016
:103D600085E090E00E94AA3160E086E090E00E9449
:103D7000AA316FEF87E090E00E94AA3140E050E066
:103D8000BA0188E090E00E94BC3160E08DE090E0F4
:103D90000E94AA3140E050E0BA0188E190E00E9420
:103DA000BC3160E087E190E00E94AA3140E050E041
:103DB000BA018CE190E00E94BC3160E080E290E0CA
:103DC0000E94AA3140E050E0BA018FE090E00E94EA
:103DD000BC311092FD041092FE041092FF04109268
:103DE000000580E081608093FD044091FD045091C6
:103DF000FE046091FF047091000583E190E00E9451
:103E0000BC3162E08CE090E00E94AA310C94431D2A
:103E10003F924F925F926F927F928F929F92AF925A
:103E2000BF92CF92DF92EF92FF920F931F93CF93A7
:103E3000DF938C01DC0113964D915C9114971196E0
:103E40006C9111978C910E94B00B81110C945828A1
:103E5000F801408151816281738184810E94390F10
:103E6000EC01D80112968C91C63EBCE5DB0709F047
:103E7000A4C081110E940014D80112968C91C93EF1
:103E8000BCE5DB0709F0A1C081110E94DE13F80137
:103E90008281CC3EFCE5DF0709F0BCC0882341F1FC
:103EA00020911004322F3695369536959091110455
:103EB000892F83708295880F807E832B8F5F382FA8
:103EC000330F330F330F2770232B20931004829569
:103ED000869583709C7F892B8093110460911004D8
:103EE0007091110480911204909113040E94D813D0
:103EF000D80112968C91C23FBCE5DB0709F0BCC02B
:103F0000882381F180911104982F96959695969526
:103F10008091120483708295880F807E892B843073
:103F200008F463C1815080932101282F220F220FB2
:103F3000220F909111049770922B90931104829507
:103F400086958370909112049C7F892B8093120434
:103F500060911004709111048091120490911304E7
:103F60000E94D8138091100480FF47C1D801129697
:103F70009C91992309F446C186958370823008F498
:103F80003AC1F80181812081F6E08F9FC0011124A0
:103F90008E5D9E4F820F911DDC01FC90BFEFE12CE6
:103FA000FB1611F0EE24E394109272041092730445
:103FB000109274041092750428C1C73EECE5DE0728
:103FC00009F088C081110E94F513F8018281CA3E70
:103FD000FCE5DF0709F095C08823E1F0909110041B
:103FE000892F86958F5F8370880F997F892B8093A7
:103FF0001004982F9670963019F4897F80931004DE
:104000006091100470911104809112049091130436
:104010000E94D813D80112968C91CD3EBCE5DB07E7
:1040200009F08BC0882341F120911004322F36957E
:104030003695369590911104892F83708295880F5B
:10404000807E832B8150382F330F330F330F27702F
:10405000232B209310048295869583709C7F892B57
:1040600080931104609110047091110480911204E6
:10407000909113040E94D813F8018281CF3EFCE591
:10408000DF0709F092C0882309F46CCF80911204F5
:10409000982F969596959695809113048295880F02
:1040A000807E892B883708F0A2C0865F282F220FD8
:1040B000220F220F909112049770922B909312046A
:1040C00082958695877090911304987F892B8093B1
:1040D00013043ECFC83EFCE5DF0709F0CDCE8823B0
:1040E00081F08091100480FF7BC00E94F5136091E5
:1040F00010047091110480911204909113040E9495
:10410000D813D80112968C91CB3EBCE5DB0709F0A1
:10411000BECE882391F090911104892F8B7F92FF5E
:104120008460809311046091100470911104809157
:104130001204909113040E94D813F8018281C13FA8
:10414000FCE5DF0709F0D4CE882379F180911104D2
:10415000982F9695969596958091120483708295E6
:10416000880F807E892B8436F0F58F5F8093210144
:10417000282F220F220F220F909111049770922B5B
:1041800090931104829586958370909112049C7F80
:10419000892B809312046091100470911104809116
:1041A0001204909113040E94D813D80112968C9196
:1041B000C03FBCE5DB0709F0D5CE882309F4D2CE99
:1041C00080911204982F9695969596958091130458
:1041D0008295880F807E892B843158F08A5066CF73
:1041E0000E94001484CF81E0C1CF84E69CCE88E792
:1041F0005DCF84E15BCF0E94281DF8018281882376
:1042000019F0BFCE8670B9F7E12C70904504CE2C22
:10421000D12CC601870D911D099764F188E090E0CB
:104220005C01AC18BD08B6016A5B7B4FA50186E452
:1042300094E00E946D31B601625B7B4FA5018EE474
:1042400094E00E946D31A501440F551FB601660F21
:10425000771F625A7B4F8EE594E00E946D31B60164
:104260006A5A7B4FA50186E594E00E946D317A94ED
:10427000709245048091450490E02F2D30E0A90113
:10428000440F551F4E5A5E4F220F331FB9016D5A0E
:104290007E4F21E0280F9E1508F46FC080934504DF
:1042A00030917D043C7F303109F0B4C0F801D180F9
:1042B0009081CC24CA94CD0C61E06D0DAFEFA90FB5
:1042C00081E0890FED2CF12CA91778F426E02E9DC2
:1042D000F0012F9DF00D1124EB5EFB4FEA0FF11D55
:1042E0002081230F08F42FEF2083292F30E056E0A0
:1042F0005E9DF0015F9DF00D1124AF014B5E5B4FA1
:104300005A017A01E20EF31EF7015081B0E24B2F01
:10431000540F08F45FEF5083863050F4F501E80F36
:10432000F11D5081B0E14B2F540F08F45FEF508323
:10433000683008F437C06C2D70E0A91708F4CCC0C1
:1043400096E0969FF001979FF00D1124EB5EFB4FD6
:10435000DF01A20FB31F2C9130E1230F08F42FEFE0
:104360002C93863008F056C0E80FF11D20813DE007
:10437000230F08F42FEF20834DC090E0FC01EB5B8E
:10438000FB4FDA013C913183DB013C913187F18AAB
:10439000880F991FFC01EB5BFB4F128E118E91E091
:1043A000822F77CF462F50E0A91798F4B6E0B49F3C
:1043B000F001B59FF00D1124EB5EFB4FEA0FF11DEC
:1043C000B0816DE0F62E6B2F7F2D670F08F46FEF35
:1043D0006083B6E0B49FF001B59FF00D1124BF01DA
:1043E0006B5E7B4F7B01E20EF31EF701408150E1D3
:1043F000450F08F44FEF4083863048F4FB01E80F87
:10440000F11D40815DE0450F08F44FEF4083CD146E
:1044100008F491CFCD30FDE5DF0708F06FC0C9305B
:104420002DE5D20708F07FC0C8303DE5D30709F479
:10443000C4C0CE0190569E018115B0E29B0720F0CA
:10444000905E8115904108F433274FB7F89480911E
:10445000E8049091E904A091EA04B091EB044FBF05
:104460008093760490937704A0937804B0937904B2
:104470009091FE04492F417090FF0BC080917D0404
:10448000582F56955695533021F483708061809350
:104490007D04D80112968C91253DBCE53B0708F0C0
:1044A000BFC0233CECE53E0708F026C1223C3C455A
:1044B00009F404C1F8019281911135C1C631DC457E
:1044C00009F0E6C280917C0469E2811165E386E22D
:1044D00093E00E94A30A6BC296E0969FA001979F6B
:1044E000500D11244B5E5B4FA40FB52FB11D4C91A5
:1044F0005DE0450F08F44FEF4C9322CFCE304DE5F1
:10450000D40789F1C6315DE5D50709F092CFF801EE
:104510008281882309F45AC00E94F11690937B048B
:1045200080937A0486CFD80112968C91882309F45F
:1045300080CF9091020580910105892B0E94FB0C90
:10454000811105C08C2F89500E940E1872CF982FB0
:10455000927219F08C2F8550F7CF817109F469CFD1
:104560008C2F8150F1CFF8018281811162CF80912F
:1045700001050E94FB0CF82E809102050E94FB0CA5
:10458000E82E109201050E94020B8EEA9DE00E9427
:10459000A41CFE288F2D827221F087EA9DE00E94E4
:1045A000A41C8F2D817121F084E99DE00E94A41C40
:1045B00081E99DE00E94A41C3CCFD80112968C9109
:1045C000882309F436CF84E49DE0F4CF80917A0407
:1045D00090917B040E94790A893C910598F081E0D2
:1045E0000E94271C86E00E946D1C8FE19EE40197CB
:1045F000F1F700C0000086E00E94421C81E00E94AA
:104600001C1C17CF81E00E94271C89E10E946D1CB1
:10461000AFE1BEE41197F1F700C0000089E1ECCFF3
:104620002F304DE5340721F120313D4509F042CFCF
:10463000882309F43FCF892F8E7F90FF816080937C
:10464000FE044091FD045091FE046091FF047091BE
:10465000000583E190E00E94BC318091FE0480FF60
:1046600029CF80917D048370806180937D0422CF67
:10467000882309F41FCF9091FD04892F8E7F90FF2E
:1046800081608093FD044091FD045091FE0460918F
:10469000FF047091000583E190E00E94BC3180919D
:1046A000FD0480FF07CF6091D8047091D9048091F8
:1046B000DA049091DB040E947C17FCCE882309F475
:1046C000F7C480917D0491E0892780937D04109246
:1046D000F401DF91CF911F910F91FF90EF90DF9048
:1046E000CF90BF90AF909F908F907F906F905F9092
:1046F0004F903F900C946A15882309F4DBCE442335
:1047000029F08091FE048E7F8093FE044091FD0489
:104710005091FE046091FF047091000583E190E0E8
:104720000E94BC31C7CEC2306CE5D60708F42CC15C
:10473000C6317CE5D70738F09E012A5F3C45293019
:10474000310508F021C10E940B149093FC04809362
:10475000FB04C0318CE5D80709F4E5C008F073C04C
:10476000C830ACE5DA0709F4D0C008F045C0C43061
:10477000ECE5DE0709F4C1C060F5C2302CE5D207D4
:1047800009F4B5C08091FB048260C330DC4509F4B4
:10479000B1C06091FB04C091FC0484E090E00E94F1
:1047A000AA316C2F81E290E00E94AA31DF91CF9173
:1047B0001F910F91FF90EF90DF90CF90BF90AF903F
:1047C0009F908F907F906F905F904F903F900C9450
:1047D00023188091FB048061C6304CE5D40709F4AE
:1047E00089C08091FB048860C730DC4508F482C032
:1047F0008091FB0480627EC08091FB048D7FCC3071
:104800006CE5D60709F476C058F4CA308CE5D807B1
:1048100009F485C008F47DC08091FB048E7F6AC0D6
:104820008091FB04877FCE30ACE5DA0709F462C0E3
:104830008091FB048B7FCF30DC4508F45BC0809116
:10484000FB048F7E57C0CB3FECE5DE0709F459C06F
:1048500030F5C3312CE5D20709F46DC078F4C131CD
:104860004CE5D40709F463C0C231DC4509F091CFAF
:104870000E9423188091FB048F773CC0C5316CE502
:10488000D60709F460C008F474C0CA3FDC4509F0DB
:1048900080CF8091FC0481608093FC047ACFCF3F6D
:1048A0009CE5D90709F44BC088F48091FC048D7F06
:1048B000CD3FBCE5DB0781F38091FC048E7FCE3FCA
:1048C000DC4550F38091FC048360E6CFC130FDE508
:1048D000DF0709F457C008F442C060E0C230DD458C
:1048E00009F057CF8EE090E00E94AA3152CF80911C
:1048F000FB0481608093FB044CCF8091FB048460B7
:10490000F9CF8091FC048260C7CF8091FB04806462
:10491000F1CF0E9423188091FB048068EBCF809137
:10492000FB048C60E7CF8091FB048F7DE3CF809107
:10493000FB048F7BDFCF8091FB04837FDBCF8091F3
:10494000FC048C7FA9CF8091FB0482FB992790F90E
:1049500021E0922790FB82F990FB83F9CBCF8091E5
:10496000FC04982F909591708E7F892B90FB81F994
:1049700093CF0E9423189091FB04892F97FB87F90E
:104980008058B8CF61E0AECF80910105C6314CE5CB
:10499000D40701F58A7A91E009F490E090937C04C1
:1049A00069E2811165E386E293E00E94CD0ADF911E
:1049B000CF911F910F91FF90EF90DF90CF90BF901C
:1049C000AF909F908F907F906F905F904F903F90AF
:1049D0000C9420178272FE01E25CFC45E431F10583
:1049E00008F04DC0E051FE4C0C94513147E855E1C0
:1049F00062E775E1DF91CF911F910F91FF90EF90EA
:104A0000DF90CF90BF90AF909F908F907F906F90EE
:104A10005F904F903F900C94FD0B42E755E167E8A3
:104A200075E1E8CF4EE955E167E975E1E3CF47E984
:104A300055E16EE975E1DECF4FEA55E165EA75E1D2
:104A4000D9CF45EA55E16FEA75E1D4CF49EC55E19C
:104A500069EB75E1CFCF49EB55E169EC75E1CACF60
:104A60004DED55E163ED75E1C5CF43ED55E16DEDDC
:104A700075E1C0CF80917D048370846026CEC1151E
:104A80005CE5D50709F447C0CE3DDC4509F47AC0A2
:104A9000F801C081D181992309F487C0CE010E9419
:104AA000C90EF82E682FCE010E944A0BBE018F2D31
:104AB0000E943E0DD82FC92FA82ED8011596EC9034
:104AC0001597E2943FE0E3221296DC90D110109209
:104AD000E1048091DF04877079F0DD2069F080E2E5
:104AE0008D0F883048F082E00E94BB178091DF0470
:104AF0008770CC24C3948111C12C3C2E32942FE0BA
:104B00003222BBE0B31508F487C0E32DF0E0EC5F80
:104B1000FD4C0C9451310E94231840E060E08FEF6F
:104B20000E94180C0E9459107FEF84E39CE07150A2
:104B300080409040E1F700C000002F9881E0809312
:104B4000E00080E28093D8001092C900AFE1BEE49B
:104B50001197F1F700C0000087E090EBDC01809333
:104B6000650790936607A0936707B093680788E18D
:104B70009CE00FB6F894A895809360000FBE9093C8
:104B80006000FFCFDF91CF911F910F91FF90EF90C9
:104B9000DF90CF90BF90AF909F908F907F906F905D
:104BA0005F904F903F900C948D1ECE010E94210B80
:104BB000F82E7CCFEC2FEF70FE2EC07F19F0F29410
:104BC00090EFF922DD20C9F0FF2069F080E28D0F1F
:104BD000883010F0A1100BC080910105F82AF092E6
:104BE00001050E9420178D2F0E946D1C15C0809119
:104BF000E104F82AF092E104F4CF8D2F0E94421CC8
:104C0000FF2051F0D05ED83010F0A11036C08F2DAB
:104C10000E940D0B0E942017E32DE850FF0B3497E4
:104C200010F40E94F10BCC2009F442C28091DF0401
:104C300080FD3EC2D80112961C928595859585957A
:104C40000E94D317C8010E94081F8091DF04859538
:104C500085958595DF91CF911F910F91FF90EF90F2
:104C6000DF90CF90BF90AF909F908F907F906F908C
:104C70005F904F903F900C949817F0948091E104CE
:104C8000F822F092E104C6CFFC2FFF70FF2EC07F08
:104C9000C03219F0F29480EFF822AA2051F021E0FE
:104CA000A21609F446C0DD2009F44DC0EE2029F11A
:104CB0009ACFDD2031F1E11004C0809102058F29E7
:104CC0001DC031E0E3120FC080910205F82AF816EA
:104CD00009F4A2CF0E94F1169093E3048093E204BA
:104CE000F092020599CF42E0E412E7CF0E94020B56
:104CF0008091DC04F812F092DC048F2D0E94381CA5
:104D00008BCFE11006C00E94020B8F2D0E94311C38
:104D100083CF51E0E51208C0809101058F2109F48D
:104D20007BCF0E941B0BEFCF62E0E61609F474CF35
:104D3000EACFDD2029F071E07E1508F46DCFDDCFDC
:104D4000E1106ACFE2CFEE2001F3D93349F48FEFBF
:104D500097EEA3E081509040A040E1F700C0000032
:104D60008D2F0E94421C58CF8C2F8695869583707C
:104D700069F0813009F050CF8D2F9C2F9370D110A6
:104D800002C090E080E00E94C50B46CF8D2F9C2F83
:104D90009370D11002C090E080E00E94DB0B3CCF0A
:104DA0008C2F837009F065C0D11036CF8D2F82957E
:104DB00086958770880F880F6D2F6F70462E512C47
:104DC000712C612C082E04C0440C551C661C771CE9
:104DD0000A94D2F740E050E0BA01D4FF0FC04FE090
:104DE00050E060E070E004C0440F551F661F771F5D
:104DF0008A95D2F74095509560957095C695C69561
:104E0000C370C23019F1D8F48090E4049090E504A6
:104E1000A090E604B090E704C13069F04429552918
:104E200066297729CB01BA01682179218A219B2142
:104E30000E940418F1CE482859286A287B28CB0103
:104E4000BA016429752986299729F2CF4429552961
:104E5000662977294090E4045090E5046090E604C8
:104E60007090E704CB01BA01642575258625972546
:104E7000DFCF8695DD2011F08C2F8170882309F417
:104E8000CBCE8D2F829586958770880F880F6D2FDA
:104E90006F70462E512C712C612C082E04C0440CCE
:104EA000551C661C771C0A94D2F740E050E0BA010A
:104EB000D4FF0FC04FE050E060E070E004C0440F4A
:104EC000551F661F771F8A95D2F7409550956095BC
:104ED0007095C695C695C370C23019F1D8F480900C
:104EE000D8049090D904A090DA04B090DB04C130CB
:104EF00069F04429552966297729CB01BA0168212F
:104F000079218A219B210E947C1786CE4828592826
:104F10006A287B28CB01BA0164297529862997293B
:104F2000F2CF44295529662977294090D80450901A
:104F3000D9046090DA047090DB04CB01BA016425D7
:104F4000752586259725DFCFCF70DD2029F08C2FA2
:104F50000E94D3178D2FD2CE8D2F0E94311C8C2F03
:104F60000E94981759CE8D2FB2EFAB1609F453C09B
:104F7000BA1578F0E0EFAE1641F1F1EFAF1609F493
:104F800042C0DD2009F480C0E1102DCE8C2F8F713E
:104F90003FC023EFA21609F443C034EFA312F1CFB0
:104FA0008091DC04DD2009F45BC00E940D0B809130
:104FB000DF048770843009F046C00E94140B8C2FE8
:104FC0008F710E949817C12C27CEDD20B9F0E11017
:104FD00023CECF7161E070E080E090E004C0660F06
:104FE000771F881F991FCA95D2F74090D804509018
:104FF000D9046090DA047090DB04A1CF41E04E1533
:1050000008F40ACEE6CF8C2F8F71DD2009F4A8CFEB
:105010000E94D31701CE8C2F8F71DD20C9F3A0CF52
:1050200060E070E0CB01DD2009F46DCFCF7161E06D
:1050300070E080E090E004C0660F771F881F991F22
:10504000CA95D2F760CF51E05E1508F4BCCFCF719E
:105050008C2F0E94D31763E08C2F0E94F417B3CFDC
:1050600090910105982B9093010561E06E1540F435
:105070000E94140B0E941B0B64E08C2F8F71EDCFEC
:1050800081E00E94BB179FCFEE2079F0893341F475
:105090007FEF87EE93E0715080409040E1F75ECE65
:1050A000AFE1BEE41197F1F759CE8C2F8F7158CF35
:1050B000DF91CF911F910F91FF90EF90DF90CF90F4
:1050C000BF90AF909F908F907F906F905F904F9028
:1050D0003F900895DF92EF92FF920F931F93CF932B
:1050E000DF9380918704807F61F48091840488231A
:1050F00041F0C091B90486E0F82E809188048C13A9
:1051000008C0DF91CF911F910F91FF90EF90DF903A
:105110000895E0908204D09083040091850410915A
:105120008604A8016D2D8E2D0E94B00BD0E0811158
:105130004CC0FC9EF001FD9EF00D1124E757FB4F83
:1051400081818D1142C080818E113FC08281811189
:105150003CC0838194818017910790F19C01201BB2
:10516000310B890140918204509183046091840441
:1051700070918504809186040E94390F083C1105C6
:1051800020F5809187048F7080618093870486E08A
:105190008C9FF0018D9FF00D1124E257FB4F808111
:1051A0008F708061808382E894E00E94081FDF9105
:1051B000CF911F910F91FF90EF90DF900C94BB0B5C
:1051C00000951095080F191FCDCF2196C77095CF68
:1051D0007F928F929F92AF92BF92CF92DF92EF9287
:1051E000FF920F931F93CF93DF93CDB7DEB76197F5
:1051F0000FB6F894DEBF0FBECDBF8C0185E0F8017D
:10520000DE011D9601900D928A95E1F7D8019C90E0
:105210001196AC90119712968C90C0908504D09006
:105220008604A60160918304809182040E94B00BE1
:105230008111A0C1F801E380F480B0908404BB2008
:1052400009F43EC1EC14FD0408F453C0C7018C19E5
:105250009D096C0140918204509183046091840403
:1052600070918504809186040E94390F70908704A4
:1052700098ECC916D10408F0D7C04091850450912C
:105280008604D0908204C0908304872D807F6C2D8B
:1052900009F083C08D2D0E94B00BB82C81112EC057
:1052A000AC102CC09D102AC0811028C0872D8F7093
:1052B00080618093870482E894E00E94081F8091B7
:1052C0008704D80115968C938B2D61960FB6F894B0
:1052D000DEBF0FBECDBFDF91CF911F910F91FF9029
:1052E000EF90DF90CF90BF90AF909F908F907F9086
:1052F0000895C094D094CE0CDF1CACCF40918204B2
:105300005091830460918404709185048091860497
:105310000E94390FA7016A2D892D0E94B00B8111BF
:1053200024C081E08825B82FB170EB2E80FF2BC000
:10533000482D6A2D892D0E94900BF82E811123C0D3
:105340009D86AE868D859E850E940B0F292F229506
:105350002F70223060F0243088F49F7061F0F801E3
:105360009581907F41F4BF2CAFCF80E0DCCF9F7060
:1053700011F08823C1F3805E8830A8F3C8010E9431
:10538000081FFE2CF0CF882009F49ECF809187045F
:10539000816080938704B12C97CF8D2D0E94B00B34
:1053A000811115C0AC1013C09D1011C081100FC029
:1053B000D80115967C92C8010E94081F86E0F8016A
:1053C000A2E8B4E001900D928A95E1F77DCF9D8629
:1053D000AE868D859E850E94150F882309F1882051
:1053E000F9F080918704803270F02091820430912E
:1053F000830438872F831986FB86EA868C87CE0143
:1054000007960E94081F86E0F801A2E8B4E0019028
:105410000D928A95E1F70E946A28BB24B39454CF79
:10542000C8010E94081FF9CF872D807F61F482E8B0
:1054300094E00E94081F86E0E2E8F4E0DF011D929C
:105440008A95E9F7A8CFD0908204C0908304409158
:105450008504509186046C2D8D2D0E94B00B811116
:1054600013C0AC1011C09D100FC081100DC0F80109
:105470007582C8010E94081FE2E8F4E086E0DF01BF
:105480001D928A95E9F720CF9D86AE868D859E85F3
:105490000E94150F882321F2882011F28091870441
:1054A000803208F4B0CF20918204309183043A8393
:1054B00029831B82FD82EC828E83CE010196A1CFCF
:1054C000EC14FD04E8F1EC18FD08409182045091C1
:1054D00083046091840470918504809186040E9405
:1054E000390FB8ECEB16F10408F040C0B82C882056
:1054F00009F496CFF0908204E090830440918504F3
:10550000509186046E2D8F2D0E94B00B81111DC00D
:10551000AE101BC09F1019C08091870480FD4ECF34
:10552000982F907F09F44ACFF8018583903F09F4C2
:1055300042CF982F907F905F8F70892B85833BCFD0
:10554000C094D094EC0CFD1CC0CF9D86AE868D859A
:105550009E850E94150F811156CF8091870481602E
:1055600080938704C8010E94081FAECE86E0E2E85F
:10557000F4E085CF882009F453CF9D86AE868D85D3
:105580009E850E94150FB82E882309F449CF86E026
:10559000F801A2E8B4E001900D928A95E1F78091BC
:1055A0008204909183040E940B0F0E946A288CCE83
:1055B0000F931F93CF93DF93CDB7DEB767970FB6E7
:1055C000F894DEBF0FBECDBF4B8B5C8B6D8B7E8B9B
:1055D0008F8B1A8A198A85E0FE017396DE011D966B
:1055E00001900D928A95E1F70E94F1160091DD0479
:1055F0001091DE048017910708F460C00E94F11634
:10560000801B910B883B9B4020F08091DF0482FF40
:1056100080C00E94FD1681110E94020B86E0FE01EF
:105620003D96DE01179601900D928A95E1F7CE0125
:1056300007960E94E82881112FC086E0FE01379668
:10564000DE01119601900D928A95E1F74A855B85FE
:1056500068858F810E94B00B81111EC02091880443
:1056600030E0C9010196877099274091B904481725
:10567000190679F196E0929FD001939FB00D112405
:10568000A757BB4FFE01319601900D929A95E1F715
:10569000809388040E94BB0B16E08091B90490911E
:1056A0008804891324C067960FB6F894DEBF0FBE36
:1056B000CDBFDF91CF911F910F9108950E94F116F8
:1056C00000951095080F191F083B1B4008F09DCF4F
:1056D000A0CF0E942318109288041092B90486E08B
:1056E000E2E8F4E0DF011D928A95E9F7D5CF819FCA
:1056F000C001112487579B4F0E94E828882399F204
:105700008091B90490E00196877099278093B9043D
:10571000C4CF82E00E94BB177CCFCDB7DEB72A97FB
:105720000FB6F894DEBF0FBECDBF84B7877F84BFAE
:105730000FB6F894A895809160008861809360000E
:10574000109260000FBE80E890E00FB6F89480934E
:105750006100909361000FBE85B7806885BF85B7F3
:10576000806885BF83E190E00E948E316093FD04E4
:105770007093FE048093FF04909300050E94CE086E
:105780000E9499098091E20084608093E2007894FD
:10579000809158078823A1F01091E9001F70909123
:1057A000EC00892F817090FD80E8182B1092E900A1
:1057B0008091E80083FD0E9438181F701093E90063
:1057C0000E94431D8CEF91E09093ED048093EC04D4
:1057D000DD24D39444244394512C80915807853080
:1057E00009F4E0C00E94F8155FEEE52E54E0F52EB6
:1057F0000BE217E0B12CA12CD7017D907D01F801BF
:105800008080871441F1912CCC24C3948724882D67
:105810008C21E1F09982AA8291E08C2D872109F4F4
:1058200090E09B830E94F1168160782F9D838C838A
:1058300049815A816B818D810E94D82AD8018C912F
:105840008C258C93B394B3E0BB15E8F09394CC0C07
:10585000E6E09E12DCCFA3940F5F1F4FF8E0AF127B
:10586000CBCFB11010C08FEF8E838F8318860E942C
:10587000F1168160782F9A8789874E815F816885CC
:105880008A850E94D82A80912807882309F47EC03F
:1058900024E235E03093F8042093F70460E070E0F0
:1058A000CB010E945C0A613375478105910508F4BC
:1058B000B3C08091FA04882351F062E070E086EC76
:1058C0009DE00E94900F892B11F41092FA04209110
:1058D0002607309127072115310509F457C080911B
:1058E0002507811153C0082F10E07201082E02C055
:1058F000EE0CFF1C0A94E2F7A70142235323452B29
:1059000009F45AC19091240790FD58C18295880FDF
:1059100080768093F70198013695279536952795DF
:105920002093FA01815E8093F8011092FB0124E636
:1059300030E047E050E065EF71E088E70E94D93041
:10594000892B21F5A80125E0440F551F2A95E1F781
:105950008091240780FD40C14C5D5A4F04E610E061
:1059600020E230E060E488E70E940031892B71F486
:105970000E94C00FE094F094809126079091270731
:10598000E822F922F0922707E09226070E94F10B05
:1059900090912907891709F420CF0E94F10B809379
:1059A00029071BCF80915807843021F11092EE0413
:1059B00080E428E130E00FB6F894A89520936000C9
:1059C0000FBE8093600083B7817F846083BF83B7FD
:1059D000816083BF7894889583B78E7F83BF0FB62D
:1059E000F894A8958091600088618093600010927F
:1059F00060000FBE80915707882309F4EECE0E9405
:105A0000F815EFEEF4E08191811142C187EF94E047
:105A10008E179F07C1F7E1CE0E94C00F809103054A
:105A2000882309F479C00E94C5140E94F10B182F35
:105A300060E080ED9DE00E94B31460E08EEC9DE09C
:105A40000E94B314612F61708CEC9DE00E94B3142E
:105A500011FB662760F98AEC9DE00E94B31412FBEB
:105A6000662760F988EC9DE00E94B31481E00E94F3
:105A7000371560E08CEE9DE00E94B31460E08AEE82
:105A80009DE00E94B3146091FC0461706D258EED61
:105A90009DE00E94B3146091FC04617084EE9DE06F
:105AA0000E94B31460E08CED9DE00E94B3146091FD
:105AB000FC0461706D2581EE9DE00E94B31460913D
:105AC000FC04617087EE9DE00E94B3146091FB04BA
:105AD00067FB662760F986ED9DE00E94B31460E0E5
