:100000000C9420030C9467030C9467030C9467030F
:100010000C9467030C9467030C9467030C946703B8
:100020000C9467030C9467030C9467030C94B3253A
:100030000C9464260C94DE1F0C9467030C946703E5
:100040000C9467030C9467030C9467030C9444208E
:100050000C9467030C9467030C9467030C94670378
:100060000C9467030C9467030C9467030C94670368
:100070000C946703296114001A000800150017008A
:100080001C0018000C00120013002A002B4304006F
:100090001600070009000A000B000D000E000F00FB
:1000A00033000457E1001D001B0006001900050085
:1000B00011001000360037000357D95C0100010021
:1000C00001002D6438422C002C00554206572E03A7
:1000D000010001002900170014001A000800150093
:1000E0000D0018000C00120013002A0004510A0031
:1000F00004001600070009000B000A5D0B5D0C5D93
:1001000033000457E10005001D001B000600190024
:1001100011001000360037000357D95C01000100C0
:1001200001002F0030002C002C0050420757010026
:100130000100010035001E001F00200021002200E8
:10014000230024002500260027004C0001000100A8
:1001500001000100010000005000510052004F005A
:100160000100310001001D011B0106011901010000
:10017000010001000100010003570100010001001E
:1001800001001F022F002D022D0230002E00010061
:10019000010001002903005701573C003D003E00CB
:1001A0003F00400041004200430046000257590012
:1001B0005A005B005C005D005E005F006000610053
:1001C00062000100010001000100010001000100C6
:1001D0004A004E004B004D000357E50001000100AE
:1001E00001001F022F002D022D0230002E00010001
:1001F000010001004C003A002400250026003D00CB
:100200001C000100010001000100010001003B0091
:100210002100220023003E0057000D000E000F00B9
:10022000010001002B003C001E001F0020003F00C9
:10023000560001000100010003570100E400010025
:1002400001005400270055005500440045000100FE
:1002500001000100095D0100010001000100010031
:100260000100010001000100010001000100010086
:100270000100010001000100010001000100010076
:100280000100010001000100010001000100010066
:1002900001000100010001000357055701000100A2
:1002A000010001000100010001000100085D0100E2
:1002B0000100010010003600000036003700000089
:1002C00000000000000000002A2B280000000000B1
:1002D00000000000000000000000002900000000F5
:1002E0002C1E3420212224342627252E362D373863
:1002F000271E1F202122232425263333362E37386C
:100300001F0405060708090A0B0C0D0E0F10111229
:10031000131415161718191A1B1C1D2F3130232DF5
:10032000350405060708090A0B0C0D0E0F101112F3
:10033000131415161718191A1B1C1D2F3130354CA4
:1003400000000000000000000000000000000000AD
:10035000000000000000000000000000000000009D
:10036000000000000000000000000000000000008D
:10037000000000000000000000000000000000007D
:10038000000000000000000000000000000000006D
:10039000000000000000000000000000000000005D
:1003A000000000000000000000000000000000004D
:1003B000000000000000000000000000000000003D
:1003C000000000000000000000000000000000002D
:1003D000000000000000000000000000000000001D
:1003E0000001010101010100010101010000000003
:1003F00000000000000000000000010001000101F9
:1004000001010101010101010101010101010101DC
:1004100001010101010101010101010000000101CF
:1004200000000000000000000000000000000000CC
:1004300000000000000000000000000101010100B8
:100440007F3F1F06070001020304050001010101AF
:10045000010101010102020202020202020203037F
:10046000030303030303040404040404040505054F
:100470000505060606060607070707070808080811
:10048000090909090A0A0A0B0B0B0C0C0C0D0D0DBE
:100490000E0E0E0F0F0F1010111111121213131454
:1004A00014151516161717181819191A1A1B1B1CCC
:1004B0001D1D1E1E1F202021222223242425262626
:1004C000272829292A2B2C2D2D2E2F30313232335B
:1004D0003435363738393A3B3C3D3E3F4041424364
:1004E0004445464748494A4C4D4E4F505153545548
:1004F0005658595A5B5D5E5F616264656668696BF8
:100500006C6D6F7072737577787A7B7D7E80828375
:100510008587888A8C8E8F91939596989A9C9EA0B9
:10052000A2A3A5A7A9ABADAFB1B3B5B7BABCBEC0C6
:10053000C2C4C6C9CBCDCFD1D4D6D8DBDDDFE2E48F
:10054000E7E9EBEEF0F3F5F8FAFDFF040330000005
:10055000000E0355005400340037002E0032000016
:100560000010034B006500790068006900760065A3
:100570000000000403090409023B00020100A0FA84
:1005800009040000010301010009211101000122F9
:1005900040000705810308000A0904010001030067
:1005A0000000092111010001223B00070582032000
:1005B000000A1201100100000008EDFE0000010019
:1005C0000102030105010906A1018505050719E0DE
:1005D00029E7150025019508750181020507190015
:1005E00029EF1500250195F0750181020508190113
:1005F0002905950575019102950175039101C005C5
:10060000010906A101050719E029E7150025019553
:1006100008750181029501750881010507190029F6
:10062000FF150026FF0095067508810005081901D1
:100630002905950575019102950175039101C00089
:1006400011241FBECFEFD4E0DEBFCDBF04B603FE42
:1006500027C08091860390918703A0918803B09171
:1006600089038730904BA740B04BD1F4109286039A
:1006700010928703109288031092890314BE84B7E6
:10068000877F84BF0FB6F894A89580916000886139
:1006900080936000109260000FBEE0E0F8E30995DF
:1006A00012E0A0E0B1E0E2EEF1E502C005900D92AB
:1006B000A036B107D9F723E0A0E6B2E001C01D9251
:1006C000A638B207E1F70E9400230C94B3280C94DB
:1006D00000000C9493040C949504809160028111A5
:1006E00002C00C948D1B089580916002811104C09A
:1006F00088E290E00C942705089580916002823092
:1007000020F487E590E00C9427050895809160021D
:10071000823020F48FE490E00C94270508958091B6
:100720006002813049F0882319F0823041F0089549
:1007300084E390E00C94270583E00C94C31B83EEC4
:1007400090E0F8CFFC018081813031F48185811106
:1007500008C0828590E00895823031F083E090E017
:10076000089590E080E0089582E090E008950E946E
:10077000A20380936002813039F0882319F082301F
:1007800031F008950C94881B81E00C948D1B80E05F
:100790000E948D1B82EE90E00E94120580EE90E098
:1007A0000E9412058DE290E00E9412050E94881BB3
:1007B00080E00E948D1B82EE90E00E94270580EE73
:1007C00090E00E9427058DE290E00C9427050E949E
:1007D000A20380936002813049F0882319F08230AF
:1007E00041F0089584E390E00C94120583E00C94AA
:1007F000A21B0E94881B80E00E948D1B83EE90E06C
:10080000F3CF0E94A20380936002882319F0813005
:1008100041F0089581E00E948D1B88E290E00C94E5
:10082000120588E290E00E94120588E290E00C94A4
:1008300027050E94A20380936002823018F0823064
:1008400029F0089587E590E00C9412058CE690E07D
:100850000E9412058CE690E00C9427050E94A203EA
:1008600080936002823018F0823029F008958FE47E
:1008700090E00C94120580E00E948D1B85E00E94A0
:10088000A21B8CE690E00E9412058CE690E00C948E
:100890002705FB018A302DE5920769F148F488307D
:1008A0002DE59207B1F089309D45E1F081E0089592
:1008B0008B302DE5920759F18C309D45B9F7828137
:1008C000882379F080E00E948D1B85E00E94A21BA6
:1008D00007C08281882329F08CED91E00E94DD051C
:1008E00080E0089582818823E1F381E00E948D1BDE
:1008F0008FED91E0F3CF8281882399F380E00E940D
:100900008D1B85E00E94A21B82EE91E0E7CF8281E1
:10091000882339F380E00E948D1B85E00E94A21B92
:1009200085EE91E0DBCF0C943C0ECF936091F20208
:100930007091F3028091F4029091F5020E94E81DFB
:10094000C82F809100018C1751F0C43050F4C23090
:1009500018F5CC2399F0C130A1F0C0930001CF91DC
:100960000895C43011F1C530C1F70E94810E4FEFD8
:100970006FEF80E00E94350D84E00BC00E94BC0D3B
:10098000ECCF0E94810E4FEF6FEF85ED0E94350D89
:1009900082E00E944B0EE1CF0E94810E4FEF6FEF7D
:1009A00080E80E94350D83E0F4CF0E94810E4FEF66
:1009B0006FEF85E5F6CFCF93DF939C013A95211534
:1009C0003F4168F5EC01CC27D170DC01AA27B27059
:1009D000AC01442754709C012227387094FF11C049
:1009E00080E1CD2B09F480E0AB2B09F08062452B30
:1009F00009F08064232B09F08068FB01DF91CF911F
:100A0000099481E0CD2B09F480E0AB2B09F08260E2
:100A1000452B09F08460232B81F38860EECFDF91B2
:100A2000CF910895CF93DF93EC01805E91090897F1
:100A300020F065E577E1209711F46FE275E1CE01D2
:100A40000E94DB048C2FDF91CF910C945714CF932D
:100A5000DF93EC010E94CD14CE01805E91090897CE
:100A600020F06CE577E1209711F466E375E1CE01A3
:100A7000DF91CF910C94DB0481E008950C9449043C
:100A80001F93CF93DF9300D000D00F92CDB7DEB786
:100A900049835A836B8320919B0289819A8121111A
:100AA0001BC06623A9F00E94A11C182F682F898102
:100AB0009A810E943E1C69817A81812F0F900F904C
:100AC0000F900F900F90DF91CF911F910C946206C1
:100AD0000E94751C182FEFCF0E94A11C69817A819A
:100AE000EDCFFC01408151816281738184810C943E
:100AF00040051F93CF93DF9390E0FC01E054FD4F3E
:100B00001491FC01E054FC4FD491805C9C4FFC019B
:100B1000C491DD2319F081EE0E945714CC2319F003
:100B200086EE0E945714812F0E941C15CC2319F0C9
:100B300086EE0E94CD14DD2331F081EEDF91CF915E
:100B40001F910C94CD14DF91CF911F910895FF92C6
:100B50000F931F93CF93DF93EC01F62E88818823A8
:100B600031F18E010F5F1F4F813041F4C9818C2F0D
:100B70000E9457148C2F0E94CD1405C0823079F446
:100B800089810E945714E80121968F2D815030F3FE
:100B9000EFE9FFE03197F1F700C00000F7CF8330B5
:100BA00011F48981E8CF0E9479058E01ECCFDF91A5
:100BB000CF911F910F91FF90089560E00C94A705CD
:100BC0000E94351E811102C00E94DC1E0C94690334
:100BD0000E9481100E94D2090C946B0308950C941A
:100BE000EE0581E008950C94F105CF93C82F0E9483
:100BF000EF058C2FCF910C94F30508950E946D178B
:100C00000E94FD052FEF84E39CE02150804090403E
:100C1000E1F700C000000C9468200F931F93CF935E
:100C2000DF93EC010E9471058C01BE010E94D70F79
:100C3000BE01C8010E943E058823B9F1BE01C8016A
:100C40000E941D10882389F1BE01C8010E94FE097F
:100C5000882359F1BE01C8010E947A11882329F125
:100C6000BE01C8010E94BB118823F9F0BE01C80172
:100C70000E94DE128823C9F0BE01C8010E94F20E54
:100C8000882399F08A81882339F001158CE51807AB
:100C900051F00E3D1C4579F0CE01DF91CF911F91AF
:100CA0000F910C943C050E94FE0580E0DF91CF91EE
:100CB0001F910F9108950E94DC1EF7CF90E080E015
:100CC00008950895282FE62F872F90E06CE070E0BC
:100CD0000E941F28E80FF92FF11D822F90E060E39A
:100CE00070E00E941F28E80FF91FEE0FFF1FEC585D
:100CF000FF4F859194910895FC01EE0FFF1FE05C7A
:100D0000FB4F859194910895CF93DF930E946206E3
:100D10000E949707EC01811520E5920708F041C079
:100D2000811530E4930708F0B6C0803E910518F5B0
:100D3000803C910508F0A0C0883A910570F4853A8E
:100D4000910508F091C08130910501F10097F1F013
:100D50000497E0F4D0E0C0E019C08F3B9105D0F7D4
:100D6000C85AD0E0CC0FDD1FC851DE4F0990D881A2
:100D7000C02DD4640BC0811540E2940758F4C1150E
:100D800081E0D80718F4C83ED10520F7CE01DF91E5
:100D9000CF910895811520E3920708F073C09F70EA
:100DA0006DC0811535E5930770F5811544E594070D
:100DB00008F0A5C0C11582E5D80750F4C11521E59A
:100DC000D20708F46BC0DC2FCC27C16FD06ADECF0E
:100DD0009C2F969596959E0123703327C115D34578
:100DE00008F07BC0C1E0D0E002C0CC0FDD1F2A9527
:100DF000E2F7892F90E0E5E0880F991FEA95E1F787
:100E0000C82BD92B68C0C11589E5D807A8F4C1152E
:100E100028E5D20708F078C0C11536E5D30708F0F9
:100E200099CF8C2F0E942E08C82FD0E0DC2FCC2722
:100E3000CC27DF71D062AACFC1154AE5D40708F4E8
:100E400068C0CE0190568115904208F083CF8D2F57
:100E50008F710E942E0890E0982F882788279F7115
:100E60009C012C2BE901E6CFC55AD0E0CA5EDD4FCC
:100E7000C881D0E0D0648ACF805C91090E947C0652
:100E8000EC0184CF9927D3FF03C0EC01D86C7ECF4F
:100E9000EC01D06C7BCFDF70D06A78CFCE01A4E0BC
:100EA00096958795AA95E1F783702C2F2695269520
:100EB000237030E0B5E0220F331FBA95E1F7382BED
:100EC0008C2F8370C1E0D0E002C0CC0FDD1F8A956B
:100ED000E2F7C22BD32BDC6859CFC1E0D0E002C0CF
:100EE000CC0FDD1F2A95E2F7892F90E075E0880F7F
:100EF000991F7A95E1F7C82BD92BDA6847CFD82FFD
:100F0000CC27C46FD06A42CFDC2FCC27C06FD06A09
:100F10003DCF8C2F8F700E942E0834E0D695C79558
:100F20003A95E1F7CF709C2FEC01D0692FCF823832
:100F30009105B1F1B0F48133910509F475C048F41D
:100F40008932910509F469C08A32910509F473C0A8
:100F500008958533910509F459C08933910501F14C
:100F60000895833E9105A9F138F4803E9105F9F08A
:100F7000823E910549F10895863E9105A9F1873E8B
:100F80009105C9F1843E910519F52091780321FF5F
:100F90001FC08091770384FD14C087EE90E0089510
:100FA000209177032370A1F080EE90E008952091C6
:100FB000770320FD47C03091780330FF09C024FF3C
:100FC00044C090E080E004C02091770322FDF7CF79
:100FD00008952091770322FD3BC03091780330FDC6
:100FE000E3CF24FFF5CFEDCF2091770323FFF0CFA0
:100FF00024FDE7CFD2CF2091770323FD2CC0309181
:10100000780331FFEECF84EE90E0089520917703CE
:1010100025FFDECF89E290E008952091770325FF38
:10102000D7CF85E390E008952091770326FFD0CFB6
:101030008AE290E008952091770326FFC9CF81E3EB
:1010400090E0089589E390E0089583EE90E008959C
:1010500082EE90E0089586EE90E0089590917703F7
:1010600092FF06C0282F28712830F9F4877F84600A
:1010700093FF06C0282F28712831F1F4877E846100
:101080002091780320FF06C0382F38713830D9F40A
:10109000877F816021FF06C0282F28712831D1F475
:1010A000877E816194FD877E0895282F24712430E6
:1010B000F9F68B7F8860DCCF282F2471243101F76B
:1010C0008B7E8861DDCF382F3171313019F78E7FFB
:1010D0008860E0CF282F2171213121F78E7E886131
:1010E000E1CFE82FF0E0EE0FFF1FE25BFC4F8081C5
:1010F00091810895089580EA8A95F1F70895CF9334
:10110000DF93A5E2B2E049E252E0C1E0D0E08D9188
:10111000E82FE295EF70F0E061A18F709E0101C0B1
:10112000220F8A95EAF7922F9095962391A382A198
:10113000822B82A34A175B0751F7A9E1B2E045E28F
:1011400052E0C1E0D0E08D91E82FE295EF70F0E041
:1011500061A18F709E0101C0220F8A95EAF7922F3C
:101160009095962391A382A1822B82A34A175B07B5
:1011700051F7109247031092460310924F031092BA
:101180004E0310924903109248031092510310929B
:10119000500310924B0310924A0310925303109283
:1011A000520310924D0310924C031092550310926B
:1011B000540384E00E947809DF91CF910C94E005FC
:1011C0004F925F926F927F928F929F92AF92BF9257
:1011D000CF92DF92EF92FF920F931F93CF93DF9303
:1011E00006E413E095E2C92E92E0D92E912CAA24B0
:1011F000A394B12CD8016D907C90F80111921192BA
:101200008F01D6018D916D01C82FC295CF70D0E0AE
:1012100099A18F70750101C0EE0C8A95EAF7892FAC
:101220008E2989A38AA18E2C809488218AA30E946A
:101230007B0889E1482E82E0582E30E020E0F8015A
:101240003297D2016D912D01862F82958F7090E09B
:10125000DC0190968C914081518190E06F7002C0CA
:10126000959587956A95E2F780FD3FC0C501022EEE
:1012700002C0880F991F0A94E2F7842B952B918363
:1012800080832F5F3F4F2C303105D9F689A188220A
:1012900089A28AA1E82AEAA281E02081318126156B
:1012A000370509F480E0982AB3E00E341B0709F0F3
:1012B000A1CF292D44E06EE473E086E493E00E9420
:1012C00079090E94E805892DDF91CF911F910F9137
:1012D000FF90EF90DF90CF90BF90AF909F908F9056
:1012E0007F906F905F904F90089590E080E0C5CF21
:1012F0000895FF920F931F93CF93DF93F82E092F3A
:10130000162FD72FC42F222349F081E08093630248
:101310000E940E209093620280936102809163028A
:101320008823A1F080916102909162020E941A20AC
:10133000069760F0EF2DF02FA12FBD2F90E080E0F9
:10134000D0E08C179D0744F010926302DF91CF919B
:101350001F910F91FF900895219131912D933D930D
:101360000196EFCFCF9390917402992321F08111D0
:1013700016C010927402CF910895EC2FF0E0EE0F9A
:10138000FF1FEC59FD4F808191810E9412050E9440
:10139000851DCF5F80917402C81778F3EACFC0E053
:1013A000F9CF08958091C701882399F08091750243
:1013B000882379F08091780290917902009749F022
:1013C0000E941A20C39728F01092750281E00C94B5
:1013D000B2090895109275021092C7011092790215
:1013E0001092780281E00C94B2098091C7018111BA
:1013F0000C94EA0981E08093C70108956F927F926F
:101400008F929F92AF92BF92CF92DF92EF92FF9214
:101410000F931F93CF93DF938C017B011092760281
:10142000073F8CE51807B9F4FB01C281CC2349F1D1
:1014300081E08093C7018C2FDF91CF911F910F9195
:10144000FF90EF90DF90CF90BF90AF909F908F90E4
:101450007F906F900895083FFCE51F0739F4FB016A
:10146000C281CC2371F00E94EA09E5CF093FFCE577
:101470001F0739F4FB01C281CC2319F00E94F50942
:10148000DACFD091C701C1E0DD23A9F21092770233
:10149000C0E088248394912C772473943091770250
:1014A000323088F080917602882309F498C00E9437
:1014B0000E20909379028093780280E00E94B20916
:1014C00081E0C827B8CFC32ED12CC60165E070E0FB
:1014D0000E941F288F5F9E4FFC0180819181AFEF9A
:1014E00020E0E22FF0E0EE0FFF1FE80FF91F45911B
:1014F00054910417150709F4A22F452B11F02F5F03
:10150000F0CFAF3FB9F4612CC629DD2359F0C601F5
:1015100065E070E00E941F288F5F9E4FD1E0FC01C4
:1015200084818111D0E0D170809177028F5F8093A8
:101530007702B4CF60907502F7014281C60165E081
:1015400070E00E941F28FC01EF5FFE4F9481540160
:1015500001C0AA0CAA95EAF74423E1F0A92AA482C3
:10156000662089F2C40102C0880F991F2A95E2F70C
:101570000197A816190641F682819381009729F0F8
:101580000E94120570927602BFCF61E0832F0E9405
:10159000D109F8CFA40102C0440F551F2A95E2F7E4
:1015A0004150510994171506C1F482819381009727
:1015B00079F00E942705C60165E070E00E941F28AF
:1015C000FC01EF5FFE4FA0949481A922A4829CCFDE
:1015D00060E0832F0E94D109EECF612CECCFC111C6
:1015E0000EC081E00E94B209DD2309F469CF109298
:1015F00079021092780281E08093750261CFF70141
:101600008281882309F45CCF80917502882309F4D4
:1016100057CF0E940E209093790280937802E09138
:101620007402E83008F04CCF81E08E0F8093740292
:10163000F0E0EE0FFF1FEC59FD4F1183008340CF08
:10164000CF92DF92EF92FF920F931F93CF93DF938E
:10165000E82FF0E0E55BFB4F71110CC06491762F31
:10166000862FDF91CF911F910F91FF90EF90DF9028
:10167000CF900895262F30E0C72FD0E0E4914E2F71
:10168000EE2EF12CC90166E070E00E941F280FEFDA
:1016900010E0B8010E943028DB01220F331FCB017C
:1016A00065E570E00E941F28281B390BC22ECC0C68
:1016B000C20EC8018C1B9D0BB7010E941F28292F49
:1016C000D12CC601BE010E941F28692F70E0C801FD
:1016D000861B970BB7010E941F28392FC8018C1950
:1016E0009D09BE010E941F28692F70E0C801861B5A
:1016F000970BB7010E941F28892FA230B10591F0E6
:1017000038F4109759F0119789F0922F232F06C0C3
:10171000A430B10571F088F01697B9F7692F7E2FC4
:10172000822F9FCF9E2FE22F282FF8CF9E2FE32FBF
:10173000F5CF922F2E2FE82FF1CFE22F242F932FCA
:10174000EDCF0895CF93DF93762FE901682F842F93
:101750000E94200B798368838A83DF91CF9108955B
:1017600080915603982F9E7F29F481708260809328
:10177000560308958A30E8F381708860F8CF88E0D6
:1017800090E00C947328CF92DF92EF92FF926B015E
:101790007C010E94B00BB701A60188E090E0FF90A9
:1017A000EF90DF90CF900C949128E6E5F3E083E092
:1017B000808311828FEF82838383148260817181A1
:1017C000828193810C94C30B8091560380FF02C0E9
:1017D0008695089580E0089580915A03833018F427
:1017E0008F5F80935A0360915603709157038091E5
:1017F0005803909159030C94C30B80915A0388238A
:1018000019F0815080935A036091560370915703E9
:1018100080915803909159030C94C30B6F927F925F
:101820008F92CF92DF92EF92FF920F931F93CF93FD
:10183000DF93CDB7DEB768970FB6F894DEBF0FBE63
:10184000CDBF0091CC0110E08091560380FF3FC0D6
:1018500083E4C82E84E0D82EDE0111967E0189E152
:10186000E80EF11C9D01F601849190E063E070E0C8
:101870000E941F28855A9C4FFC01608071808280E5
:101880006D927D928D92FFEFCF1ADF0AAE15BF05E4
:1018900051F780917C0290E063E070E00E941F2885
:1018A000B801820F931F0E940A1168960FB6F89430
:1018B000DEBF0FBECDBFDF91CF911F910F91FF9083
:1018C000EF90DF90CF908F907F906F900895209150
:1018D0007B023091CB01822F90E063E070E00E94A8
:1018E0001F28FC01E55AFC4F231708F0B1CF1182E5
:1018F000108212822F5F3396F7CFA82FB62F8091D8
:10190000560380FF17C020917B023091CB01822FBC
:1019100090E063E070E00E941F28FC01E55AFC4F54
:10192000231710F00C940E0CA183B08342832F5F19
:101930003396F6CF0895EF92FF920F931F93CF93B4
:10194000DF9300D00F92CDB7DEB7F82E062F142FFD
:10195000E22E8091560380FF28C0E82FE695F0E044
:10196000E75DFD4F9081909384028E7F823059F421
:101970009E012F5F3F4F8F2D0E94A20B4B816981EB
:101980008A810E947D0CF0925703009358031093B4
:101990005903EE2051F060915603709157038091E6
:1019A0005803909159030E94C30B0F900F900F9012
:1019B000DF91CF911F910F91FF90EF900895E6E591
:1019C000F3E09181282F4381628188E0890F0C9494
:1019D0009B0C81E00C94DF0CE6E5F3E09181282F6D
:1019E0004381628188EF890F0C949B0C81E00C94F9
:1019F000EC0CE6E5F3E0628128E0620F08F46FEF9B
:101A0000282F438181810C949B0C81E00C94F90C6C
:101A1000E6E5F3E0628128E0621B08F460E0282F2D
:101A2000438181810C949B0C81E00C94080DE6E5C8
:101A3000F3E0438128E0420F08F44FEF282F628142
:101A400081810C949B0C81E00C94170DE6E5F3E08A
:101A5000438128E0421B08F440E0282F6281818105
:101A60000C949B0C81E00C94260D20E00C949B0CB4
:101A7000CF9320917B023091CB01822F90E063E0E5
:101A800070E00E941F28FC01E55AFC4F231720F14B
:101A9000C0E06091CA01C61728F10E940E0C209187
:101AA000C80180917A02820F80937A029091C901D5
:101AB000920F9093C901191654F4082E000C990B3B
:101AC0004091CA014150550B841795071CF0219590
:101AD0002093C801CF9108951182108212822F5F46
:101AE0003396D4CFEC2FF0E070E0CF010E94442871
:101AF00090917B02890F90E020917A02022E000CD7
:101B0000330B63E070E00E941F28E217F307ACF08C
:101B10002091C901022E000C330B2E173F076CF0E9
:101B20009C01255A3C4F4091590360915803809184
:101B300057030E94A20BCF5FACCFFC01E55AFC4FCC
:101B4000118210821282F7CFE6E5F3E080818E7F6A
:101B5000808360817181828193810E94C30B109286
:101B600085022FEF80E792E0215080409040E1F71E
:101B700000C000000C940E0CE6E5F3E080818E7F3F
:101B80008083109285022FEF80E792E02150804001
:101B90009040E1F700C000000C940E0C60915603D9
:101BA000669570E041E050E08DEC91E00E945E2887
:101BB000892B19F481E0809385020E940E20909376
:101BC0007E0280937D0208959091560390FF35C068
:101BD0009170811128C0926090935603662351F052
:101BE0006091560370915703809158039091590367
:101BF0000E94C30B60915603669570E041E050E08F
:101C00008DEC91E00E945E28892BA1F01092850254
:101C100081E0809380024091590360915803809144
:101C200057030C94350D853010F09860D5CF880F90
:101C3000982BD2CF0E94CE0DEBCF0895682F9091B4
:101C40005603969581E0890F853008F081E00C9469
:101C5000E40D81E00C941E0E682F9091560396952A
:101C60008FEF890F09F484E00C94E40D81E00C946B
:101C70002C0E61E00C94E40DE6E5F3E080818160D8
:101C8000808386950C94390E8091560380FD0C94C8
:101C9000A40D0C943C0E60E00C94E40D8091830242
:101CA00081112EC00E94351E811104C00E94DC1ECD
:101CB0000E94D50B0E94BF0B60935603709357038D
:101CC00080935803909359036E7F61F40E94D50B63
:101CD0000E94BF0B60935603709357038093580381
:101CE000909359030E94B00B109285028091560385
:101CF00080FF03C086950E944B0E81E08093830293
:101D00000895E6E5F3E080818160808386950C94F8
:101D10004B0E1092850208950F931F93CF93DF937C
:101D200080918502882309F446C080918402E09165
:101D30005603E695E81BE0937F02C0EDD7E001EA89
:101D40001BE0823041F4F0E0E05CFB4FE491CE2FE9
:101D5000D0E008E31DE080918002882389F0109292
:101D600080020E940E209E0120953095820F931FC5
:101D700090937E0280937D021092820210928102E3
:101D800080917D0290917E020E941A208C179D07FF
:101D900090F0E0917D02F0917E02CE0FDF1FD09394
:101DA0007E02C0937D028DE792E0F801DF91CF9132
:101DB0001F910F910994DF91CF911F910F91089579
:101DC000FA01811101C0FB0109940E94E40B8230E9
:101DD00030F00E94E40B843010F40C94290E82E061
:101DE0000C94390E0F931F93CF938C01FB01C2818A
:101DF000CC2309F450C00E94361D8272F801E25CC7
:101E0000FC45E431F10538F4EB54F74D0C945828B7
:101E10000E94440EC0E08C2FCF911F910F91089526
:101E200046E35EE069E27EE00E94E00EF3CF49E225
:101E30005EE066E37EE0F8CF46EF5CE069EE7CE0D2
:101E4000F3CF49EE5CE066EF7CE0EECF44E15DE08D
:101E500065E07DE0E9CF45E05DE064E17DE0E4CF71
:101E600042E35DE063E27DE0DFCF43E25DE062E319
:101E70007DE0DACF4DEF5BE06CEE7BE0D5CF4CEE52
:101E80005BE06DEF7BE0D0CF81E00E94390EC2CFE6
:101E90000E94E50EBFCFC1E0BECFCF93DF93EC0130
:101EA00081E0898B8F810E94391D88850E944C1D9D
:101EB0000E94851DEA81FB81309739F06C897D890C
:101EC000CE010696DF91CF910994DF91CF910895CD
:101ED000CF93DF93EC018881823039F4FB0182815A
:101EE00093810E94120581E08B87DF91CF91089545
:101EF000FC018081813029F4FB01808191810C9467
:101F00001205823021F4FB0182819381F8CF08957C
:101F1000FC018081813029F4FB01808191810C9446
:101F20002705823021F4FB0182819381F8CF089547
:101F30000F931F93CF93DF93EC018A85811132C0F9
:101F40000B811C811755C80166E170E00E941F28B3
:101F5000DC01A55FBE4F1496ED91FC91159730976B
:101F600031F054966D917C918F5E9E4F0995C8011A
:101F700066E170E00E941F288C01055F1E4FF8018A
:101F800087810E943F1DF80180850E94521D0E949A
:101F9000851D188219861B861E821D82109287025B
:101FA00010928602DF91CF911F910F910895DF92D9
:101FB000EF92FF920F931F93CF93DF937C01FB016E
:101FC0008281882391F08091CE018F3F71F0CBE028
:101FD000D1E010E000E0DD24D3948091CE01082E02
:101FE000000C990B8017910744F4DF91CF911F915A
:101FF0000F91FF90EF90DF9008958E818823C9F0B4
:1020000089859A858E159F0539F480918602909175
:1020100087028E159F0569F0DF86FC86EB8689892D
:10202000811103C0CE010E944D0FCE0106960E9481
:10203000980F0F5F1F4F6696D0CFEF92FF920F93CE
:102040001F93CF93DF937C01FB018C0117550F3F4A
:10205000110511F008F03EC08091CE01082E000C51
:10206000990B8017910714F40093CE012281C801C7
:1020700066E170E00E941F28EC01C55FDE4F288BEF
:1020800092818E81992371F1FA86E9868F5F8E8322
:102090000E940E209E878D870E946C1D8F830E9458
:1020A000361D88870E94491D9885892B8887E8817D
:1020B000F981309759F02C893D89C80166E170E0BB
:1020C0000E941F28B9018F5E9E4F0995F0928702EA
:1020D000E092860281E0DF91CF911F910F91FF90F6
:1020E000EF9008958823B1F38989882399F3C80173
:1020F00066E170E00E941F288F5E9E4F0E94980F3D
:10210000E9CFEF92FF921F93CF93DF938091CE019F
:1021100010E08F3FE9F5DF91CF911F91FF90EF9095
:102120000895CE0166E170E00E941F28855F9E4FF2
:10213000FC01E288F388E114F10419F488ECE82E3C
:10214000F12CCE0166E170E00E941F28FC01E55FE2
:10215000FE4F86818823D9F0858596850E941A20B6
:10216000E816F906A0F4CE0166E170E00E941F288F
:102170007C01855F9E4FFC018189811103C0CF01E5
:102180000E944D0FC7018F5E9E4F0E94980F1F5FE8
:10219000C12FD0E08091CE01082E000C990B8C1736
:1021A0009D070CF0BECFB7CF38B1242F2095232345
:1021B00038B1432B3FB7F894680F791F86179707FC
:1021C00011F43FBF0895FC015191CF01E8E048B9F7
:1021D000000000C057FF28B9550F000000C000C024
:1021E00000C028B900C0EA9591F7E8CF9C0197B1EB
:1021F000942B97B9CB0163E070E00E941F28BC01CB
:10220000C9010E94D41087EC90E00197F1F700C05B
:102210000000089540E40C94F6100F931F93CF93A1
:10222000DF93C62FD42F022FFC0182818823C9F0AF
:1022300060938A020E940E20909389028093880204
:1022400080E28C0F883008F050C0C77081E001C078
:10225000880FCA95EAF7DF91CF911F910F910C94E7
:102260002F1510918A02161335C080918802909123
:1022700089020E941A20883C910560F5C0E2CD0FCA
:102280001D17B9F080E2810F883040F4177081E0AB
:1022900001C0880F1A95EAF70E943615C83048F435
:1022A00081E09D2F977001C0880F9A95EAF70E94F0
:1022B0002F15802F0E941C15C830B8F4D77081E00C
:1022C00001C0880FDA95EAF7DF91CF911F910F9146
:1022D0000C94361580E28C0F883038F4C77081E09A
:1022E00001C0880FCA95EAF7EFCFDF91CF911F9118
:1022F0000F9108959C01CB01233F4CE5340731F148
:1023000090F4283DFCE53F07E9F0293D4CE5340712
:1023100069F1273D3C4579F426E241EE61EE0E94E9
:102320000D1180E00895253FFCE53F07B9F090F0DE
:10233000263F3C45B9F0FC0182818823D1F0109200
:102340008A02089527E245EE65EEE9CF26E241EEE6
:1023500060EEE5CF27E245EE64EEE1CF26E241EE06
:1023600062EEDDCF27E245EE66EED9CF28E241E00E
:10237000EBCF81E00895CF93DF93EC01FB018281E5
:10238000882309F419C1C230FCE5DF07C0F1C6316A
:102390009CE5D90730F09E012A5F3C452930310584
:1023A00070F50E94521E9093780380937703C0319A
:1023B000ECE5DE0709F4CFC008F05BC0C8308CE55F
:1023C000D80709F4B6C088F5C430ECE5DE0709F497
:1023D000A8C0C0F4C2308CE5D80709F49CC0809135
:1023E00077038260C330DC4509F498C0809177039D
:1023F000909178030E94601E0E946D1780E0DF912B
:10240000CF910895809177038061C630ECE5DE07B7
:1024100009F484C0809177038860C730DC4508F4F4
:102420007DC080917703806279C0CC308CE5D8077D
:1024300009F489C070F4809177038C60CA30ECE5B0
:10244000DE0709F46BC008F478C0809177038E7FB3
:1024500065C0CE308CE5D80709F479C08091770348
:102460008B7FCF30DC4508F459C0809177038F7E95
:1024700055C0CB3FECE5DE0709F457C030F5C3315A
:102480008CE5D80709F46FC078F4C131ECE5DE07BC
:1024900009F465C0C231DC4509F0A8CF0E946D1770
:1024A000809177038F773AC0C5318CE5D80709F45E
:1024B00062C008F476C0809178038160CA3FDC4531
:1024C00009F094CF8093780391CFCF3FFCE5DF07ED
:1024D00009F44DC088F4809178038D7FCD3F9CE551
:1024E000D90781F3809178038E7FCE3FDC4550F38E
:1024F000809178038360E6CFC130FDE5DF0709F402
:1025000059C008F444C080E0C230DD4509F06ECF08
:102510000E94DE1E6BCF80917703816080937703EA
:1025200065CF809177038460F9CF809178038260D2
:10253000C9CF809177038064F1CF0E946D1780919D
:1025400077038068EBCF809177038D7FE7CF809111
:102550007703877FE3CF809177038F7DDFCF8091F3
:1025600077038F7BDBCF80917703837FD7CF8091F9
:1025700078038C7FA7CF8091770382FB992790F90E
:1025800021E0922790FB82F990FB83F9C7CF8091DD
:102590007803982F909591708E7F892B90FB81F90D
:1025A00091CF0E946D1790917703892F97FB87F940
:1025B0008058B4CF81E0ACCF81E021CFCF93DF93BF
:1025C000EB0186319C4511F50E94361D9A819923B5
:1025D00099F08A7A91E009F490E090938B0281114E
:1025E00009C089E20E94111D0E94851D80E0DF91D3
:1025F000CF91089585E3F6CF80918B02811104C0BD
:1026000089E20E94181DF0CF85E3FBCF81E0EFCF78
:1026100090939102809390020895E0919002F0913E
:102620009102309721F00190F081E02D099480E033
:102630000895E0919002F0919102309799F02091E5
:10264000DB01222359F02091770327FF07C0DC012B
:102650002C9111962C93119725E02C930280F381F5
:10266000E02D0994089520918E0230918F02281751
:10267000390771F090938F0280938E02E09190025F
:10268000F0919102309721F00680F781E02D0994B6
:10269000089520918C0230918D022817390771F02E
:1026A00090938D0280938C02E0919002F0919102C0
:1026B000309721F00084F185E02D09940895089564
:1026C00008950C945F1308950C9463130E94601393
:1026D0000C94611381E008950E9405200E947F08F8
:1026E0000E94D7200E944E0E0C9464137F928F920A
:1026F0009F92AF92BF92CF92DF92EF92FF920F9391
:102700001F93CF93DF93CDB7DEB72A970FB6F89418
:10271000DEBF0FBECDBF0E94E0080E946A1388236F
:1027200009F471C043E9A42E42E0B42E10E000E0A9
:10273000702E802F0E9471086C01F501819091909C
:102740005F018816990609F458C080911F0381FD26
:102750000E947A0880E0EE24E394F12C8C249D24DE
:1027600094012E213F21232B09F441C08E837F82C7
:10277000CE20DF2081E0CD2809F480E088870E9408
:102780000E208160782F9A8789874E815F816885C6
:102790008A850E942814000F111FF801ED56FD4F85
:1027A00080819181E826F926F182E0820E948C0ED8
:1027B0000E940D13909192028917B1F10E940D139E
:1027C000809392022A960FB6F894DEBF0FBECDBF5B
:1027D000DF91CF911F910F91FF90EF90DF90CF90FD
:1027E000BF90AF909F908F907F900C94F5058F5F76
:1027F000EE0CFF1C8C3009F0B3CF0F5F1F4F04307D
:10280000110509F095CF8FEF89838A831B820E947F
:102810000E208160782F9D838C8349815A816B8142
:102820008D810E942814C2CF2A960FB6F894DEBF7D
:102830000FBECDBFDF91CF911F910F91FF90EF9011
:10284000DF90CF90BF90AF909F908F907F90089532
:10285000CF93DF93CDB7DEB72B970FB6F894DEBFDB
:102860000FBECDBF4F83588769877A878B871E82BB
:102870001D8285E0FE013796DE01119601900D92D2
:102880008A95E1F749815A816B817C818D819E8196
:102890002B960FB6F894DEBF0FBECDBFDF91CF9160
:1028A0000C941A1AFC01808191810C94E31C8823FA
:1028B00009F472C08238B9F40E940D1381FD6CC016
:1028C00089E30E94111D0E94851D2FEF81EE94E087
:1028D000215080409040E1F700C0000089E30E9451
:1028E000181D0C94851D8338A1F40E940D1380FDE2
:1028F00053C083E50E94111D0E94851D2FEF81EEBC
:1029000094E0215080409040E1F700C0000083E552
:10291000E6CF8438A1F40E940D1382FD3DC087E408
:102920000E94111D0E94851D2FEF81EE94E0215021
:1029300080409040E1F700C0000087E4D0CF9CEFDA
:10294000980F913A18F40E94111DCBCF90E2980F86
:10295000983050F4E82FE77081E001C0880FEA95C5
:10296000EAF70E94391DBDCFEBE5E80FE33038F4FC
:10297000F0E0E45AFD4F808190E00C943313885AC4
:10298000873150F4E82FF0E0EE0FFF1FE25DFD4FBE
:10299000808191810C9449130895882309F44BC0D8
:1029A000823871F40E940D1381FF45C089E30E94B3
:1029B000111D0E94851D89E30E94181D0C94851D20
:1029C000833859F40E940D1380FF35C083E50E94BF
:1029D000111D0E94851D83E5EFCF843859F40E94B4
:1029E0000D1382FF28C087E40E94111D0E94851DDF
:1029F00087E4E2CF9CEF980F913AF0F290E2980FC3
:102A0000983050F4877091E001C0990F8A95EAF7E9
:102A1000892F0E943F1DD2CF9BE5980F933020F461
:102A200090E080E00C943313885A873120F490E0D2
:102A300080E00C9449130895CF93C82F0E94571437
:102A4000C93349F42FEF87EE93E021508040904046
:102A5000E1F700C000008C2FCF910C94CD14882397
:102A600021F00E94391D0C94851D0895882321F0C2
:102A70000E943F1D0C94851D0895BF92CF92DF9256
:102A8000EF92FF920F931F93CF93DF936C01D62F9A
:102A9000C72FFC01158112951F70028101110E9440
:102AA000591D0E942F1DE82E882371F00023B1F0DC
:102AB00080E28D0F883090F082E00E94D01D0E944D
:102AC0002F1D91E0E82EE926BC2EB2949FE0B9229A
:102AD000EB2DF0E0E753F74D0C945828E12CF4CFA0
:102AE0001C2F1F70C07F11F01295107F0023A9F0DA
:102AF000112359F080E28D0F883010F0D11109C0F8
:102B0000812F0E94391D0E94851D8D2F0E94571410
:102B100014C0812F0E944C1DF6CF8D2F0E94CD1422
:102B2000112359F080E28D0F883010F0D1112CC0A4
:102B3000812F0E943F1D0E94851D2B2D2850330B95
:102B40002430310520F40E940D130E94F505EE207B
:102B500009F477C10E942B1D80FD73C1F60112821A
:102B60000E94251D0E94A21BC6010E942B170E94D5
:102B7000251DDF91CF911F910F91FF90EF90DF9076
:102B8000CF90BF900C94C31B812F0E94521DD3CFB6
:102B9000FC2FFF70FF2EC07FC03219F0F29480EF3F
:102BA000F822DD2369F0D13049F1002391F111239E
:102BB00051F1F601858180FFA8CF8F70858323C0F6
:102BC000002381F0111106C00E946C1D8F290E9404
:102BD0002F15B3CF1130C1F70E946C1D8F290E94B1
:102BE000721DABCF111106C00E947B1D8F2D0E945C
:102BF0003615A3CF113009F4A0CFF6CF002329F06A
:102C0000163008F09ACF8F2DE2CF153008F095CF0F
:102C1000EDCF112359F3D93349F4FFEF27EE33E019
:102C2000F15020403040E1F700C000008D2F0E949D
:102C3000CD1483CF8C2F837009F041C001117DCF5B
:102C40004D2F429546954770440F440F0D2F0F703E
:102C500010E030E020E0042E04C0000F111F221FFE
:102C6000331F0A94D2F760E070E0CB01D4FF0FC0AD
:102C70006FE070E080E090E004C0660F771F881F6F
:102C8000991F4A95D2F76095709580959095C69555
:102C9000C695C370602B712B822B932BC23049F0E9
:102CA00058F4C13019F00E94541B47CF0E94421BB8
:102CB00044CF0E94661B41CF0E94401B3ECF8695A9
:102CC000002311F08C2F8170882309F436CF4D2F0B
:102CD000429546954770440F440F0D2F0F7010E03A
:102CE00030E020E0042E04C0000F111F221F331F0C
:102CF0000A94D2F760E070E0CB01D4FF0FC06FE020
:102D000070E080E090E004C0660F771F881F991F75
:102D10004A95D2F76095709580959095C695C69521
:102D2000C370602B712B822B932BC23049F058F467
:102D3000C13019F00E94191C00CF0E94071CFDCE63
:102D40000E942B1CFACE0E947C1BF7CECF70002372
:102D500029F08C2F0E94A21B8D2F39CF8D2F0E941E
:102D600036158C2F0E94C31BE8CED23F89F160F448
:102D7000D03FC9F0D13F29F1002309F442C011111D
:102D8000C4CE8C2F8F7121C0D33F39F1D43FA1F72E
:102D9000002369F1CF718C2F0E94A21B63E08C2F5E
:102DA0000E94BB1DCACE002341F0153008F0C5CEED
:102DB0008C2F8F710E94E61BC0CE163008F0BDCE5E
:102DC000F7CF8C2F8F71002369F20E94A21BB5CE22
:102DD0008C2F8F710023C9F3C5CF002329F08C2FCE
:102DE0008F710E948D1BA9CE0E94881BA6CE81E008
:102DF0000E94D01D123008F4A0CE82E00E94D01DA7
:102E00009CCE112359F0D93309F010CF8FEF97EEF4
:102E1000E3E081509040E040E1F706CF8C2F8F71C6
:102E2000A1CF4C2F4F706D2FC6010E945E060E94ED
:102E3000B81A83CE4C2F4F706D2FC6010E946106C9
:102E40007CCEDF91CF911F910F91FF90EF90DF909B
:102E5000CF90BF9008950F931F93CF93DF93EC0112
:102E60008B819C81892B29F08881998189238F3FCF
:102E700029F4DF91CF911F910F910895CE010E9407
:102E80000D068823B1F3688179818A810E94ED1C47
:102E90008C010E943D1C0E943F1BB801CE01DF91B6
:102EA000CF911F910F910C943D15882321F00E9422
:102EB0004C1D0C94851D0895882321F00E94521DFD
:102EC0000C94851D08950E94591D0E94691D0C9443
:102ED000851D0E941F1D0C9463170E94461D0C94B3
:102EE0006917E92FE295EF70E250EE3070F4F0E0F0
:102EF000E752F74D0C945828803F19F020F4883E93
:102F000020F481E00895843FE1F380E00895883E55
:102F1000C0F3813FD1F7F5CF93FB882780F908955F
:102F20000E94E31C0C947117CF93DF9300D000D064
:102F30000F92CDB7DEB70F900F900F900F900F90BC
:102F4000DF91CF910895CF93DF9300D000D000D0D0
:102F5000CDB7DEB726960FB6F894DEBF0FBECDBF55
:102F6000DF91CF910895CF93DF93C0919C02809120
:102F70009D028C1303C0DF91CF910895D0E0CE0164
:102F800066E070E00E941F28FC01E256FD4F408180
:102F9000518162817381848195810E94A31721965A
:102FA000C770E5CF4091CE025091CF026091D00220
:102FB0007091D1028091D2029091D3020C94A31708
:102FC000FF920F931F93CF93DF938091D302807F63
:102FD000B9F48091D002882399F020919C0200914D
:102FE0009D024091CE021091CF02E091D102F0916A
:102FF000D202F42EF122EF01C095D095021306C043
:10300000DF91CF911F910F91FF90089530E030979D
:1030100019F08FEFF81207C02F5F3F4F2770EECFE8
:103020008C0F9D1F1DC0C90166E070E00E941F2823
:10303000DC01A256BD4F11968C9111978113ECCFF4
:103040008C918413E9CF12968C9112978111E4CF61
:1030500013968D919C918E179F0710F38E1B9F0BDB
:10306000883C9105C8F68091D3028F70806180936F
:10307000D302C90166E070E00E941F28FC01ED55F3
:10308000FD4F90819F70906190838EEC92E00E9442
:103090002B17DF91CF911F910F91FF900C94B317D5
:1030A000BF92CF92DF92EF92FF920F931F93CF9335
:1030B000DF93CDB7DEB761970FB6F894DEBF0FBED2
:1030C000CDBF8C0185E0F801DE011D9601900D92C7
:1030D0008A95E1F7D8014C9111962C91119712968F
:1030E000EC9012978091D1029091D202009709F44E
:1030F00082C13091CE025091CF02632F65236F3F82
:1031000009F479C11396CD90DC90B090D002BB2029
:1031100009F413C1C816D906D0F1F601E81BF90B62
:10312000CF01FF24F394883C910508F0F12C8091A5
:10313000D302982F907FFF2009F4B9C0911180C06D
:10314000FE2C521329C0341327C0E11025C08F7004
:1031500080618093D3020E94D2178EEC92E00E948D
:103160002B178091D302D80115968C938F2D6196E1
:103170000FB6F894DEBF0FBECDBFDF91CF911F9188
:103180000F91FF90EF90DF90CF90BF9008958095C2
:1031900090958C0D9D1DC5CFCD2829F0822F8423BD
:1031A0008F3F09F044C180E0B82FB170DB2EE09171
:1031B0009C0230919D0280FD20C0EE20B9F28091EA
:1031C000D30281608093D302F12CD0CFF0E0CF0105
:1031D00066E070E00E941F28DC01A256BD4F1196E8
:1031E0008C911197821307C08C91841304C012969E
:1031F0008C91E812E2CF3196E770E313E7CF4D8769
:103200002E878D859E850E94E31C292F22952F7085
:10321000223050F0243078F49F7051F0F8019581FD
:10322000907F31F4D12C0AC09F7011F08823D1F324
:10323000805E8830B8F3C8010E942B17FD2C96CF12
:10324000521306C0341304C0D801EE2009F49BC009
:103250004D872E878D859E850E949017882319F1B2
:10326000EE2009F18091D302803270F02091CE02DD
:103270003091CF0238872F831986DB86CA868C87E8
:10328000CE0107960E942B1786E0F801AEECB2E063
:1032900001900D928A95E1F70E94E0170E94D217E3
:1032A000FF24F39463CFC8010E942B17F9CF91112B
:1032B00014C07C2DD98AC88A522F6E2D89890E940C
:1032C00094178EEC92E00E942B1786E0EEECF2E071
:1032D000DF011D928A95E9F763C0521312C03413BF
:1032E00010C0E1100EC0F8018583C8010E942B17A1
:1032F000EEECF2E086E0DF011D928A95E9F7FB2C07
:1033000035CF4D872E878D859E850E949017882307
:1033100051F2EE2041F28091D302803208F4B4CF12
:103320002091CE023091CF023A8329831B82DD8225
:10333000CC828E83CE010196A5CFC816D90698F10E
:10334000F601E81BF90BCF01F12C883C910508F040
:1033500049C0FE2CEE2009F4A6CF521332C034131C
:1033600030C08091D30280FD23C0982F907F01F15F
:10337000D80115968C931597903F39F0982F907F30
:10338000905F8F70892B15968C93C8010E942B1724
:1033900086E0F801AEECB2E001900D928A95E1F77B
:1033A0000E94D217E3CE809590958C0D9D1DCCCFB9
:1033B00086E0F801AEECB2E001900D928A95E1F75B
:1033C000D5CE4D872E878D859E850E9490178111C1
:1033D0005BCF8091D30281608093D302C8010E94A9
:1033E0002B17C4CE7C2DD98AC88A522F6E2D89897D
:1033F0000E9494176ACFEE2009F455CF4D872E878F
:103400008D859E850E949017F82E882309F44BCF56
:1034100086E0F801AEECB2E001900D928A95E1F7FA
:103420008EEC92E00E9452140E94E017B9CF81E026
:103430008E25BACECF93DF93CDB7DEB72C970FB6DC
:10344000F894DEBF0FBECDBF4F83588769877A8758
:103450008B879C87CE0107960E9450188823D1F055
:103460008A859B85892B39F04F815885842F852348
:103470008F3F09F076C080919C0290919D02891344
:1034800049C02C960FB6F894DEBF0FBECDBFDF91BA
:10349000CF91089586E0FE013796DE0111960190E6
:1034A0000D928A95E1F78A859B85892B21F3888582
:1034B0009F8189238F3FF9F280919D0290E09C01CA
:1034C0002F5F3F4F2770332740919C02421713060E
:1034D00071F40E946D1710929D0210929C0286E07A
:1034E000EEECF2E0DF011D928A95E9F7C4CF66E0C9
:1034F00070E00E941F28DC01A256BD4F96E0FE013D
:10350000319601900D929A95E1F720939D020E94C9
:10351000B317B1CF90E066E070E00E941F2882569A
:103520009D4F0E945018882309F4ABCF80919C02D4
:1035300090E066E070E00E941F28FC01E256FD4F1B
:103540004081518162817381848195810E94A3179A
:1035500080919C0290E001968770992780939C024D
:103560008ACF69857A858B859C850E94A31783CF36
:10357000EF92FF920F931F93CF93DF938C01892BD0
:1035800081F0F12CEE24E394E8012196F801849176
:10359000843770F4843008F05FC08130B1F082303D
:1035A000A1F1DF91CF911F910F91FF90EF900895BE
:1035B000853709F44CC008F43DC09CE7980F90375C
:1035C00080F78F770E94CD1449C00E5F1F4FFE0118
:1035D000849190E2980F983060F48770FE2D01C0BE
:1035E000FF0F8A95EAF78F2F0E945C1D0E94851DB0
:1035F00002C00E9457148F2D815030F2EFE9FFE096
:103600003197F1F700C00000F7CF0E5F1F4FFE01AA
:10361000849190E2980F983050F48770FE2D01C08D
:10362000FF0F8A95EAF78F2F0E94621DDFCF0E945D
:10363000CD14E1CF0E5F1F4FFE01C491C150D8F2EF
:103640008FE99FE00197F1F700C00000F7CF0E5F10
:103650001F4FFE01F490CFCF0E9457148E01CBCFA5
:1036600008950C94301B0E94311B6093F6027093F6
:10367000F7028093F8029093F9020C94631708956F
:103680000C94331B0F931F930091F6021091F702D5
:103690002091F8023091F902602B712B822B932B31
:1036A0001F910F910C94331B0F931F930091F602FF
:1036B0001091F7022091F8023091F90260237123F2
:1036C000822393231F910F910C94331B0F931F930D
:1036D0000091F6021091F7022091F8023091F90260
:1036E00060277127822793271F910F910C94331B1A
:1036F0000C94301B0C94781B0E947A1B6093F2028E
:103700007093F3028093F4029093F5020C94631784
:1037100060E070E0CB010C947C1B0F931F9341E0A1
:1037200050E060E070E08A019B0104C0000F111FAF
:10373000221F331F8A95D2F7C901B8011F910F913B
:103740000C947C1B0F931F9341E050E060E070E00D
:1037500004C0440F551F661F771F8A95D2F78091CA
:10376000F2029091F302A091F402B091F5028A0165
:103770009B01082B192B2A2B3B2BC901B8011F9148
:103780000F910C947C1B0F931F9341E050E060E07D
:1037900070E004C0440F551F661F771F8A95D2F74B
:1037A000CB01BA0160957095809590950091F202D9
:1037B0001091F3022091F4023091F50260237123FD
:1037C000822393231F910F910C947C1B0F931F93C3
:1037D00041E050E060E070E004C0440F551F661FF8
:1037E000771F8A95D2F78091F2029091F302A0910F
:1037F000F402B091F5028A019B01082719272A27B4
:103800003B27C901B8011F910F910C947C1B0F93AA
:103810001F930091F2021091F3022091F402309173
:10382000F502602B712B822B932B1F910F910C941F
:103830007C1B0F931F930091F2021091F3022091D1
:10384000F4023091F50260237123822393231F91A8
:103850000F910C947C1B0F931F930091F202109117
:10386000F3022091F4023091F5026027712782273C
:1038700093271F910F910C947C1B0895CF93DF9396
:10388000282F362F892F6CE00E941628820F982F40
:103890009770E1E001C0EE0F9A95EAF7869586955C
:1038A000869590E065E070E00E941F28DC01AC5234
:1038B000BD4F50E040E0632F70E08D91ED01219706
:1038C0009B01042E02C0369527950A94E2F72170D9
:1038D000219528272E23282728834F5F5F4F4530C7
:1038E000510559F7DF91CF910895282F892F6CE06A
:1038F0000E941628820FA82FA77086958695869518
:1039000090E065E070E00E941F28FC01EC52FD4F42
:1039100050E040E080E0219130E00A2E02C0369570
:1039200027950A94E2F721703327042E01C0220F55
:103930000A94EAF7822B4F5F5F4F4530510559F7E4
:103940000895BF92CF92DF92EF92FF920F931F9351
:10395000CF93DF938C01C090F202D090F302E090FD
:10396000F402F090F5028091F6029091F702A09196
:10397000F802B091F902C82AD92AEA2AFB2ACFE133
:10398000D0E0BC2ED701C6010C2E04C0B695A79579
:10399000979587950A94D2F780FD0EC0219788F7F6
:1039A000B12C8B2DDF91CF911F910F91FF90EF9054
:1039B000DF90CF90BF900895B8018C2F0E948406AD
:1039C000019761F3EECFCF93DF93EC010E94A11C2E
:1039D000BE01DF91CF910C9484061F93CF93DF93A8
:1039E000EB0190919B02992331F0CB01DF91CF91B4
:1039F0001F910C94E31C882379F0CB010E94A11C39
:103A0000182F682FCE010E943E1CBE01812FDF912E
:103A1000CF911F910C948406CB010E94751C182F26
:103A2000F4CF682F8091CF019091D0010C94471F63
:103A3000682F8091CF019091D0010C94521F8091FA
:103A4000CF019091D0010C945D1F8091FA02859571
:103A50008595859508958091FA02877008959091D3
:103A6000FA02977081E009F480E0089580911E03C6
:103A7000089590911E03892B80931E0308958095CD
:103A800090911E03982390931E03089510921E0395
:103A9000089580911D03089590911D03892B8093B3
:103AA0001D030895809590911D03982390931D0305
:103AB000089510921D03089590911C03892B809303
:103AC0001C030895809590911C03982390931C03E8
:103AD000089510921C0308958091FB0208950895A3
:103AE0000C946F1D9091FB02981721F08093FB02BC
:103AF0000C94701D08958091FB02882329F0109288
:103B0000FB0280E00C94701D0895E091CF01F091CC
:103B1000D00180911E038083E091CF01F091D0010C
:103B2000808190911D03892B8083E091CF01F091DA
:103B3000D001808190911C03892B80839091FB029E
:103B4000992381F0E091CF01F091D0018081892B00
:103B500080838091CF019091D0010E94E31E81115A
:103B60000E947B1D8091CF019091D0010C9419137C
:103B700008950C94B81D982F990F990F990F962BB3
:103B80009093FA020E94A21B8091FA028595859576
:103B900085950C94B91D1092FA0280E00C94B91D21
:103BA0009091FA02809589238093FA02282F27703A
:103BB00071F4282F082E000C330B9217130639F0DE
:103BC0008595859585950E94C31B0C94CB1D089502
:103BD000CF92DF92EF92FF926C01EE24FF2420E05F
:103BE000C114D104E104F10419F0C701B60120E1C8
:103BF000C72ED82EE92EFF24C114D104E104F1040C
:103C000019F0285FC701B6016B017C0154E0F694FE
:103C1000E794D794C7945A95D1F7C114D104E1041D
:103C2000F10419F02C5FC701B6016B017C0142E081
:103C3000F694E794D794C7944A95D1F7C114D10468
:103C4000E104F10419F02E5FC701B601969587953E
:103C500077956795672B682B692B09F02F5F822F6B
:103C6000FF90EF90DF90CF90089590E080E00E9469
:103C7000792821E08C3E9E4F09F020E0822F0895A4
:103C800082E090E00C946B28682F82E090E00C9426
:103C90007F2883E090E00C946B28682F83E090E00D
:103CA0000C947F28CF9384E090E00E946B28C82F6B
:103CB00081E290E00E946B28982F8C2FCF9108957D
:103CC000CF93C92F682F84E090E00E947F286C2F4B
:103CD00081E290E0CF910C947F28AB01BC018FE092
:103CE00090E00C949128AB01BC0183E190E00C942E
:103CF000912860E070E0CB010C94731E60E070E0EE
:103D0000CB010E946D1E0C94791E6CEE7EEF90E04C
:103D100080E00E949D2860E082E090E00E947F2881
:103D200060E083E090E00E947F281092F6021092FB
:103D3000F7021092F8021092F90260E084E090E03D
:103D40000E947F2860E081E290E00E947F2860E08E
:103D500085E090E00E947F2860E086E090E00E948D
:103D60007F286FEF87E090E00E947F2840E050E0DE
:103D7000BA0188E090E00E94912860E08DE090E038
:103D80000E947F2840E050E0BA0188E190E00E9464
:103D9000912860E087E190E00E947F2840E050E0B9
:103DA000BA018CE190E00E94912860E080E290E00E
:103DB0000E947F280C947E1E0C94851E682F8EE036
:103DC00090E00C947F28FC0132968091DB018823DF
:103DD00021F0809177039EE187FF96E080E091508B
:103DE00008F4089521912223D1F38F5FF8CF9C012D
:103DF000FC0132969FEF80E04191461751F09F3FC2
:103E000019F4411101C0982F8F5F8630A9F79F3FA9
:103E100009F40895290F311D97FD3A95F901628340
:103E20000895FC01329608962191261303C0DF0104
:103E300011971C92E817F907B9F70895E62FE69550
:103E4000E695E695EE3168F4E80FF92FF11D6770FD
:103E500021E030E001C0220F6A95EAF78281822BCF
:103E600082830895E62FE695E695E695EE3170F4A7
:103E7000E80FF92FF11D677021E030E001C0220F3B
:103E80006A95EAF72095828128232283089520915C
:103E9000DB01222329F02091770327FD0C941E1FBC
:103EA0000C94F71E2091DB01222329F02091770347
:103EB00027FD0C94321F0C94111FFC013296809147
:103EC000DB01882351F08091770387FF06C08EE1E4
:103ED000DF011D928A95E9F7089586E0F9CF0895EC
:103EE00008950C94701F0E94711F80917D0384308F
:103EF00009F439C01092200388E190E020E40FB665
:103F0000F894A895809360000FBE2093600080E035
:103F10000E94F5050E94890E8091210381110AC03B
:103F200081E0809321038091560381708093220366
:103F30000E94BC0D0E94711F83B7817F846083BF84
:103F400083B7816083BF7894889583B78E7F83BF62
:103F50000FB6F894A8958091600088618093600006
:103F6000109260000FBE08950895CF930E946F1FB6
:103F70000E94E0080E94B41FC0E08C2F0E947108CC
:103F8000892B31F4CF5FC430C1F780E0CF91089521
:103F900081E0FCCF08950C94CA1F0E946D170E9407
:103FA0000D130E94F50510922103809122038111C7
:103FB0000E94810E0E94CE0D0C94CB1F1F921FB643
:103FC0001F9211248F939F93AF93BF9380912003EF
:103FD000811113C08091730390917403A0917503B4
:103FE000B09176034196A11DB11D80937303909308
:103FF0007403A0937503B0937603BF91AF919F9123
:104000008F911F901FBE1F90189582E084BD93E092
:1040100095BD9AEF97BD80936E0008952FB7F894E1
:104020008091730390917403A0917503B09176030E
:104030002FBF0895CF92DF92EF92FF920F931F93BD
:104040002FB7F894409173035091740360917503F6
:10405000709176032FBF6A017B01EE24FF248C014F
:1040600030E020E0C016D106E206F30650F0481B0F
:10407000590BCA011F910F91FF90EF90DF90CF90E5
:10408000089541505109F3CF78941F921FB61F92A3
:1040900011248F939F93AF93BF938091730390915B
:1040A0007403A0917503B09176030196A11DB11D13
:1040B0008093730390937403A0937503B093760376
:1040C000BF91AF919F918F911F901FBE1F90189528
:1040D00081E08093E00080E28093D8001092C900D4
:1040E0008FE19EE40197F1F700C0000087E090EBBC
:1040F000DC018093860390938703A0938803B09399
:10410000890388E19CE00FB6F894A895809360003D
:104110000FBE90936000FFCFAF92BF92CF92DF921D
:10412000EF92FF920F931F93CF93C0E0CC24C394E0
:10413000D12CE82EF12C8C2F0E9471085C0110E02C
:1041400000E0C601002E02C0880F991F0A94E2F712
:104150008A219B21892B99F40F5F1F4F0C30110589
:1041600081F7CF5FC43039F780E0CF911F910F9175
:10417000FF90EF90DF90CF90BF90AF900895602FA9
:104180007C2F80E00E946206E816F90629F781E09C
:10419000ECCFCF93C82F8CE20E948C20882321F093
:1041A0008C2FCF910C948C2080E0CF910895CF93E9
:1041B0000E94351E811102C00E94DC1EC5E608C0A7
:1041C0000E94E0088FE39CE90197F1F700C000002E
:1041D000C150B1F789E20E94C920811100C18AE271
:1041E0000E94C92081110E94DC1E85E00E94C92026
:1041F00081110E9468200E94401E80931F0387E067
:104200000E94C920882371F08BE10E94C920882375
:1042100009F4C2C090911F03892F8D7F91FF8260A6
:1042200080931F0380911F030E94441E0E94521E10
:10423000909378038093770380EE0E94C9208823AF
:1042400041F090917703892F8E7F90FF816080935A
:10425000770389E30E94C920882341F09091770376
:10426000892F8D7F91FF82608093770382EE0E9479
:10427000C920882341F090917703892F8B7F92FF8B
:1042800084608093770386EE0E94C920882341F0E2
:1042900090917703892F877F93FF886080937703BE
:1042A00083EE0E94C920882341F090917703892FE3
:1042B0008F7E94FF80618093770385E30E94C920FD
:1042C000882341F090917703892F8F7D95FF80623D
:1042D0008093770381E30E94C920882341F0909165
:1042E0007703892F8F7B96FF80648093770381E12A
:1042F0000E94C920882341F090917703892F97FB72
:1043000087F98058809377038091770390917803A1
:104310000E94601E87E20E94C920C82F8EE10E9481
:10432000C9208111C2608FE10E94C9208111C4603F
:1043300080E20E94C9208111C86081E20E94C920E8
:104340008111C06182E20E94C9208111C06283E2B2
:104350000E94C9208111C06484E20E94C920882380
:10436000C1F1C0688C2F0E944D1E6C2F70E090E050
:1043700080E00E94401B8FE00E94C920882319F032
:1043800081E00E94DE1E85E10E94C920882339F168
:1043900080E0CF910C94DE1E8EE00E94C92088231D
:1043A00039F090911F03892F8B7F92FF846038CF63
:1043B00080E10E94C92090911F03882329F0892F52
:1043C000877F93FF88602CCF892F8E7F90FF81603D
:1043D00027CFC111C7CF0E94491E682FC7CFCF91E9
:1043E000089580914303089508950895CF93DF932E
:1043F000EC010E94A723823011F08430B9F580913E
:10440000DB018823B1F18091770387FF32C060E23E
:1044100082E08093E9008FEF9091E800815095FD54
:1044200006C095ED9A95F1F700008111F5CF8091C6
:10443000E80085FF1BC08091DB0170E050E040E0A8
:10444000811104C050E040E068E070E0CE010E94BD
:10445000C4238091E8008E778093E80080E2FE011B
:10446000A3E2B3E001900D928A95E1F7DF91CF913D
:10447000089568E081E0CDCF0895089508950C94E3
:10448000CD1F42E061EC81E00E94CC2442E261EC6D
:1044900082E00C94CC2480917F03833009F45DC0CA
:1044A00030F48130B1F1823009F499C008958A3036
:1044B00009F485C08B3009F46BC0893009F04CC019
:1044C00080917E03813209F047C0809182039091F0
:1044D0008303029708F040C08091E800877F8093B3
:1044E000E8008091E80082FF33C08091F2008230C2
:1044F00029F48091F1008B7F813021F48091F100CB
:10450000809343038091E8008B778093E8000C94BC
:10451000002580917E03813AF9F48091E800877F3D
:104520008093E8008091820390918303892B61F44A
:1045300060E283E293E070E00E9413248091E8003F
:104540008B778093E800089560E090E080E0F3CFFF
:1045500080917D038111C5CF089580917E03813ABA
:10456000D9F78091820390918303892BA9F78091D9
:10457000E800877F8093E8008091E80080FFFCCF0F
:104580008091DB018093F1008091E8008E77BDCFB0
:1045900080917E03813201F78091820390918303A1
:1045A000892BD1F68091E800877F8093E8000E94F4
:1045B0000025809180038093DB010C946D1780911E
:1045C0007E03813249F68091E800877F8093E8007E
:1045D0000E94002580918103809344030895809177
:1045E0007E03813A09F0B8CF8091E800877F8093FD
:1045F000E8008091E80080FFFCCF80914403C2CFA7
:1046000084B7877F84BF0FB6F894A8958091600027
:10461000886180936000109260000FBE80E890E097
:104620000FB6F89480936100909361000FBE0E94D2
:1046300066130E9450250E94A3258091E2008460A9
:104640008093E20078940E94FB270E946C1381ED16
:1046500091E00E94081380917D03853019F00E943B
:104660007613F9CF0E94731F80917B03882399F3FF
:104670000E94B51F882379F30E94AE23ECCF0C94DF
:104680004123292F33272330310519F168F42130D4
:10469000310509F44AC02230310509F44BC090E0DD
:1046A00080E030E020E028C02132310579F122326B
:1046B0003105A9F780E490E02FEF35E06115710531
:1046C000D9F08BE390E024EC35E061307105A1F086
:1046D000E6CF99278130910599F0009741F082301B
:1046E000910589F00397D9F6EBE4F5E002C0E3E722
:1046F000F5E0849190E09F01FA01318320830895D1
:10470000E1E6F5E0F6CFE1E5F5E0F3CF89E090E012
:1047100029E835E06115710579F389E090E022EA36
:1047200035E06130710541F3BACF82E190E022EBD0
:1047300035E0E2CF8BE390E027E735E0DDCF8091F5
:104740007D03843011F482E0089581E00895809122
:104750004503811102C00C949F23089584E089BD14
:1047600086E089BD09B400FEFDCF8091D8008F7D21
:104770008093D8008091E00082608093E000809177
:10478000E00081FDFCCF0895AF92BF92CF92DF92FF
:10479000FF920F931F93CF93DF936C01EB018A017C
:1047A0000E941F25F82E811123C00115110539F033
:1047B000F80180819181C81BD90BC80ED91EB12C7C
:1047C000A12C2097A9F08091E80085FD22C080915E
:1047D000E8008E778093E80001151105A1F0F8013B
:1047E00080819181A80EB91EB182A08285E0F82E49
:1047F0008F2DDF91CF911F910F91FF90DF90CF9080
:10480000BF90AF9008950E941F258823D1F2F82E03
:10481000EFCFF60181916F018093F1002197FFEFB7
:10482000AF1ABF0ACECFFC0180918403909185031B
:1048300086179707A0F06115710529F49091E8009B
:104840009E779093E80090E06115710551F4911105
:1048500008C08091E80082FF32C080E00895BC016A
:10486000F2CF80917D038823B1F18530B1F1809141
:10487000E80083FD2EC08091E80082FDEACF8091A0
:10488000E80080FFE1CF2091F20030E06115710572
:1048900019F02830310558F091E02830310509F041
:1048A00090E02091E8002E772093E800CDCF819111
:1048B0008093F100615071092F5F3F4FE7CF8091E6
:1048C0007D03882341F0853041F08091E80083FF2B
:1048D000C0CF81E0089582E0089583E00895FC014F
:1048E000809184039091850386179707A0F0611546
:1048F000710529F48091E8008E778093E80090E0BC
:104900006115710551F4911108C08091E80082FF92
:1049100033C080E00895BC01F2CF80917D038823ED
:10492000B9F18530B9F18091E80083FD2FC0809105
:10493000E80082FDEACF8091E80080FFE1CF20917E
:10494000F20030E06115710519F02830310558F09A
:1049500091E02830310509F090E08091E8008E77F1
:104960008093E800CDCF84918093F100319661501F
:1049700071092F5F3F4FE6CF80917D03882341F07F
:10498000853041F08091E80083FFBFCF81E008953A
:1049900082E0089583E00895982F953028F08F7075
:1049A0008093E90081E008959093E900242F762F09
:1049B00050E0981731F07091EC002091ED0050918B
:1049C000F00021FD02C09F5FE8CF3091EB003E7FF9
:1049D0003093EB003091ED003D7F3093ED0030914E
:1049E000EB0031603093EB007093EC002093ED000E
:1049F0005093F0002091EE0027FDE5CF80E0089570
:104A000080917E0387FF13C08091E80082FF06C07B
:104A10008091E8008B778093E80004C080917D034B
:104A20008111F2CF089580917D038823D9F380917D
:104A3000E80080FFF8CF8091E8008E77ECCF2091DE
:104A4000E4003091E50095E6A9012091EC00822F69
:104A5000817020FF06C08091E80080FF06C080E0E2
:104A600008952091E80022FD1AC080917D038823DB
:104A700089F0853089F08091EB0085FD0FC0209191
:104A8000E4003091E50042175307F9F29150E1F646
:104A900084E0089582E0089583E0089581E0089518
:104AA0000E94AD250E94B025E0EEF0E0808181609B
:104AB0008083E8EDF0E080818F77808319BCE3E6A6
:104AC000F0E080818160808310927C0308950E94D1
:104AD000AD250E94B0258091D8008F778093D800B3
:104AE0008091D80080688093D8008091D8008F7D15
:104AF0008093D80084E089BD86E089BD09B400FEBA
:104B0000FDCF10927D031092790310927B031092D7
:104B10007A0342E060E080E00E94CC248091E100D2
:104B20008E7F8093E1008091E20081608093E200BB
:104B30008091E20088608093E2008091E0008E7FA7
:104B40008093E0000895E3E6F0E080818E7F80832B
:104B500081E080937C030C9467251092E200089515
:104B60001092E10008951F920F920FB60F92112438
:104B70002F933F934F935F936F937F938F939F9365
:104B8000AF93BF93EF93FF938091E10082FF0BC03F
:104B90008091E20082FF07C08091E1008B7F8093CB
:104BA000E1000E94FA278091E10080FF19C0809106
:104BB000E20080FF15C08091E2008E7F8093E200CA
:104BC0008091E20080618093E2008091D800806251
:104BD0008093D80019BC85E080937D030E943E221B
:104BE0008091E10084FF2BC08091E20084FF27C008
:104BF00084E089BD86E089BD89B5982F917080FFDA
:104C0000FBCF8091D8008F7D8093D8008091E10008
:104C10008F7E8093E1008091E2008F7E8093E2009E
:104C20008091E20081608093E20080917903882383
:104C300009F443C084E080937D030E943F22809169
:104C4000E10083FF29C08091E20083FF25C08091AD
:104C5000E100877F8093E10082E080937D031092E2
:104C600079038091E1008E7F8093E1008091E200E2
:104C70008E7F8093E2008091E20080618093E20069
:104C800042E060E080E00E94CC248091F0008860E7
:104C90008093F0000E943D22FF91EF91BF91AF9170
:104CA0009F918F917F916F915F914F913F912F9144
:104CB0000F900FBE0F901F9018958091E30087FD15
:104CC00093E090937D03B9CF1F920F920FB60F928E
:104CD00011242F933F934F935F936F937F938F9301
:104CE0009F93AF93BF93CF93DF93EF93FF93D091B5
:104CF000E900DF708091EC00C82FC17080FDC0E832
:104D00001092E9008091F000877F8093F000789402
:104D10000E94A8261092E9008091F000886080939C
:104D2000F000CD2BCF70C093E900FF91EF91DF91A0
:104D3000CF91BF91AF919F918F917F916F915F9133
:104D40004F913F912F910F900FBE0F901F9018958C
:104D50001F93CF93DF93CDB7DEB7AA970FB6F89422
:104D6000DEBF0FBECDBF8EE793E02091F100FC01C6
:104D70002193CF01F3E086389F07B9F70E944B22B9
:104D80008091E80083FF1EC180917E0390917F0394
:104D90009A3008F017C1E92FF0E0E951F74D0C9473
:104DA0005828803899F0823809F00CC1809182032C
:104DB0008F70853008F006C18093E9008091EB0088
:104DC00085FB882780F91092E90006C080917A035C
:104DD00090917B03911182609091E800977F90936E
:104DE000E8008093F1001092F1008091E8008E7746
:104DF000E5C0882309F4D3C0823009F0E3C0809174
:104E000080038111D6C0809182038F702FEF280F0D
:104E1000243008F0D7C08093E9002091EB0020FFF8
:104E2000C8C0933031F48091EB0080628093EB0036
:104E3000C0C09091EB0090619093EB0021E030E0D6
:104E400001C0220F8A95EAF72093EA001092EA0047
:104E50008091EB008860EACF8111B4C0109180038B
:104E60001F778091E3008078812B8093E30080910D
:104E7000E800877F8093E8000E9400258091E80089
:104E800080FFFCCF8091E30080688093E30082E0A4
:104E9000111183E080937D0395C08058823008F023
:104EA00091C080918003909181038C3D23E0920713
:104EB000A1F583E08A838AE289834FB7F894DE0103
:104EC000139620E03EE051E2E32FF0E050935700CC
:104ED000E49120FF03C0E295EF703F5FEF708E2FEB
:104EE00090E0EA30C0F0C7968D939D932F5F2431F8
:104EF00059F74FBF8091E800877F8093E8006AE20E
:104F000070E0CE0101960E9413248091E8008B7717
:104F10008093E80057C0C096E7CF609182037091FC
:104F20008303AE014F5F5F4F0E943F23BC01892B7B
:104F300009F448C09091E800977F9093E800898138
:104F40009A810E946F24E1CF8038E1F58091E800DA
:104F5000877F8093E800809179038093F10045CFAB
:104F6000811130C090918003923060F58091E8000B
:104F7000877F8093E800909379030E9400258091B9
:104F80007903882311F084E005C08091E30087FD58
:104F9000FACF81E080937D030E94412213C080916B
:104FA0008003813079F481E0933009F080E08093D0
:104FB0007B031092E9008091E800877F8093E800EE
:104FC0000E9400258091E80083FF0AC08091E800DC
:104FD000877F8093E8008091EB0080628093EB00F4
:104FE000AA960FB6F894DEBF0FBECDBFDF91CF916A
:104FF0001F9108950895CF9380917D038823A1F098
:10500000C091E900CF709091EC00892F817090FDE4
:1050100080E8C82B1092E9008091E80083FD0E948F
:10502000A826CF70C093E900CF910895002480FD99
:10503000060E660F11F08695D1F7802D0895002495
:10504000552704C0080E591F880F991F009729F093
:1050500076956795B8F37105B9F7802D952F08956A
:10506000AA1BBB1B51E107C0AA1FBB1FA617B7078E
:1050700010F0A61BB70B881F991F5A95A9F78095AA
:105080009095BC01CD01089597FB072E16F400946E
:1050900007D077FD09D00E94302807FC05D03EF4E8
:1050A000909581959F4F0895709561957F4F0895D4
:1050B000EE0FFF1F0590F491E02D0994FC01415083
:1050C000504030F001900616D1F73197CF01089586
:1050D000882799270895F999FECF92BD81BDF89A46
:1050E000992780B50895A6E1B0E044E050E00C9423
:1050F000A528A8E1B0E042E050E00C94A528262FB6
:10510000F999FECF92BD81BDF89A019700B40216BD
:1051100039F01FBA20BD0FB6F894FA9AF99A0FBE6B
:1051200008950396272F0E9480280E947F28252F0C
:105130000E948028242F0C9480280196272F0E94FB
:1051400080280C947F28DC01CB01FC01F999FECF6B
:1051500006C0F2BDE1BDF89A319600B40D924150FF
:105160005040B8F70895F894FFCF080F100F170FAD
:105170001C0F210F260F2B0F300F350F3A0F3F0F4B
:10518000440F0A0F0A0F0A0F0A0F480F0A0F0A0FDF
:105190000A0F70157015C815C8159D159D159D151C
:1051A0009D151A16A616B516B51611179D159D153F
:1051B0001A177C177C17851785178717851785178A
:1051C00085177C177C178C17851785178C17D126A8
:1051D000F926E227F926E2272C274D27E227A427E4
:0251E000B027F6
:1051E200FFBA02380200B4021E0200680F780F886C
:1051F2000F0000000000000000000000000000C3DB
:1052020001680F780F880F00000000000000000006
:105212000000000000BF01680F780F880F00000037
:105222000000000000000000000000BB010000B709
:10523200036D0300000000000000000000000000F9
:105242000000000000E7038F0300000000000000E0
:105252000000000000A00000000000010474030030
:105262000000000000000000000000AA0000000092
:105272000019047D0300000000000000000000008F
:1052820000A000000000002E0486030000000000C1
:1052920000000000000000A0000000010039003BF7
:1052A2000045003A00440001010208080801FFFC21
:1052B20002F121F621F421F5213C2201016C0001C9
:1052C2002900011C00010E00E200E900EA00B5001D
:1052D200B600B700CD008301CC008A01920194018F
:1052E2002102230224022502260227022A02B300F7
:1052F200B4006F00700081828364653736353433C1
:105302003231309695919293940001020202E200AA
:10531200E900EA00B500B600B700CD008301CC0079
:105322008A0192019401210223022402250226020B
:1053320027022A02B300B4006F007000818283004A
:00000001FF
